:020000040800F2
:10000000D81C0020752900082DB000087F290008A1
:1000100000000000000000000000000000000000E0
:10002000000000000000000000000000812900081E
:100030000000000000000000832900089B10000859
:1000400087290008872900082D1C00088729000837
:1000500087290008271400083B1400084F140008E3
:1000600087290008872900088729000887290008B0
:1000700087290008872900081D290008872900080A
:100080008729000887290008872900080000000048
:100090008729000887290008872900088729000880
:1000A00087290008872900088729000813290008E4
:1000B00009290008872900088729000887290008DE
:1000C0000348854613F084F900480047E307000819
:1000D000D81C002000B50221022802D0E02870D1EF
:1000E00073E00222130013F00CFC0A3A3B060708E7
:1000F000090B0A3C3D6D00BF00BF00BF00BF00BF41
:100100000A22FE4B1A70FE4B1A70FE4A1268120E3B
:10011000FD4B1A70FB4A12681202120E5A70F94A0D
:1001200012881204120E9A70F64A1278DA70F74AA0
:100130001268120E1A71F54A12681202120E5A71E2
:10014000F24A12881204120E9A71F04A1278DA7189
:10015000EF4A12781A72EF4A12785A7233E000BFEF
:1001600000BF00BF0A22E54B1A70E54B1A70E54A42
:100170001268120EE44B1A70E24A12681202120E52
:100180005A70E04A12881204120E9A70DD4A1278F0
:10019000DA70DE4A1268120E1A71DC4A1268120214
:1001A000120E5A71D94A12881204120E9A71D74A45
:1001B0001278DA71D64A12781A72D64A12785A72BE
:1001C00001E031E000BF00BF2FE0D34A927B012A5B
:1001D00012D10022D04B9A730322C84B1A70052209
:1001E000C94B1A70CC4AD27B5A70CB4A127C9A7097
:1001F0000122C94B5A7016E0C74A5278012A05D02D
:10020000042A0FD10122C44B5A700BE00222BB4BCF
:100210001A70C14A92891212BB4B1A70BE4A127BE5
:100220005A7000BF00BF00E000BF00BF00BD00B5B6
:1002300085B06946B14800780DF059F8002808D01B
:100240000020694608710021039101A88181817312
:1002500024E0B248007800280FD1002168460171DF
:10026000AF48017868460172A7490391A348017815
:1002700001A881810021817310E00121684601718C
:10028000A7480178684601729F4903919B4801780D
:1002900001A881810821C1730021817301A80DF09B
:1002A00061FC002801D105B000BD0120FBE710B5BD
:1002B00088B09C4810F0E2FF01206946087505A847
:1002C0000DF07EF80446002C22D16846007E0128FD
:1002D00006D102209449087001209449087017E063
:1002E0000020694608709248019092490291924913
:1002F00003910021684601740DF095FB002803D19D
:1003000004208949087002E003208749087000BF73
:1003100008B010BD417800290CD10178002904D023
:10032000012903D0032903D101E002E001E000E04C
:1003300000BF00BF01217D4A1170704710B58CB01D
:1003400004466078002801D00CB010BD2078002849
:1003500006D0012805D0022805D0032804D101E0E9
:1003600003E002E001E000E000BF00BF6079012887
:1003700001D1FFF79CFF68480078012804D1664846
:100380008089401C64498881607B012871D1E078B4
:10039000012804D0022803D0E0286BD10AE000BF76
:1003A000207B012805D1A0680078C007C00F6349F1
:1003B00008701BE158480078002831D1207B0428C0
:1003C0002DD1A06800780128FAD1A06840780128D2
:1003D000F6D1A06880780128F2D1A068C078012801
:1003E000EED100204D490870E0204D490870434887
:1003F00000784349087002204049087000204649AF
:1004000088818873C87308740120087048700221BD
:1004100008A801710121017209A80DF0D1F8E3E0EB
:10042000A06800783C49487008464078030013F003
:1004300068FA08051C22282F4950A1D90020374905
:1004400008700220364908702D4800782B49087042
:100450000020314988810870022108A8017101211A
:10046000017209A80DF0ACF8BDE002202349087024
:10047000B9E0BCE0B9E0012028490870264948707D
:10048000B1E0002025490870012023494870AAE006
:10049000207B1A49087004201B490870012006E0DF
:1004A000A168095C491C184A1154411CC8B213497F
:1004B0000978F22902DA1149097800E0F221814233
:1004C000EEDC90E001206946087404A80DF0ABFA58
:1004D00089E000201149087002201149087008487D
:1004E00000780649087000200B49888108700221B5
:1004F000684601710121017201A821E0210000205C
:10050000220000202C0000206C0100203000002080
:100510003400002035000020740200202300002059
:1005200020000020600200202A0000202900002076
:1005300000000020080000201000002028000020FB
:100540000DF03EF8002168460174E8480590E8493E
:100550000691E8490791002104A801740DF063FA9F
:10056000002803D10420E449087002E00320E24996
:10057000087038E0207B03280ED1022069460874F9
:10058000A06840780002A16889780843694688829B
:1005900004A80DF048FA21E0207B07281ED1032093
:1005A00069460874A06840780002A1688978084309
:1005B00069468882A068C0780004A16809790902A8
:1005C0000843A16849790843642148430690A0681C
:1005D000817904A801730DF026FA00BF0120C749F4
:1005E000487000E000BF00BF00E000BF00BF00BFD8
:1005F000AAE610B586B004462078002802D001286B
:100600002ED11FE06078002803D10220BA4908707B
:1006100017E0002069460871B4480290B44903917C
:10062000B4490491002101A801740DF0FCF90028DF
:1006300003D10420B049087002E00320AE490870DD
:1006400000BF0EE06078002809D1AC48007801288E
:1006500005D1AA498873207AC873607A087400E0CB
:1006600000BF00BF0120A649087006B010BD10B53C
:1006700004462078042802D1FFF719FE00E000BFED
:1006800000BF10BDF0B59DB005460E46012D62D1EC
:1006900000249CA1304612F038F9041E0AD0002034
:1006A00006E0215C0A2902D10021215487B2401CB6
:1006B0008028F6DB204610F0B5FE012847D193498B
:1006C000087004AA3946204610F02AFF012841D1BB
:1006D00008A8007841283DD108A802300EF04EFD50
:1006E00000228B4B0191009012F010FB03910290BD
:1006F00012F038FC874908600BA803300EF0DDFDCE
:100700000022834B0191009012F000FB03910290B4
:1007100012F028FC804908600BA801300EF07EFE24
:10072000002803D000207D49087002E001207B49A9
:1007300008700EA803300EF079FE002803D00020C8
:100740007749087006E001207549087002E0002032
:100750006E49087000BF1DB0F0BD0EB501225202F7
:100760007049714810F019FC012252026F496E481D
:100770000C3010F012FC6E486B491C3948632B2377
:100780002A22022168481C3811F05CFB00200090EE
:1007900001900346E12252020221029062481C3875
:1007A00011F061FB0EBD10B562495F481C3811F0B5
:1007B0009AFB10BD1CB5012000210B46024600919A
:1007C000019026215C4810F023FC1CBD1CB50020C4
:1007D00000900346012226210190574810F018FC92
:1007E0001CBD8EB000F006FB00F07EF9FFF7E2FFC3
:1007F000FFF7B3FF00204049087076E03E480078DC
:10080000030013F07EF805042B3F606C6D004B482D
:100810000A904B480B904B480C904B480D904B481E
:100820000990022209A90AA80CF003FC484949488A
:1008300010F026FC0221684601760121017706A806
:100840000CF0BEFE0721684601760121017706A85B
:100850000CF0B6FE01202849087045E000206946EA
:1008600008712248029022490391224904912448A8
:100870000078012802D101A80DF0D5F804201E4906
:10088000087031E021480078002801D1FFF78BFF84
:100890001B480078012807D12F480078FFF71AFC81
:1008A000FFF7C5FC1649087014480078012803D1E9
:1008B0002A482B49086002E02A4829490860032099
:1008C0000D49087010E004200B49087024480168A5
:1008D000204810F053FD1F4810F043FC04E003E0F3
:1008E00000200549087000BF00BF87E70000002016
:1008F00008000020100000202A00002074020020C0
:1009000029000020244750524D43000036000020AB
:1009100080842E412C000020300000203400002074
:100920003500002088020020B00600208804002046
:1009300085060008370000208806002015030008FF
:100940003D030008F30500086F060008F30F0008D8
:10095000AF02000860020020200000208813000081
:1009600024000020102700007CB505460C464C48AA
:100970004C4908604C48406B0121490208434A49F0
:100980004863484802F01DFB601C002808D0002086
:1009900000900346032221460190284610F038FBC0
:1009A0007CBD10B500203F494860032189073D48C0
:1009B0004161002181610721C161012101620021A2
:1009C00041628162C1624163016381630421C16349
:1009D00089020164002141648164C16402F057F915
:1009E0000021304802F0FCFF10BD1CB504462F4822
:1009F00000902F4801906946204602F0D8FE1CBDA9
:100A00007CB506460C460020009001900025264843
:100A10000068012108432449086000BF224800689B
:100A20000421084080080028F8D01F48406BC90105
:100A300008431D49486300211A4802F0D1FF1948B4
:100A4000FFF7D3FF00940120000301906946154889
:100A500002F0ADFE134802F088FB0021C9431148A3
:100A600002F0E4FB0F4802F012FE85B21149009833
:100A7000884203D010490098884202D1094802F008
:100A8000A0FA0948406B012149028843064948639E
:100A90000846006840084000086028467CBD000009
:100AA00000240140CC06002000100240FFFF077C1C
:100AB0000110000000000448000002440120FE492B
:100AC0000870704772B6FD480078401CFB490870FA
:100AD0007047FA480078401EF849087008460078C8
:100AE000002800D162B6704700B585B00120002112
:100AF0000B46024600910190182102A810F088FAD6
:100B0000012000210B460A4600910190702102A8A5
:100B100010F07EFA012000210B460A460091019058
:100B2000712102A810F074FA012000210B46024640
:100B300000910190722102A810F06AFA01200021B0
:100B40000B460A4600910190732102A810F060FA4A
:100B5000012000210B460A4600910190742102A851
:100B600010F056FA012000210B460A460091019030
:100B7000752102A810F04CFA012000210B460A460C
:100B800000910190762102A810F042FA0120002184
:100B90000B460A4600910190772102A810F038FA1E
:100BA000012000210B460A4600910190782102A8FD
:100BB00010F02EFA012000210B460A460091019008
:100BC000792102A810F024FA012000210B460A46E0
:100BD000009101907A2102A810F01AFA0120002158
:100BE0000B460246009101907B2102A810F010FAFA
:100BF00005B000BD01207047B148806B0121090795
:100C00000843AF498863AF4800680321C90288439D
:100C10000121C9024018AB49086000BFA84800681C
:100C2000012109040843A649086000BF00BFA44889
:100C30000068012149040840400C0028F7D0A04872
:100C40000068C90108439E49086000BF9C480068CD
:100C5000012149060840400E0028F7D09848C06896
:100C600080088000C01C9649C86000BF9448C068D6
:100C70000C2108400C28F9D1704700B585B0FFF76A
:100C8000B9FF012811D100200090034603220B2157
:100C9000019002A810F0BCF9002000900346032246
:100CA0000C21019002A810F0B3F900200090034637
:100CB00003221C21019002A810F0AAF90020009044
:100CC000034603221D21019002A810F0A1F9002083
:100CD0000090034603221E21019002A810F098F90B
:100CE00000200090034603221F21019002A810F06B
:100CF0008FF900200090034603221521019002A8DD
:100D000010F086F9002000900123032212210190A7
:100D100002A810F07DF9002000900346032211463E
:100D2000019002A810F074F90020009003460322FD
:100D30000821019002A810F06BF901F04FFF01F0BB
:100D40003FFF01F059FF05B000BD30B59DB05C48D4
:100D5000806B012109070843594988635948006895
:100D60000321C90288430121C9024018554908607E
:100D700005200F9001200004109000121190022015
:100D80001990C1031A9141041B9181051C910FA870
:100D900004F09FF9002800D000BF0F200A90032024
:100DA0000B9000200C900D900E9001210AA804F0E9
:100DB000E3FC002800D000BF20200090C002069075
:100DC000684604F02FFF002800D000BF04F038FE72
:100DD00005467D21C90011F00CFD044602F062FFBA
:100DE000042002F0B9FF00221146501E02F025FF38
:100DF0001DB030BD1CB534480078002808D101F082
:100E00008AFEFFF7A2FF00F077FBFFF736FF01E055
:100E1000FFF7F2FE10212D4810F07AF80020C043B1
:100E20001D211E231F22009101900121284800F05E
:100E3000AAFF01F0EFF824480078002804D101202F
:100E400021490870FFF7D6FE1CBDFFF73BFE00BF2F
:100E500000BF00BF00BF00BFBFF34F8F00BF00BF88
:100E600000BF1C481C49C86000BF00BF00BFBFF3E3
:100E70004F8F00BF00BF00BF00BF00BFFDE700B540
:100E800085B0124810F055F8114801F038F801F01B
:100E90003BF900200090034603226021019002A844
:100EA00010F0B6F800200090034603226121019063
:100EB00002A810F0ADF811E03F0000204000002033
:100EC00000100240007000403E0000202C0700206F
:100ED000001800200400FA0500ED00E0002000905A
:100EE000034602462E21019002A810F091F800203E
:100EF0000090034602462F21019002A810F088F8C6
:100F000005B000BD684800696749496948406649BD
:100F1000496A4840704764490969634A526A8918B6
:100F2000090EC171604909695F4A526A891809024C
:100F3000090E81715C49098A5B4A928C89180904FF
:100F4000090E41715849097C574A928C89180171E0
:100F500055494969090EC170534949690902090E89
:100F600081705149898A0904090E41704E49097DF1
:100F700001707047F0B585B000254B482030008BDC
:100F80000390002002900024484949480FF0D5FF03
:100F90000290039811F09AFF434920310190088B89
:100FA00011F094FF4349009011F083FD0746019929
:100FB00011F0BCFD064611F0C1FF85B2029811F098
:100FC00085FF3D49009011F0B1FD0746284611F01C
:100FD0007DFF3946019011F06CFD064611F0AEFF21
:100FE00084B26004040C204605B0F0BD334800888C
:100FF000704710B50024FFF7BDFF30490880FFF7A8
:10100000F9FD002800D12DE02C4800882C498842A9
:1010100001DBFE2426E0294800881921C901884205
:1010200012DD26480088264988420DDA23490988BE
:101030001922D201891AFD2251430846214911F093
:10104000EEFB401CC4B20DE01C4800881E498842DB
:1010500007DD1A4800881921C901884201DC0124F2
:1010600000E0FF24204610BD10B518480078002885
:1010700012D11749174810F003F87D21C90015480F
:1010800010F07CF9134810F06CF801E010F08FF9C3
:101090000E4800780028F9D010BD10B501F061FDB0
:1010A00002F06BFE10BD70474000F81F00010020E9
:1010B0002C07002000404E4500F07F4542000020F4
:1010C00036100000B60300001C0C00003F0000209A
:1010D000BD0A00088C07002010B50446204601F028
:1010E00049FD10BD70B504460D46002020567028FD
:1010F00010DA002C02D06068002800D100BF002068
:101100002056401C002800D170BDEAB2618860689A
:1011100003F0A8FD00BFF7E7F0B587B004460E4620
:1011200015461F46702E71DA2670701C002801D1FA
:1011300007B0F0BD20780107090F012088406080CA
:1011400000202056F0210840002810D1052000077B
:10115000606000BFE048C06A01210843DE49C86200
:101160000846C06AC007C00F019000BF42E00020DF
:101170002056F021084010280FD1D848606000BFE9
:10118000D548C06A02210843D349C8620846C06AEC
:1011900002210840019000BF2CE000202056F021E1
:1011A000084020280FD1CE48606000BFCA48C06AFE
:1011B00004210843C849C8620846C06A042108409F
:1011C000019000BF16E000202056F0210840302892
:1011D0000FD1C448606000BFBF48C06A08210843FF
:1011E000BD49C8620846C06A08210840019000BF96
:1011F00000E000BF608802900C98A072049002206A
:101200000590002D03D10020039018E022E0032D6B
:1012100002D10320039012E0022D09D1012F02D147
:101220001220039001E0022003900D98069006E042
:10123000012F02D11120039001E001200390012D24
:1012400003D120460D99FFF74DFF02A9606803F016
:101250008FFB00BF00BF6BE7F0B587B004460D46BB
:1012600016461F4600202056702871DA002006908E
:1012700005200590002F01D107B0F0BD60880090D7
:10128000012D02D19848019006E0022D02D1974825
:10129000019001E096480190A07A0290022003900C
:1012A0006946606803F064FB330012F02AFB050412
:1012B00005080B0F0E0000BF0320069009E0022076
:1012C000069006E00120069003E000BF0020069093
:1012D00000BF00BF6188FF220132881A914240D0CE
:1012E00012DC102939D008DC01292DD002292CD09C
:1012F00004292ED008293ED12CE020292ED04029C7
:101300002DD0802937D12BE00F221202811A904272
:101310002BD00DDCFF380138002823D0FF38FF38F0
:10132000023800281FD001218902401A23D11BE076
:1013300001200003081A19D001214903401A16D0D0
:101340004900401A17D113E000BF0520059013E0B3
:1013500021E000BF062005900EE000BF00BF00BFE7
:1013600000BF00BF00BF00BF00BF00BF00BF00BF85
:101370000720059000E000BF00BF20780007800E26
:101380005C490F5000220699059802F056FC05981A
:1013900002F05CFC00BF00BF6EE710B586B00446EB
:1013A0000020205670280EDA6088019003200290F9
:1013B00001A9606803F0DCFA002021780907890E92
:1013C0004C4A505000BF06B010BD10B50446002076
:1013D000205670280FDA002C02D06068002800D157
:1013E00000BF00202056401C002800D110BD61889D
:1013F000606803F03DFC00BFF8E710B5044600202C
:10140000205670280DDA002C00D100BF0020205695
:10141000401C002800D110BD6188606803F019FCF1
:10142000F9E70020F7E710B500F009FB012003F011
:101430003DFC022003F03AFC10BD10B500F0FFFAAD
:10144000042003F033FC082003F030FC10BD10B57D
:1014500000F0F5FA102003F029FC202003F026FC10
:10146000402003F023FC802003F020FCFF2001300B
:1014700003F01CFC0120400203F018FC0120800254
:1014800003F014FC0120C00203F010FC0120000353
:1014900003F00CFC0120400303F008FC0120800352
:1014A00003F004FC0120C00303F000FC10BD70B584
:1014B00004460025002C05DD02E06410681CC5B25E
:1014C000012CFAD1A8000B490858002803D0A90024
:1014D000084A5058804770BD001002400004005078
:1014E00000080050000C00500000111000002110F6
:1014F00000003110A007002000B587B0FA4800783E
:10150000002840D1F9480069012189040843F749BE
:101510000861F748F7490860002048600F21F54846
:101520008160F549C160002101618161C16105F0FF
:1015300055F800216846C171012141718171062170
:101540000171002201A9EB4805F047FA0021684625
:10155000017201A8417181710491C17105910691D7
:10156000002202A9E34805F05CF9E24806F03CFEDF
:1015700000220121022002F060FB022002F066FB43
:101580000120D949087007B000BDF1B584B000BF93
:10159000049811F0B7FC04460022D84B11F0B6FBBA
:1015A00006460022D64B11F019FC0191009012F072
:1015B00099FA039102900399029811F0F7FC05B093
:1015C000F0BD0FB4F0B589B0182210A903A811F02E
:1015D00078F900240020029010A8867947790079D4
:1015E000019010A885780F9C0089C349081A80B221
:1015F000029021400298081880B20290E40A03E0A9
:10160000C048241A681C85B2BE488442F8D206E05D
:10161000E1200001241A0198401C80B20190E120D1
:1016200000018442F4D202E03C3C781C87B23C2C9E
:10163000FAD2301986B207E00121C9020298401A95
:1016400080B20290701C86B20121C90202988842C1
:10165000F2DA04E030463C3886B2781C87B23C2E81
:10166000F8DA06E038463C3887B20198401C80B270
:1016700001903C2FF6DA05E00198183880B201900D
:10168000681C85B201981828F6DA10A9C9780029D3
:1016900008D010A9C878C117890F091889108900C6
:1016A000411A16D110A84078401E9749085CA842FC
:1016B00025DA10A84078401E0A46115C284611F031
:1016C000AEF88DB26846407B401CC1B2684641739B
:1016D00015E010A84078401E8C49085CA8420EDA3C
:1016E00010A84078401E0A46115C284611F097F871
:1016F0008DB26846407B401CC1B2684641737E494A
:101700000298091A059103A8867147710198C1B220
:10171000684601748573182203A90E9811F0D1F858
:1017200009B0F0BC08BC04B0184770B586B00546D7
:1017300000260024002201A96E4805F01AF9029E35
:10174000002201A96B4805F014F9029C06E0264628
:10175000002201A9674805F00CF9029CA642F6D1C7
:1017600000226946634805F0D8F9182269462846E0
:1017700011F0A7F806B070BD10B5A0B00446FF2167
:1017800001315C4805F02AFC032C00D8032404A88E
:10179000FFF7CBFF182204A91AA811F092F818221B
:1017A0001AA95B4811F08DF81CA80FC803936B466B
:1017B00007C3214604A81B9B1A9AFFF702FF1822B1
:1017C00004A914A811F07DF8FF2001301390002027
:1017D00011900F900F2000061090002108A8C172F0
:1017E00016980B9014A8817908A8817214A84179E1
:1017F00008A8417210A8017D08A8017210A8817C78
:10180000017200220AA93B4805F0BCFA002800D06A
:1018100000BF20B010BD70B504462046FFF7B5FEEE
:101820000546FFF7A9FF70BD3A490968884209D902
:1018300039490978012905D10021374A1170354904
:101840000968401A3349096888420BD9322803D203
:101850000021324A117005E00121304A11702D49F2
:101860000968401A7047F1B584B000BF049811F0C0
:1018700049FB04460022224B11F048FA064600229A
:101880001E4B11F0ABFA0191009012F02BF903916D
:1018900002900399029811F089FB05B0F0BD70B574
:1018A0008CB0054600BF0024002D08D16846FFF724
:1018B0003CFF1822694606A811F003F804E018223C
:1018C000294606A810F0FDFF00202FE0002807D0D1
:1018D0000146C217920F521892109200821A21D11B
:1018E0000F49641820E0000047000020401002402B
:1018F00000280040F8070020FF07000000007040AB
:1019000000405F4080510100A83B01089C3B01085A
:10191000E00700204C00002044000020450000208B
:101920000085E201CB496418411C08B26946C97EB2
:101930008142CBDC6946C97E002908D06946C87E51
:10194000C117890F091889108900411A0ED100208A
:1019500006E0C149095CC14A51430C19411CC8B297
:101960006946497E491E8142F3DC0DE0002006E015
:10197000BB49095CB94A51430C19411CC8B26946BC
:10198000497E491E8142F3DC06A8817940793C22D8
:10199000504309186846007FE1221201504309189C
:1019A0006846807EAD4A504308180419E102AD4AEA
:1019B0000898101A0E1830460CB070BD10B50024EF
:1019C0000020FFF76CFF04462046FFF74CFF20463F
:1019D000FFF749FF10BD70B5002600240025002048
:1019E000FFF75DFF0446A048FFF759FF0546AC42EC
:1019F00003D2701E401B061900E0661B3046FFF73D
:101A000032FF70BD10B50446FFF7D8FF001910BDB6
:101A100070B504460025002C00D170BD0020FFF7F2
:101A20003EFF05462846FFF71EFF0546A54204D2A5
:101A30007D200006001B4019EFE7281BEDE710B5DD
:101A40008A484068C007C00F01214840484000282C
:101A500006D086480068042108438449086002E0F3
:101A60000120834908708348C0680C21084004287D
:101A700004D08048C0680840002801D1FFF7BAF9B7
:101A800010BD10B50446012C01D1FFF7D8FF7A48EC
:101A9000047010BD10B578480078002815D177483B
:101AA0000078012811D1FFF7EAF903F095F96F48A2
:101AB0000068042108436D49086003F02FFA03F021
:101AC0001DFA0121084603F0B4F910BD30B597B0F6
:101AD000002400256A48007800281BD101A8FFF7E0
:101AE00024FE182201A907A810F0EBFE0023FF2214
:101AF00001320DA9634805F0FAFA5A490E980C1AFA
:101B000009980D1A281BFFF7AEFE5F4908600120F7
:101B10005B49087017B030BDF3B58BB0182105A82C
:101B200010F0E8FE00240020049000250026002785
:101B3000039001200290002001900C9C6105490D4A
:101B4000049808180490E40A05E04448241A03980D
:101B5000401C80B2039041488442F6D204E0E12068
:101B60000001241A781C87B2E12000018442F6D2D9
:101B700002E03C3C701C86B23C2CFAD2281985B29B
:101B800007E00121C9020498401A80B20490681C41
:101B900085B20121C90204988842F2DA04E028469D
:101BA0003C3885B2701C86B23C2DF8DA04E0304631
:101BB0003C3886B2781C87B23C2EF8DA06E038460C
:101BC000183887B20398401C80B20390182FF6DAB9
:101BD0000BE00298401E2049095C0398401A80B22D
:101BE00003900298401CC0B202900298401E1A490D
:101BF000095C03988142ECDB1A490498091A0791A1
:101C000005A885714671684607760398C1B2684693
:101C10008175029941750198C1B26846C175182253
:101C200005A90B9810F04DFE0DB0F0BD10B515488C
:101C300005F0D4FAFF210131124805F0CFF9FFF782
:101C4000FEFEFFF743FF0020FFF71BFF0FF0CEFA69
:101C500010BD70478033E101A83B010880510100AD
:101C60009C3B0108FF070000E007002000700040D7
:101C700044000020001002404600002045000020E3
:101C800048000020F80700204C00002070B50246F4
:101C90000020DA4D2B6804E0401C5B08072800D3C5
:101CA00001E08B42F8D800BF04250540002D00D18B
:101CB00000E0202502260640002E00D100E010267C
:101CC0003543C607F60F002E00D100E008262C464B
:101CD0003443157858267543C94EAD19EC6170BD73
:101CE000F0B5059C0026057858277D43C44FED19B3
:101CF000AE60002906D1057858277D43C04FED1905
:101D0000EE6007E00126F602057858277D43BC4FB8
:101D1000ED19EE60057858267543B94EAD192A6164
:101D2000057858267543B64EAD196B6100260578C7
:101D300058277D43B24FED192E62057858277D4311
:101D4000AF4FED196E62057858277D43AC4FED1902
:101D5000AE620726057858277D43A94FED19EE623C
:101D6000002C08D1FF260536057858277D43A44F5F
:101D7000ED196E6006E00026057858277D43A04FD8
:101D8000ED196E60F0BDFEB504460D4616461F46C1
:101D9000FEF798FE2570002D43D19A48406A012134
:101DA00009030843974948620846406A89148843F2
:101DB000944948620846406B891408439149486336
:101DC0009149582068438E4A115000200221034651
:101DD0000A46009101903146201D0FF019F90020AC
:101DE000022103460A4600910190394620461030F0
:101DF0000FF00EF90020022103460A4600910190DF
:101E000020461C3008990FF003F9002001210346F9
:101E10000222009101902046283009990FF0F8F82D
:101E200044E07848806A0121890308437549886243
:101E30000846806A012189038843724988620846FE
:101E4000806B0121890308436E4988636F495820DC
:101E500068436B4A11500020022103460A46009154
:101E600001903146201D0FF0D3F8002002210346D7
:101E70000A46009101903946204610300FF0C8F80C
:101E80000020022103460A460091019020461C30A2
:101E900008990FF0BDF800200121034602220091AD
:101EA00001902046283009990FF0B2F80998401C9B
:101EB00000280FD10121490258206843504A801858
:101EC0008161002003460246014600902046FFF74C
:101ED00007FF07E0012000231A461946009020461C
:101EE000FFF7FEFE4A492046FFF7D0FE582169431E
:101EF000434A881806F0FFF9FEF7EBFDFEBD1CB55E
:101F000004462178582251433D4A881806F03BFA8E
:101F10000020009004210190615603460122201DFB
:101F20000FF076F8002002210091019010216156F7
:101F300003460122204610300FF06AF8002000907E
:101F40001C21019061560346012220461C300FF0EF
:101F50005FF8012000900190282001570023012202
:101F600020180FF055F81CBD70B504460D4600BF93
:101F7000002C06D0207858214843214908580028D1
:101F800000D100BF2078582148431D4908580068F7
:101F900040210843217858225143194A515808607A
:101FA000FEF790FD00BF2078582148431449085897
:101FB00080680221084040080028F4D0E9B2207867
:101FC000582250430E4A1058C16000BF2078582153
:101FD00048430B4908588068C007C00F012148409A
:101FE00048400028F2D02078582148430449085836
:101FF000C068C6B2FEF76DFD304670BD5C000020C3
:102000001C08002000100240003001400038004051
:10201000809698001CB501200090002302461C21E8
:102020000190EB480EF0F4FF002001210346024628
:10203000009101901B21E64870380EF0E9FF002066
:10204000012103460246009101902D21E0486438A9
:102050000EF0DEFF002001210346024600910190B0
:102060001921DB4858380EF0D3FF00200121034628
:102070000246009101901421D5484C380EF0C8FF5B
:102080000020012103460246009101901321D0480F
:1020900040380EF0BDFF00200121034602460091AA
:1020A00001900F21CA4834380EF0B2FF1CBD10B5A4
:1020B000044603220121C648703823680EF0B9FF98
:1020C00003220121C248643863680EF0B2FF032284
:1020D0000121BF485838A3680EF0ABFF032201214D
:1020E000BB484C38E3680EF0A4FF03220121B84836
:1020F000403823690EF09DFF03220121B448343893
:1021000063690EF096FF10BD1CB5012000210B463F
:102110000246009101901C21AD480EF079FF00208D
:102120000090034602461B210190A94870380EF02A
:102130006FFF00200090034602462D210190A44825
:1021400064380EF065FF0020009003460246192116
:1021500001909F4858380EF05BFF00200090034626
:102160000246142101909A484C380EF051FF00208D
:1021700000900346024613210190954840380EF026
:1021800047FF00200090034602460F21019090482F
:1021900034380EF03DFF1CBD7047002070471CB561
:1021A0000120FFF7F9FF00200090034601221A21C9
:1021B000019087487C380EF02BFF01200EF0CEFEF8
:1021C000012000210B460A46009101901A21804807
:1021D0007C380EF01DFF06200EF0C0FE1CBD01462F
:1021E0008020704770B504460025002609200DF0B8
:1021F0007BF905464D200DF077F9064674490C3100
:102200004868FFF7ECFF6906490E08430546284673
:102210008F210840054670358020284080282CD129
:10222000112C04DD3046F8210840C61D03E030467D
:10223000F8210840061D7007400F07280ED1052C15
:1022400000DA0524142C00DD14242846F02108406F
:10225000611F0907090F084305461EE0022C00DA3A
:102260000224112C00DD11242846F0210840A11E73
:102270000907090F084305460FE00020C0438442C8
:1022800000DA04460E2C00DD0E242846F02108401A
:10229000611C0907090F08430546294609200DF06E
:1022A000FCF831464D200DF0F8F870BD1CB500204B
:1022B000009001231A461946019046480EF0A8FEE8
:1022C0000020009001231A460146019042480EF07A
:1022D0009FFE1CBD1CB50120009000230246014654
:1022E00001903C480EF094FE0020012103460A466E
:1022F00000910190014638480EF08AFE1CBD10B5D1
:10230000044636480078A0420ED034480470002CB1
:1023100005D10120FFF740FFFFF7DCFF04E00020BC
:10232000FFF73AFFFFF7C2FF10BD10B50446032CBC
:1023300006D0052C0ED0062C0DD0072C09D10BE0B1
:10234000002124480EF087FE012123480EF083FE71
:102350000BE000BF00BF00BF01211E480EF07BFE56
:1023600000211D480EF077FE00BF00BF10BD0146E2
:102370000120704770B5044600200DF0E8F82046B3
:102380000DF033F912210E200DF087F802211220F2
:102390000DF083F8022113200DF07FF805200DF0D9
:1023A000ADF802200EF0DAFD00200DF07DFA0546B2
:1023B0000DF0BEF8284670BD70B505460C4628469F
:1023C000FFF7D8FFA04201DA012070BD0020FCE732
:1023D00028180020CC080020D80800205000002039
:1023E000FEB504460D4616461F462570FF2D55D0F6
:1023F000002D2AD1FE48406A012189030843FC4987
:1024000048620846406A012189038843F8494862C6
:102410000846406B012189030843F54948630420BD
:10242000012100230222009101903146201D0EF06F
:10243000EFFD042001210023022200910190394682
:10244000204610300EF0E4FD28E0022D26D1E848A9
:10245000806AA9040843E64988620846806AA9049C
:102460008843E34988620846806BA9040843E04931
:102470008863062001210023022200910190314649
:10248000201D0EF0C5FD062001210023022200912F
:1024900001903946204610300EF0BAFDFEBDFFB562
:1024A00081B004460D461F460C9E2078FF2873D04D
:1024B0002078002803D1CF48CF4908600CE020786D
:1024C000012803D1CD48CC49086005E020780228D6
:1024D00002D1CB48C8490860C74903984860002D1D
:1024E00007D1206A002800D100BF0821C2484161FD
:1024F00017E0012D07D1E06A002800D100BF0421B8
:10250000BD4841610DE0022D0AD1206A002802D0A9
:10251000E06A002800D100BF0C21B748416100E00B
:1025200000BF002F03D10021B348816004E0012FD8
:1025300002D13903B04881600A9800280FD00228E0
:1025400002D003280AD104E001214903AA48C1604E
:1025500009E003210903A848C16004E000BF00218D
:10256000A548C16000BF00BF0B98002803D100211F
:10257000A14801610AE00B98012803D181029E481D
:10258000016103E0032149029B480161002E04D14F
:1025900000219948816111E044E0012E03D131020C
:1025A000954881610AE0022E03D13102924881618F
:1025B00004E0032E02D131028F48816100218E4850
:1025C000C161016200208C494862084607F0ABFEF9
:1025D000002800D000BF884807F08DFD002800D0FB
:1025E00000BF207800280DD1002201211B2001F01E
:1025F00024FB1B2001F02AFB012282497E4807F0C0
:10260000F1FF0FE0207802280CD1002201210E20DA
:1026100001F013FB0E2001F019FB7B4A7B49764841
:1026200007F0E0FF05B0F0BD1CB504462078FF2898
:1026300045D02078002815D16D48406A01218903D2
:1026400008436B4948620846406A01218903884370
:10265000674948620846406B012189038843644901
:10266000486317E02078022814D16148806A01216C
:10267000C90408435E4988620846806A0121C9048A
:1026800088435B4988620846806B0121C9048843FE
:102690005749886300200090042101906156034649
:1026A0000322201D0EF0B4FC0020009010210190A8
:1026B000615603460322204610300EF0A9FC1CBDD3
:1026C00070B504460D462078FF2800D170BDFEF796
:1026D000F9F94F48057020461C300EF08CFC00289C
:1026E00011D14B48017820461C300EF05CFC42486A
:1026F00000680068402108433F4909680860FEF708
:10270000E8F90020E2E7FEF7E4F90120DEE770B522
:1027100004460D462078FF2800D170BDFEF7D2F99F
:10272000204628300EF05EFC002808D120462830D4
:102730000EF045FC2870FEF7CCF90020EDE7FEF71F
:10274000C8F90120E9E7F7B505460E462878FF28C5
:1027500000D1FEBD00240FE0002705E0781CC7B2C1
:102760000A2F01DD0120F4E7315D28460FF095FBCB
:102770000028F3D1601C84B202988442ECDB002074
:10278000E7E7FFB581B00D4616461F46002409E075
:10279000291901980FF089FB002802D1601C84B22E
:1027A00000E001E0B442F3DB00BF3C80002C02D12A
:1027B000012005B0F0BD0020FBE710B504460D492F
:1027C000206888422ED113480EF00CFC002808D156
:1027D00010480EF0F4FB0E4908700122064807F07D
:1027E000CAFE0C481C38406B002828D0094813E06A
:1027F0000010024000380140E4080020004400407E
:10280000004C00405100002021020000540900202B
:1028100052000020700700201C384C49426B0020F9
:1028200090470CE04A492068884208D14948406BEB
:10283000002804D047484849426B0020904710BD0B
:1028400010B5044645492068884228D144480EF016
:10285000D2FB002804D14348017841480EF0A3FB85
:102860003F482838406B002805D03D4828383D496E
:10287000426B0120904700BF20688069082108430F
:102880002168886120688069102108432168886177
:1028900000BF01223349344807F0A4FE26E02C494A
:1028A0002068884222D12B4828300EF0A4FB002853
:1028B00005D12C480178274828300EF074FB2548B4
:1028C000406B002804D023482849426B01209047E0
:1028D00000BF20688069082108432168886120685A
:1028E0008069102108432168886100BF10BD08215C
:1028F0001D4A1268116204211B4A126811620221EA
:10290000194A12681162704710B5174808F0DAF8D2
:1029100010BD10B5144808F0D5F810BD10B5124818
:1029200008F0D0F8124A11490F4807F05BFE10BDBD
:1029300070B506460C4620460FF0FBFFC5B22A468E
:102940002146094807F017FE70BD00005200002024
:10295000004C004094060020530000200038014045
:102960007C07002051000020E408002054090020CA
:10297000210200000448804704480047FEE7FEE7C4
:10298000FEE7FEE7FEE7FEE791290008C100000828
:102990004E480068FF21013108434C490860084651
:1029A000C0684B4908404949C86008460068494921
:1029B0000840464908600846806840084000886032
:1029C0000846006801218904884340490860084698
:1029D000C068FD21090488433C49C86000200861A3
:1029E000C8033D4988607047F8B5002500240026DB
:1029F0000020009000273548C0680C21084005469B
:102A0000002D06D0042D11D0082D13D00C2D41D14E
:102A100014E02E484068072149030840470B781C02
:102A200001218140C8032D49086040E02C482B4912
:102A300008603CE02B482949086038E02348C0681A
:102A40000F218904084004462048C06803218905F5
:102A500008400646A00C24490C5CB00D461C1B48DF
:102A6000C06801210904084000900098002808D19E
:102A70001B496143084631460FF0BBFE1749086009
:102A800007E018496143084631460FF0B2FE13498A
:102A900008600CE00D484068072149030840470BD7
:102AA000781C01218140C8030C49086000BF00BFA9
:102AB0000648C068F021084000090C490D5C074831
:102AC0000068E84005490860F8BD000000100240B9
:102AD0000C40FF88F6FFF6FE00ED00E05C000020F1
:102AE0000024F40000366E01383C0108203C010847
:102AF000704770B504467D21C9005C4800680FF03E
:102B000078FE054601F0CEF800222146501E01F065
:102B100094F8002070BD10B5554800684021084366
:102B2000534908600020FFF7E4FFFFF7E1FF0020B2
:102B300010BD704710B50020C0434E498862002088
:102B40008862401E486200204862401E08620020E1
:102B50000862401EC8610020C861FFF7EAFF00203C
:102B600010BD45480068401C434908607047424812
:102B70000068704731B50024FFF7F9FF044600BF35
:102B8000FFF7F5FF001B00998842F9D338BD3B4899
:102B90000069022188433949086170473748006954
:102BA0000221084335490861704735487047354868
:102BB0000068000C7047334800680005000D70473E
:102BC00030484068012108432E49486070472D482D
:102BD0004068400840002B494860704729484068D9
:102BE000022108432749486070472648406802216F
:102BF00088432449486070472248406804210843BC
:102C00002049486070471F484068042188431D4997
:102C1000486070471B49496801431A4A5160704730
:102C2000184949688143174A51607047164800683F
:102C300003210902084070471349096A3022914371
:102C4000114A11621146096A0143116270470E4828
:102C5000006A0121C90708430B49086270470A4806
:102C6000006A400040080849086270475C00002084
:102C700000200240001002406000002000E000E060
:102C8000000007010058014000000140704710B5E6
:102C90000446002C01D1012010BDA06D002806D1F2
:102CA000E0650021542001552046FFF7EFFFA06D9D
:102CB00010210840002806D12068806804210840BF
:102CC000800800280AD0A06D10210843A06500BF2D
:102CD00000215420015500BF0120DDE7A06DFF2138
:102CE0000131884302210843A0652068806880077D
:102CF000800F012807D120680068C007C00F002896
:102D000001D0012000E0002000283AD100BF0321BB
:102D100089076069884207D049426069884203D0C8
:102D20004900606988420CD12068006980008008F1
:102D300021680861206800696169084321680861A9
:102D400012E0206800698000800821680861F84866
:102D500080680F2189048843F549886008468068A7
:102D600061690843F249886000BF2068C068182183
:102D700088432168C8602068C068A1690843216849
:102D8000C860EB488068012149068843E8498860AB
:102D900008468068A16C49060843E54988602068B8
:102DA0008068012109070840002804D12068806854
:102DB0000843216888602068C068DE4908402168AF
:102DC000C860216A606A022901D1042100E0002163
:102DD0000843A16A49030843A16B49000843216CD9
:102DE0000843616C89030843E16CC9030843216807
:102DF000C96808432168C860FF21C231206B88423E
:102E000007D0616B206B08432168C96808432168BB
:102E1000C860E06A012812D1A06A002807D12068A2
:102E2000C0680121090408432168C86007E0A06D5B
:102E300020210843A065E06D01210843E06560683A
:102E4000012817D120680069FF2189008843216883
:102E50000861A168E068084321690843216809699D
:102E6000084321680861206800690121084321683E
:102E700008610BE020680069C007C00F002805D07A
:102E800020680069400840002168086120684069A6
:102E9000C008C0002168486120684069E1690843B2
:102EA000216848610020E065A06D0221884301216E
:102EB0000843A0650020EFE6704770B50446002582
:102EC000206880688007800F012807D1206800688B
:102ED000C007C00F002801D0012000E0002000281A
:102EE00037D02068806805210840012800D100E023
:102EF000002000280AD000BF206880680221084313
:102F00002168886003202168086009E0A06D102115
:102F10000843A065E06D01210843E065012070BD14
:102F2000FFF725FE05460EE0FFF721FE401B0A28AD
:102F300009D9A06D10210843A065E06D0121084367
:102F4000E0650120EBE720688068C007C00F00281B
:102F5000EAD10020E3E770B50446002520688068C8
:102F6000042108408008002829D020688068084093
:102F700000280BD02068806802210840002805D175
:102F8000206880681021084321688860FFF7EFFD02
:102F900005460EE0FFF7EBFD401B0A2809D9A06D9E
:102FA00010210843A065E06D01210843E065012080
:102FB00070BD20688068042108400028EAD1002004
:102FC000F6E770B504460025002C01D1012070BD44
:102FD000A06D02210843A0652046FFF7BCFF05460F
:102FE000002D07D12046FFF768FF0546012D01D0CF
:102FF0000120A065012D3ED0206840684E49084060
:10300000216848604C48C043216808602068806897
:10301000012109078843216888602068C068474902
:1030200008402168C8602068006945490840216857
:10303000086120684069C008C000216848612068B4
:10304000006A404908402168086220688030406B6F
:10305000C109C90120688030416320688030406B1D
:10306000C109C9012068803041632046FFF724FF71
:103070000020E065A06500BF00215420015500BF7D
:103080002846A4E738B504462F49304800680FF0B9
:10309000B0FB6043009002E00098401E0090009852
:1030A0000028F9D138BD70B5044600252068806835
:1030B0008007800F012807D120680068C007C00F73
:1030C000002801D0012000E0002000284BD120681A
:1030D00080681F490840002801D1012000E000203D
:1030E000002809D1A06D10210843A065E06D0121E1
:1030F0000843E065012070BD206880680121084315
:10310000216888600120FFF7BDFFFFF730FD05460D
:1031100020E0FFF72CFD401B0A281BD9A06D1021D1
:103120000843A065E06D01210843E0650120E2E766
:10313000002701401902FEFF60F7FFFF00023E83F7
:1031400002FCFF3F00F000F040420F005C00002056
:103150001700008020680068C007C00F01214840A8
:1031600048400028D5D00020C5E770B504460025AA
:103170002068806804210840800800282BD100BF07
:103180005420005D012801D1022070BD012154208E
:10319000015500BFE06C012803D02046FFF783FFF4
:1031A0000546002D18D1A06DFE490840FF210131D0
:1031B0000843A0650020E06500BF002154200155B0
:1031C00000BF1C2021680860206880680421084333
:1031D0002168886000E002252846D6E770B50446DD
:1031E000002500BF5420005D012801D1022070BDE0
:1031F00001215420015500BF2046FFF7ACFE0546D3
:10320000002D0CD12046FFF758FE0546002D06D1B3
:10321000A06DFF210131884301210843A06500BF53
:1032200000215420015500BF2846E0E7F8B50446C8
:103230000D46E06B082801D1082711E02068C0681E
:10324000C007C00F00280AD0A06D20210843A06548
:1032500000BF00215420015500BF0120F8BD0C27FC
:10326000FFF785FC064614E0681C002811D0002DED
:1032700004D0FFF77CFC801BA8420AD9A06D042172
:103280000843A06500BF00215420015500BF032062
:10329000E4E72068006838400028E5D0A06D0121EF
:1032A00049020843A0652068C068032189020840DC
:1032B000002825D1A06A002822D1206800680821B2
:1032C000084008281CD12068806804210840800834
:1032D00000280DD1206840680C218843216848608F
:1032E000A06DFF210131884301210843A06507E05B
:1032F000A06D20210843A065E06D01210843E06531
:10330000606C002802D10C20216808600020A5E72D
:10331000F8B504460D4616460027FFF728FC074679
:1033200014E0701C002811D0002E04D0FFF71FFC01
:10333000C01BB0420AD9A06D04210843A06500BF9C
:1033400000215420015500BF0320F8BD206800680B
:103350002840A84201D1012000E000200028E0D050
:10336000802D07D1A06D69020843A06580202168E7
:1033700008600FE0206C002808D1A06D01218902AF
:103380000843A065E06D02210843E0651020216834
:10339000086000BF00BF0020D7E770B504460025D5
:1033A00020688068042108408008002843D100BFBD
:1033B0005420005D012801D1022070BD012154205C
:1033C000015500BFE06C012803D02046FFF76BFEDB
:1033D0000546002D30D1A06D72490840FF21013112
:1033E0000843A0650020E06500BF0021542001557E
:1033F00000BF1C2021680860E06B08280CD1206801
:10340000406804218843216848602068406818218A
:1034100008432168486006E0206840681C21084392
:103420002168486000BF00BF20688068042108430D
:103430002168886000E002252846BEE770B5044692
:10344000002500BF5420005D012801D1022070BD7D
:1034500001215420015500BF2046FFF77CFD0546A1
:10346000002D12D1206840681C21884321684860E3
:103470002046FFF722FD0546002D06D1A06DFF2155
:103480000131884301210843A06500BF0021542079
:10349000015500BF2846DAE7704770B50546AC6AAB
:1034A000A06D40210843A065E06D04210843E0655C
:1034B0002046FFF7F1FF70BD704770B50446A56A5E
:1034C0002846FFF7F9FF70BD704770B50546AC6A36
:1034D000A06D50210840002835D1A06D012149027E
:1034E0000843A0652068C0680321890208400028BD
:1034F00025D1A06A002822D1206800680821084050
:1035000008281CD120688068042108408008002811
:103510000DD1206840680C21884321684860A06D67
:10352000FF210131884301210843A06507E0A06D18
:1035300020210843A065E06D01210843E065204695
:10354000FFF7C2FF03E0206D416B2846884770BD3E
:10355000F8B504460D461646002720688068042109
:103560000840800800284BD100BF5420005D01288E
:1035700001D10220F8BD01215420015500BFE06CAB
:10358000012803D02046FFF78EFD0746002F38D1D3
:10359000A06D04490840FF2101310843A0650020C7
:1035A000E06501E0FEF1FFFF00BF0021542001555E
:1035B00000BFF848216DC862F748216D0863F748DD
:1035C000216D48631C202168086020684068102134
:1035D0000843216848602068C068012108432168C9
:1035E000C86022681146403133462A46206D00F0FB
:1035F00048FE20688068042108432168886000E054
:1036000002273846B6E770B50446002500BF5420AF
:10361000005D012801D1022070BD01215420015517
:1036200000BF2046FFF797FC0546002D28D12068F3
:10363000C068400840002168C860206D00F05AFE54
:103640000546002D03D0A06D40210843A0652068E9
:1036500040681021884321684860002D04D120462D
:10366000FFF72BFC054602E02046FFF726FC002D65
:1036700006D1A06DFF210131884301210843A065D7
:1036800000BF00215420015500BF2846C4E7014671
:103690000868006C7047704710B5044620680068E1
:1036A00004210840042804D1206840680840042808
:1036B0000AD02068006808210840082840D1206806
:1036C0004068084008283BD1A06D10210840002820
:1036D00003D1A06D49010843A0652068C06803219B
:1036E00089020840002825D1A06A002822D120683C
:1036F00000680821084008281CD12068806804213F
:103700000840800800280DD1206840680C218843BB
:1037100021684860A06DFF210131884301210843E1
:10372000A06507E0A06D20210843A065E06D0121A0
:103730000843E0652046FFF7C7FE0C2021680860BB
:10374000206800688021084080280ED120684068E9
:103750000840802809D1A06D49020843A065204691
:10376000FFF799FF80202168086020680068102119
:10377000084010281AD1206840680840102815D148
:10378000206C002805D02068C068C007C00F002842
:1037900009D0E06D02210843E0651020216808602F
:1037A0002046FFF779FE10202168086010BD70B533
:1037B00004460D4600BF5420005D012801D10220BF
:1037C00070BD01215420015500BF2068806804218C
:1037D0000840800800280AD0A06D20210843A06579
:1037E00000BF00215420015500BF0120E8E76C49CB
:1037F0006868884238D02068806A29684903490B84
:1038000008432168886228684003400B65490840E6
:1038100001218904884208D163488068490108432E
:10382000614988600A20FFF72DFC28684003400B9F
:103830005E49084001214904884205D15A48806800
:10384000490108435849886028684003400B58499B
:1038500008400121090488423BD15348806809028D
:1038600008435149886034E02068806A2968490328
:10387000490B88432168886228684003400B494906
:10388000084001218904884205D1474880684901E0
:1038900088434549886028684003400B43490840F5
:1038A00001214904884205D13F4880684901884385
:1038B0003D49886028684003400B3D49084001218C
:1038C0000904884205D1384880680902884336498E
:1038D000886000BF00215420015500BF00206FE721
:1038E000F0B5024600250326B6050868B04200D1AF
:1038F00000BF00BF5420805C012801D10220F0BD30
:1039000001265420865400BF106880680426304089
:103910008008002852D18868012806D110684068C4
:10392000802630431668706005E010684068802685
:10393000B043166870601068C0681E4E304016684C
:10394000F0601F27BF064E683E4008683043166887
:10395000F66830431668F060CB681668F66818277A
:103960003E40F6087600B3400C691668F6683E40A3
:10397000F6087600B4401068006A0F4E30401668B2
:1039800030621804166830621068006A20431668B6
:10399000306218E0CB340008BB3400089B340008C8
:1039A000011000000000044800270140000002440C
:1039B00000000140FFFF3F8300F000F0906D2026E3
:1039C00030439065012500BF00265420865400BF77
:1039D000284694E70146886D70470146C86D7047D8
:1039E000F8B504460F460025002600BF5420005DB0
:1039F000012801D10220F8BD01215420015500BF4A
:103A0000206880688007800F012806D12068006840
:103A10000840002801D0012000E0002000282FD11C
:103A2000A06DFF210131884302210843A065206871
:103A300080688907084321688860FFF798F8064680
:103A400011E0FFF794F8801B0A280CD9A06D022121
:103A5000884310210843A06500BF00215420015570
:103A600000BF0120C7E720688068C00FC00700289A
:103A7000E7D1A06D0221884301210843A06504E03D
:103A8000A06D20210843A065012500BF002154201E
:103A9000015500BF2846AEE7024610688030406BF3
:103AA0004006400E704730B503460C46002100BF6B
:103AB0005420C05C012801D1022030BD01255420D2
:103AC000C55400BF186880688007800F012806D1A0
:103AD000186800682840002801D0012000E000207C
:103AE000002816D01868806804252840800800281F
:103AF0000FD118688030406BC509ED01186880301F
:103B0000456318688030406B10431D6880356863DA
:103B100008E0986D102528439865D86D0125284345
:103B2000D865012100BF00255420C55400BF0846B8
:103B3000C3E710B500242448006AFF21013108437F
:103B400021490862FFF713F8044606E0FFF70FF873
:103B5000001B032801D9012010BD1B48006A012168
:103B6000890708400028F1D00020F5E71648006AD0
:103B7000FF210131884314490862704710B50024C1
:103B80001148006A0121490208430F490862FEF703
:103B9000EEFF044606E0FEF7EAFF001B012801D90C
:103BA000012010BD0848006A01218907084000284B
:103BB000F1D00020F5E70448006A0121490288435A
:103BC00001490862704700000000014010B500285C
:103BD00019DA814A03071B0F083B9B089B00D25848
:103BE0008307DC0EFF23A3409A438B071B0E840739
:103BF000E40EA3401A43784B0407240F083CA408A2
:103C0000A4001A5118E0754A03231B02D218830836
:103C10009B00D2588307DC0EFF23A3409A438B07F7
:103C20001B0E8407E40EA3401A436C4B03242402AA
:103C30001B198408A4001A5110BD70B504460D4626
:103C4000164629462046FFF7C1FF70BD00BFC206D9
:103C5000D20E01219140614A116000BF704700BF40
:103C6000C206D20E012191405C4A8032116000BF31
:103C7000704700BF00BF00BF00BF00BFBFF34F8F42
:103C800000BF00BF00BF564853491C39C86000BF81
:103C900000BF00BFBFF34F8F00BF00BF00BF00BF1A
:103CA00000BFFDE770B504462546681E4D498842B1
:103CB00001D901200CE0681E4B4948610321081F0F
:103CC000FFF784FF00204849886107200861002031
:103CD00070BD0146084600280CDA3F4A03071B0F57
:103CE000083B9B089B00D2588307DB0EDA40120684
:103CF000920F0BE0394A03231B02D21883089B0062
:103D0000D2588307DB0EDA401206920F1046704736
:103D100000BFC206D20E01219140344A116000BF9B
:103D2000704710B501460846304A1268C406E40ED2
:103D30000123A3401A40002A01D0012200E0002202
:103D4000104610BD00BFC206D20E01219140274A85
:103D50008032116000BF7047042806D122490969EA
:103D600004221143204A116105E01F490969042218
:103D700091431D4A11617047704710B5FFF7FCFF72
:103D800010BD4179144A64329161017901291DD134
:103D9000016809090901D161817A0907427A12068D
:103DA0001143C27A92041143027B52041143427BB5
:103DB00012041143C2791202114382795200114355
:103DC00002791143044A6432116204E00021024A7C
:103DD0006432D161116270471CED00E000E100E047
:103DE0000400FA05FFFFFF0000E000E000E200E051
:103DF00001460022002901D1012070472520405CA6
:103E0000002802D1002324204354022325204354B8
:103E100008680268FD480240CB68886818430B694F
:103E200018434B6918438B691843CB6918430B6AD5
:103E30001843024308680260F54B086898420FD1A6
:103E4000F3487830806A00090001F14B78339862BA
:103E50001846806A4B681843ED4B7833986285E0CA
:103E6000EB4B14330868984210D1E9487830806AE7
:103E7000F0239843E64B783398621846806A4B6883
:103E80001B011843E24B783398626FE0E04B283314
:103E90000868984211D1DE487830806A0F231B02EF
:103EA0009843DB4B783398621846806A4B681B0254
:103EB0001843D74B7833986258E0D54B3C330868A9
:103EC000984211D1D2487830806A0F231B0398435F
:103ED000CF4B783398621846806A4B681B031843AF
:103EE000CB4B7833986241E0C94B50330868984215
:103EF00011D1C7487830806A0F231B049843C44B04
:103F0000783398621846806A8B881B041843C04B2C
:103F1000783398622AE0BE4B64330868984211D126
:103F2000BB487830806A0F231B059843B84B783321
:103F300098621846806A8B881B051843B44B783307
:103F4000986213E0B24B7833086898420ED1806AC9
:103F50000F231B069843AE4B783398621846806A4D
:103F60000B791B061843AA4B78339862012325204E
:103F70004354002041E70146002901D10120704748
:103F80002520405C022801D10120F8E7086800687C
:103F9000400840000A68106000200A6810600A6843
:103FA00050600A6890600A68D060994A0868904238
:103FB00001D1012026E0964A14320868904201D1CE
:103FC00010201FE0924A28320868904201D18015E3
:103FD00018E08F4A3C320868904201D1801411E009
:103FE0008B4A50320868904202D10120000409E057
:103FF000874A64320868904202D10120000501E03E
:1040000001200006824A083A5060814A08689042BE
:1040100001D1022027E07E4A14320868904201D183
:10402000202020E07A4A28320868904201D14015C9
:1040300019E0774A3C320868904202D101204003DF
:1040400011E0734A50320868904202D101204004C6
:1040500009E06F4A64320868904202D101204005AD
:1040600001E0012040066A4A083A5060684A086840
:10407000904201D1082027E0654A14320868904236
:1040800001D1802020E0624A28320868904201D1A4
:10409000C01419E05E4A3C320868904202D1012007
:1040A000C00311E05A4A50320868904202D1012000
:1040B000C00409E0564A64320868904202D10120E7
:1040C000C00501E00120C006514A083A5060504A3C
:1040D0000868904201D1042027E04D4A1432086854
:1040E000904201D1402020E0494A2832086890429D
:1040F00001D1001519E0464A3C320868904202D1CD
:104100000120800311E0424A50320868904202D1F7
:104110000120800409E03E4A64320868904202D1DE
:104120000120800501E001208006394A083A5060EC
:10413000374A0868904208D135487830806A0009CB
:104140000001334A7832906255E0314A14320868EF
:10415000904208D12E487830806AF02290432C4A51
:104160007832906247E02A4A28320868904209D1A2
:1041700027487830806A0F2212029043244A78320E
:10418000906238E0224A3C320868904209D12048C7
:104190007830806A0F22120390431D4A7832906271
:1041A00029E01B4A50320868904209D118487830FB
:1041B000806A0F2212049043154A783290621AE006
:1041C000134A64320868904209D111487830806AF5
:1041D0000F22120590430E4A783290620BE00C4A8F
:1041E00078320868904206D1806A0F221206904306
:1041F000074A7832906200208863002225204254CA
:1042000000BF2420425400BF0020B8E60FC0FFFFCB
:104210000800024010B5046863608468102C04D163
:104220000468A2600468E16003E00468A1600468B7
:10423000E26010BDF8B504460D4616461F4600BFA5
:104240002420005D012801D10220F8BD0121242095
:10425000015500BF02212520015520680068400853
:104260004000216808603B46324629462046FFF759
:10427000D1FF206800680121084321680860002000
:10428000E3E7F8B504460D4616461F4600BF242056
:10429000005D012801D10220F8BD01212420015533
:1042A00000BF022125200155206800684008400019
:1042B000216808603B46324629462046FFF7AAFFA0
:1042C00020680068022108432168086020680068AF
:1042D0000421084321680860206800680821084319
:1042E000216808602068006801210843216808608F
:1042F0000020D1E770B5044600252068006840081A
:10430000400021680860FEF732FC054614E0FEF725
:104310002EFC401B7D21C90088420DD9A06B2021B5
:104320000843A06300BF00212420015500BF0321E2
:1043300025200155032070BD20680068C007C00F0C
:104340000028E4D100BF00212420015500BF012135
:10435000252001550020EEE7F8B504460E46154627
:1043600000200090002E2FD1FC492068884201D106
:10437000022027E0F94914312068884201D1202029
:1043800020E0F64928312068884201D1401519E023
:10439000F2493C312068884202D10120400311E0FB
:1043A000EE4950312068884202D10120400409E0E2
:1043B000EA4964312068884202D10120400501E0C9
:1043C0000120400607462EE0E4492068884201D1DA
:1043D000042027E0E14914312068884201D14020BF
:1043E00020E0DE4928312068884201D1001519E01B
:1043F000DA493C312068884202D10120800311E073
:10440000D64950312068884202D10120800409E059
:10441000D24964312068884202D10120800501E040
:10442000012080060746FEF7A2FB00908BE0CB48F8
:1044300008380068C94A2168914201D1082127E063
:10444000C64A14322168914201D1802120E0C34A3A
:1044500028322168914201D1C91419E0BF4A3C3287
:104460002168914202D10121C90311E0BB4A5032B7
:104470002168914202D10121C90409E0B74A64329E
:104480002168914202D10121C90501E00121C9063B
:10449000084000283ED0B1492068884201D1082058
:1044A00027E0AE4914312068884201D1802020E005
:1044B000AA4928312068884201D1C01419E0A749CF
:1044C0003C312068884202D10120C00311E0A34999
:1044D00050312068884202D10120C00409E09F4980
:1044E00064312068884202D10120C00501E001202A
:1044F000C0069A4908394860A06B01210843A063AF
:1045000004212520015500BF00212420015500BFB2
:104510000120F8BD681C002815D0002D05D0FEF73D
:1045200026FB0099401AA8420DD9A06B2021084310
:10453000A06303212520015500BF0021242001553F
:1045400000BF0320E5E785480838006838400028A8
:1045500000D16CE7002E38D180492068884201D113
:10456000022027E07D4914312068884201D12020B3
:1045700020E07A4928312068884201D1401519E0AD
:1045800076493C312068884202D10120400311E085
:10459000724950312068884202D10120400409E06C
:1045A0006E4964312068884202D10120400501E053
:1045B000012040066949083948600121252001553C
:1045C00000BF00212420015538E06449206888425A
:1045D00001D1042027E0614914312068884201D1CB
:1045E000402020E05D4928312068884201D1001533
:1045F00019E05A493C312068884202D101208003E9
:1046000011E0564950312068884202D101208004CF
:1046100009E0524964312068884202D101208005B6
:1046200001E0012080064D49083948600521252018
:10463000015500BF00212420015500BF002068E77C
:1046400010B50446454808380068444A216891423C
:1046500001D1082127E0414A14322168914201D159
:10466000802120E03D4A28322168914201D1C914BD
:1046700019E03A4A3C322168914202D10121C90332
:1046800011E0364A50322168914202D10121C90419
:1046900009E0324A64322168914202D10121C90500
:1046A00001E00121C906084000284DD020680068BB
:1046B00008210840002847D0206800688843216806
:1046C000086026492068884201D1082027E0234954
:1046D00014312068884201D1802020E01F49283110
:1046E0002068884201D1C01419E01C493C3120687F
:1046F000884202D10120C00311E0184950312068DE
:10470000884202D10120C00409E0144964312068C4
:10471000884202D10120C00501E00120C0060F49F6
:1047200008394860A06B01210843A06304212520BB
:10473000015500BF00212420015500BF606B0028F7
:1047400002D02046616B8847044808380068034A55
:104750002168914204D1042129E0000008000240B0
:10476000824A2168914201D1402120E07F4A1432DF
:104770002168914201D1091519E07C4A283221684B
:10478000914202D10121890311E0784A3C3221682B
:10479000914202D10121890409E0744A5032216812
:1047A000914202D10121890501E0012189060840D9
:1047B00000284BD02068006804210840002845D01C
:1047C0002068006820210840002805D12068006882
:1047D00004218843216808606449143920688842AC
:1047E00001D1042026E061492068884201D140209F
:1047F00020E05E4914312068884201D1001519E09B
:104800005A4928312068884202D10120800311E0F2
:1048100056493C312068884202D10120800409E0D9
:10482000524950312068884202D10120800501E0C0
:10483000012080064D491C3948600521252001557D
:10484000206B002802D02046216B884747481C383F
:104850000068464A143A2168914201D1022126E0BB
:10486000424A2168914201D1202120E03F4A14327E
:104870002168914201D1491519E03C4A283221684A
:10488000914202D10121490311E0384A3C322168AA
:10489000914202D10121490409E0344A5032216891
:1048A000914202D10121490501E001214906084058
:1048B000002852D0206800680221084000284CD00F
:1048C0002068006820210840002805D12068006881
:1048D00002218843216808602449143920688842ED
:1048E00001D1022026E021492068884201D1202000
:1048F00020E01E4914312068884201D1401519E09A
:104900001A4928312068884202D10120400311E071
:1049100016493C312068884202D10120400409E058
:10492000124950312068884202D10120400501E03F
:10493000012040060D491C394860A06BA06301218D
:104940002520015500BF00212420015500BFE06A49
:10495000002802D02046E16A884710BD0146252084
:10496000405C70470146886B704700001C000240A5
:1049700070B50346002200240020DFE001269640A7
:104980000D6835402C46002C77D04D68022D02D0A2
:104990004D68122D15D1D508AE001D462035A859F9
:1049A0005507EE0E0F25B5400646AE433046560776
:1049B000F60E0D69B5402843D508AD001E462036D9
:1049C00070514D68012D08D04D68022D05D04D68FD
:1049D000112D02D04D68122D18D19868560003256C
:1049E000B5400646AE4330465600CD68B540284334
:1049F00098605868012595400646AE43304610261B
:104A00004D6835402D099540284358601868560078
:104A10000325B5400646AE4330460D79AD07AD0FD0
:104A20005600B54028431860D86856000325B540A5
:104A30000646AE43304656008D68B5402843D860E0
:104A4000012636074D683540B54276D19E4D6D6BD7
:104A5000012635439C4E75639C4D9608B600A859B7
:104A600095072E0F0F25B5400646AE433046052567
:104A70002D07AB4202D100251AE05EE0944DAB4217
:104A800001D1012514E0934DAB4201D102250FE085
:104A9000914DAB4201D103250AE0904DAB4201D1CB
:104AA000042505E08E4DAB4201D1052500E0062529
:104AB0009607360FB5402843844D9608B600A85196
:104AC000884D28680546A5432846012636044D68CA
:104AD0003540B54202D1054625432846814D286020
:104AE00068680546A5432846012676044D6835408A
:104AF000B54202D10546254328467A4D6860A8682C
:104B00000546A5432846012636054D683540B54281
:104B100002D1054625432846724DA860E86805463F
:104B2000A5432846012676054D683540B54202D199
:104B30000546254328466B4DE860521C0D68D5405C
:104B4000002D00D01AE770BDF0B50B460021002201
:104B5000002479E001258D401D402A46002A72D0AC
:104B600005684F000326BE40B5430560CD08AE0082
:104B700005462035AD594E07F70E0F26BE40B5430A
:104B8000CE08B60007462037BD5185684F00032682
:104B9000BE40B5438560456801268E40B5434560FB
:104BA000C5684F000326BE40B543C560474D8E081B
:104BB000B600AC598D072E0F0F25B5402C400525AA
:104BC0002D07A84201D1002519E0414DA84201D18D
:104BD000012514E03F4DA84201D102250FE03E4DD2
:104BE000A84201D103250AE03C4DA84201D1042589
:104BF00005E03B4DA84201D1052500E006258E07C2
:104C0000360FB540A5421ED18D072E0F0F25B5409A
:104C10002C462E4D8E08B600AD59A5432B4E8F085D
:104C2000BF00F5512F4D2D6895432E4E356035460A
:104C30006D68954375603546AD689543B5603546FA
:104C4000ED689543F560491C1D46CD40002D81D18E
:104C5000F0BD024613690B40002B01D0012000E09B
:104C600000207047002A01D0816100E08162704716
:104C700042694A404261704708B50246012000047B
:104C800000900098084300900098D061D16100988E
:104C9000D061D0690090D06901231B04184000281E
:104CA00001D0002008BD0120FCE7704710B5044684
:104CB0000C4840692040002804D00A48446120463E
:104CC000FCF7F5FB10BD0000001002400800014099
:104CD0000004005000080050000C0050001000506C
:104CE000001C0050000401408048806A012109072F
:104CF00008437E4988620846806A090488437B49E4
:104D0000886270477A480068FF210131084378497A
:104D10000860704776480068FF2101318843744974
:104D20000860704772490968E022914302681143A4
:104D30006F4A11606F4949680122120491436D4A1C
:104D4000516011460968012212049143694A1160B9
:104D50001146C968012212049143664AD160114686
:104D60008968012212049143624A9160012212046F
:104D700041681140914204D15E49096811435D4A7E
:104D800011600122520441681140914205D15949F4
:104D9000496852101143574A51600179C907C90F38
:104DA000002906D053498968012212041143514A4F
:104DB0009160022241681140022905D14D49C9681C
:104DC000D20311434B4AD160704749480068102113
:104DD00008434749086070474548006810218843E8
:104DE000434908607047424949680143404A51605D
:104DF00070473F49496881433D4A5160704710B54B
:104E0000024600203A4B186880088000034613438E
:104E10001846374B1860384B1B690424A343364CA3
:104E20002361012901D130BF02E040BF20BF20BF74
:104E300010BD10B5024600202D4B18688008800078
:104E40000346134318462A4B18602B4B1B69042456
:104E50002343294C2361012901D130BF02E040BF27
:104E600020BF20BF244B1B690424A343224C236191
:104E700010BD1F480068022108431D4908601E48F4
:104E80000069042108431C49086100BF00BF30BF0E
:104E900070471948006902210843174908617047A3
:104EA0001548006902218843134908617047124878
:104EB0000069102108431049086170470E480069D5
:104EC000102188430C4908617047704710B50948A4
:104ED0004069012109040840002805D0FFF7F5FFCB
:104EE000012000040349486110BD00000010024089
:104EF000007000400004014000ED00E02B48006815
:104F00000121890208432949086070472748006841
:104F100001218902884325490860704723480068B9
:104F20000121490208432149086070471F48006871
:104F30000121490288431D49086070471B480068E9
:104F4000012108431949086008460068091408430C
:104F500016490860704710B500BF14480068012169
:104F600089038843114908600846006840084000EA
:104F700008600F490F4800680DF03BFC32214843A0
:104F8000044600E0641E002C05D00848406820213B
:104F900008400028F6D10548406820210840002834
:104FA00001D0032010BD0020FCE70000007000408D
:104FB00040420F005C00002008B5F9480068FF215E
:104FC00001310843F649086008460068F549084081
:104FD000F349086008460068012109040840009070
:104FE00000BFEF48006889008843ED490860002051
:104FF000C8600861EC48ED49086008BDF8B50024B8
:1050000000260020009000270025E5484068072181
:1050100049030840470BE248C0680C2108400028BB
:1050200006D0042809D0082811D00C2849D110E056
:10503000781C01218140CD0348E0D9480068102147
:105040000840002801D0DA4D00E0DA4D3EE0DA4DAC
:105050003CE0D348C0680F21890408400446D0488A
:10506000C0680321890508400646A00CD3490C5CA2
:10507000B00D461CCA48C0680121090408400090D0
:105080000098002815D1C648006810210840002863
:1050900007D0C7496143084631460DF0AAFB0546D3
:1050A0000EE0C4496143084631460DF0A2FB0546B7
:1050B00006E0C1496143084631460DF09AFB0546BA
:1050C00004E0781C01218140CD0300BF00BF2846C9
:1050D000F8BDF8B5044600252078C007C00F0028A9
:1050E00070D0AF48C0680C21084008280BD0AC48ED
:1050F000C06808400C2813D1A948C06801210904E0
:10510000084088420CD1A6480068012149040840A3
:10511000400C00286AD06068002867D10120F8BDE3
:1051200000BF012109046068884205D19C480068DD
:1051300008439B4908602EE0052109046068884205
:1051400015D19748006801210904884394490860F3
:10515000084600680121890408439149086008460F
:1051600000680121090408438D49086013E08C4858
:1051700000680121090488438949086008460068DD
:10518000012109040840009000BF8548006889009B
:1051900088438349086000BF6068002813D0FDF78A
:1051A000E6FC054606E0FDF7E2FC401B642801D959
:1051B0000320B4E77A480068012149040840400C04
:1051C0000028F0D012E0FDF7D2FC054606E0FDF71E
:1051D000CEFC401B642801D90320A0E7704800687A
:1051E000012149040840400C0028F0D10221206828
:1051F000084002286AD16A48C0680C210840042887
:105200000BD06748C06808400C281DD16448C068AE
:10521000012109040840002816D1614800680421D2
:1052200008408008002804D0E068012801D001204F
:1052300075E75B4840681F2109028843216909021C
:1052400008435749486041E0E068002824D05448AA
:10525000006809218843E168084351490860FDF767
:1052600086FC054606E0FDF782FC401B022801D9BA
:10527000032054E74A4800680421084080080028B9
:10528000F1D0474840681F2109028843216909027B
:1052900008434349486019E04148006809218843B0
:1052A000E16808433E490860FDF761FC054606E0F9
:1052B000FDF75DFC401B022801D903202FE7384889
:1052C00000680421084080080028F1D110212068DE
:1052D0000840102833D13248C0680C21084000280B
:1052E0002ED12F480068012149020840400A0028B9
:1052F00004D0E069002801D1012010E72848406867
:10530000072149038843616A0843254948600846E4
:1053100040680002000A218C0906084320494860C1
:10532000FFF76CFE1E49C968F02211400909244AA2
:10533000515CC8401D4908600020FDF7DAFB5BE0C6
:10534000E06900283ED016480068FF21013108437B
:1053500013490860FDF70BFC054606E0FDF707FC66
:10536000401B022801D90320D9E60D48006801211D
:1053700049020840400A0028F0D009484068072147
:1053800049038843616A0843054948600846406804
:105390000002000A218C09060843014948602BE0FD
:1053A00000100240D4FFF6FE68FF1F005C000020E2
:1053B00000093D000024F40000366E01383C01086D
:1053C000203C0108F9480068FF2101318843F74972
:1053D0000860FDF7CCFB054606E0FDF7C8FB401B67
:1053E000022801D903209AE6F04800680121490209
:1053F0000840400A0028F0D1082120680840082809
:1054000039D1606900281BD0E8484030006901218B
:105410000843E64940310861FDF7A9FB054606E06F
:10542000FDF7A5FB401B022801D9032077E6DF48E2
:10543000403000690221084040080028F0D01AE0FE
:10544000DA484030006940084000D84940310861DE
:10545000FDF78DFB054606E0FDF789FB401B0228A2
:1054600001D903205BE6D1484030006902210840A1
:1054700040080028F0D120212068084020284BD186
:10548000A069002827D000BFC848806801210843D0
:10549000C64988600846406B01210843C3494863F8
:1054A000C348006A012149030843C149086200BF9B
:1054B000FDF75DFB054606E0FDF759FB401B0228A2
:1054C00001D903202BE6B948806802210840400832
:1054D0000028F1D020E000BFB448806840084000B8
:1054E000B2498860B248006A012149038843B04943
:1054F000086200BFFDF73BFB054606E0FDF737FB02
:10550000401B022801D9032009E6A848806802212F
:10551000084040080028F1D10421206808400428F0
:105520007ED100260027A148806B8906084000280C
:1055300005D19E48806B08439C49886301269D489D
:105540000068FF2101310840002817D19948006800
:105550000843984908600127FDF709FB054606E066
:10556000FDF705FB401B642801D90320D7E59148CE
:105570000068FF21013108400028F1D000BFFF2161
:105580000131A068884207D188484030006908434B
:1055900086494031086140E0A068002810D1834866
:1055A00040300069FF210131884380494031086162
:1055B00008460069091588437C49403108612CE0A0
:1055C00005210902A068884217D178484030006957
:1055D000FF2101318843754940310861084600695F
:1055E0000915084371494031086108460069891569
:1055F00008436E49403108610FE06C484030006953
:10560000FF2101318843694940310861084600693A
:105610000915884365494031086100BFA06800E072
:105620003DE0002815D0FDF7A2FA054607E0FDF79A
:105630009EFA401B6049884201D903206FE55B4810
:1056400040300069012149020840400A0028EED09C
:1056500014E0FDF78CFA054607E0FDF788FA401BD9
:105660005549884201D9032059E550484030006926
:10567000012149020840400A0028EED1012F05D13E
:105680004C480068390288434A490860012E05D118
:105690004648806B310788434449886300BFA06A4D
:1056A000002867D04148C0680C2108400C285FD012
:1056B000A06A022841D13D480068012109068843BB
:1056C0003A490860FDF753FA054606E0FDF74FFA40
:1056D000401B022801D9032021E53448006801213C
:1056E00049060840400E0028F0D1616B206B08434A
:1056F000E16A08432D49C968FD2212049143084319
:105700002A49C8600846006801210906084327495C
:105710000860FDF72CFA054606E0FDF728FA401B65
:10572000022801D90320FAE4204800680121490633
:105730000840400E0028F0D01CE01C480068012101
:105740000906884319490860FDF711FA054606E085
:10575000FDF70DFA401B022801D90320DFE41348AE
:105760000068012149060840400E0028F0D101E000
:105770000120D4E40020D2E470B504460D46002692
:105780000E480068C007C00FA84219D20B48006835
:105790004008400028430949086008460068C007DF
:1057A000C00FA8420CD0012070BD000000100240C4
:1057B00000000140007000408813000000200240FB
:1057C000022120680840022807D1FE48C068F02165
:1057D0008843A1680843FB49C8602078C007C00F10
:1057E00000284CD06068022809D1F64800680121E1
:1057F00049040840400C002824D10120D4E7606807
:10580000002809D1EF480068012149020840400AF8
:10581000002817D10120C7E76068032809D1E948AB
:105820000068012149060840400E00280AD10120E5
:10583000BAE7E4480068042108408008002801D144
:105840000120B1E7DF48C068800880006168084334
:10585000DC49C860FDF78BF90646606802280FD165
:1058600007E0FDF784F9801BD749884201D903205E
:105870009AE7D448C0680C2108400828F1D134E0E8
:10588000606803280FD107E0FDF771F9801BCE494E
:10589000884201D9032087E7CA48C0680C21084024
:1058A0000C28F1D121E0606800280FD107E0FDF756
:1058B0005EF9801BC449884201D9032074E7C148BE
:1058C000C0680C2108400028F1D10EE007E0FDF788
:1058D0004EF9801BBC49884201D9032064E7B948CE
:1058E000C0680C2108400428F1D1B8480068C007FE
:1058F000C00FA8420ED3B5480068400840002843B6
:10590000B249086008460068C007C00FA84201D02D
:10591000012049E7042120680840042808D1A9484B
:10592000C068072109028843E1680843A549C860A7
:10593000082120680840082809D1A248C06807212A
:10594000C90288432169C90008439E49C860FFF71E
:1059500055FB9C49C968F022114009099C4A515CD9
:10596000C8409C4908600020FDF7C3F800201BE7F1
:1059700070B586B004460D461646022002900320FC
:10598000049000200390002C17D100BF8D48C06AFE
:10599000012108438B49C8620846C06AC007C00F8E
:1059A000009000BF00BF881501900020059001A95C
:1059B00005200007FEF7DCFF2EE0012C16D100BF0A
:1059C0008048C06A012108437E49C8620846C06A0F
:1059D0002040009000BF00BF4815019000200590B6
:1059E00001A905200007FEF7C3FF15E000BF7548B9
:1059F000C06A022108437349C8620846C06A02218E
:105A00000840009000BF00BF0803019002200590ED
:105A100001A97148FEF7ACFF6A48C0687F210906FA
:105A200088432946314308436649C86006B070BDC3
:105A3000644800680121C90408436249086070474E
:105A400064480068704700B5FFF7FAFF5D49C96810
:105A5000072212021140090A604A515CC84000BD89
:105A600000B5FFF7EDFF5749C9680722D202114080
:105A7000C90A5A4A515CC84000BD1F21016020225A
:105A80000168114301604F49096852031140914276
:105A900003D10521090441600AE04A49096801224D
:105AA00012041140914201D1416001E000214160A6
:105AB00044490968FF2201321140914202D101217B
:105AC000C16101E00021C1613E490968090E01621E
:105AD0003C494968072252031140490B4162394948
