:020000040800F2
:10000000180D0020F520000825B20008FF20000888
:1000100000000000000000000000000000000000E0
:1000200000000000000000000000000001210008A6
:10003000000000000000000003210008B7080008CD
:100040000721000807210008A9150008072100085A
:1000500007210008A30D0008B70D0008CB0D00080C
:1000600007210008072100080721000807210008D0
:1000700007210008072100080721000807210008C0
:1000800007210008072100080721000800000000E0
:1000900007210008072100080721000807210008A0
:1000A000072100080721000807210008071D000894
:1000B000FD1C00080721000807210008072100088F
:1000C000034885460DF0AAFD00480047D50000080A
:1000D000180D00208AB000F09BFA942108A8017046
:1000E00053214170012252021E491F480CF09BFE11
:1000F000012252021D491C480C300CF094FE0A23C8
:100100000922002118481C380DF0BEF8002000908C
:10011000019003464B22D2010221029012481C3862
:100120000DF0C3F8022208A9032080020DF0FDF8AB
:10013000022209A9032080020DF001F908A84379E1
:1001400002790BA103A80DF07BFD03A80DF089F93E
:1001500084B2224603A904481C380DF0D0F800BF31
:10016000FEE700004C000020F00400204C020020BC
:10017000456570726F6D526561643A2025782C2553
:10018000780D0A007CB505460C464C484C49086081
:100190004C48406B0121490208434A49486348489A
:1001A00002F0CFFA601C002808D00020009003461F
:1001B00003222146019028460CF070FE7CBD10B54C
:1001C00000203F494860032189073D4841610021E3
:1001D00081610721C16101210162002141628162C7
:1001E000C1624163016381630421C16389020164C7
:1001F000002141648164C16402F009F900213048A2
:1002000002F0AEFF10BD1CB504462F4800902F48E9
:1002100001906946204602F08AFE1CBD7CB5064668
:100220000C4600200090019000252648006801211E
:1002300008432449086000BF2248006804210840A0
:1002400080080028F8D01F48406BC90108431D49A9
:10025000486300211A4802F083FF1948FFF7D3FFD3
:1002600000940120000301906946154802F05FFEEA
:10027000134802F03AFB0021C943114802F096FBF3
:100280000F4802F0C4FD85B211490098884203D09E
:1002900010490098884202D1094802F052FA0948F0
:1002A000406B0121490288430649486308460068BB
:1002B00040084000086028467CBD00000024014042
:1002C0004C04002000100240FFFF077C01100000DA
:1002D00000000448000002440120FE4908707047F5
:1002E00072B6FD480078401CFB4908707047FA4818
:1002F0000078401EF849087008460078002800D1B0
:1003000062B6704700B585B0012000210B46024659
:1003100000910190182102A80CF0C0FD01200021DD
:100320000B460A4600910190702102A80CF0B6FD20
:10033000012000210B460A4600910190712102A87C
:100340000CF0ACFD012000210B460246009101900B
:10035000722102A80CF0A2FD012000210B460A46E2
:1003600000910190732102A80CF098FD012000215A
:100370000B460A4600910190742102A80CF08EFDF4
:10038000012000210B460A4600910190752102A828
:100390000CF084FD012000210B460A4600910190DB
:1003A000762102A80CF07AFD012000210B460A46B6
:1003B00000910190772102A80CF070FD012000212E
:1003C0000B460A4600910190782102A80CF066FDC8
:1003D000012000210B460A4600910190792102A8D4
:1003E0000CF05CFD012000210B460A4600910190B3
:1003F0007A2102A80CF052FD012000210B46024692
:10040000009101907B2102A80CF048FD05B000BDD1
:1004100001207047B148806B012109070843AF49AB
:100420008863AF4800680321C90288430121C902DB
:100430004018AB49086000BFA848006801210904C2
:100440000843A649086000BF00BFA4480068012116
:1004500049040840400C0028F7D0A0480068C901B2
:1004600008439E49086000BF9C4800680121490676
:100470000840400E0028F7D09848C06880088000E7
:10048000C01C9649C86000BF9448C0680C21084051
:100490000C28F9D1704700B585B0FFF7B9FF0128E6
:1004A00011D100200090034603220B21019002A8E5
:1004B0000CF0F4FC00200090034603220C21019074
:1004C00002A80CF0EBFC00200090034603221C2144
:1004D000019002A80CF0E2FC0020009003460322E9
:1004E0001D21019002A80CF0D9FC002000900346C9
:1004F00003221E21019002A80CF0D0FC00200090E5
:10050000034603221F21019002A80CF0C7FC002023
:100510000090034603221521019002A80CF0BEFCB6
:1005200000200090012303221221019002A80CF068
:10053000B5FC00200090034603221146019002A85A
:100540000CF0ACFC0020009003460322082101902F
:1005500002A80CF0A3FC01F001FF01F0F1FE01F094
:100560000BFF05B000BD30B59DB05C48806B01212C
:100570000907084359498863594800680321C9029B
:1005800088430121C90240185549086005200F9091
:100590000120000410900012119002201990C10354
:1005A0001A9141041B9181051C910FA804F051F987
:1005B000002800D000BF0F200A9003200B900020DD
:1005C0000C900D900E9001210AA804F095FC0028D3
:1005D00000D000BF20200090C0020690684604F0C2
:1005E000E1FE002800D000BF04F0EAFD05467D21B1
:1005F000C9000CF0B8FE044602F014FF042002F01B
:100600006BFF00221146501E02F0D7FE1DB030BD18
:100610001CB534480078002808D101F03CFEFFF7F3
:10062000A2FF00F027FCFFF736FF01E0FFF7F2FE24
:1006300010212D480CF0B2FB0020C0431D211E23C9
:100640001F22009101900121284801F05AF801F081
:100650006BFB24480078002804D101202149087050
:10066000FFF7D6FE1CBDFFF73BFE00BF00BF00BF7B
:1006700000BF00BFBFF34F8F00BF00BF00BF1C48CB
:100680001C49C86000BF00BF00BFBFF34F8F00BF51
:1006900000BF00BF00BF00BFFDE700B585B0124836
:1006A0000CF08DFB114801F0E8F801F0B7FB0020D9
:1006B0000090034603226021019002A80CF0EEFB9B
:1006C00000200090034603226121019002A80CF053
:1006D000E5FB11E0010000200200002000100240B4
:1006E0000070004000000020AC0400204008002002
:1006F0000400FA0500ED00E00020009003460246E9
:100700002E21019002A80CF0C9FB002000900346A6
:1007100002462F21019002A80CF0C0FB05B000BDDD
:10072000684800696749496948406649496A4840DC
:10073000704764490969634A526A8918090EC17190
:10074000604909695F4A526A89180902090E817174
:100750005C49098A5B4A928C89180904090E417127
:100760005849097C574A928C891801715549496941
:10077000090EC170534949690902090E8170514936
:10078000898A0904090E41704E49097D017070473C
:10079000F0B585B000254B482030008B0390002039
:1007A00002900024484949480CF00DFB0290039840
:1007B0000DF06CF8434920310190088B0DF066F87C
:1007C000434900900CF054FE074601990CF08DFE51
:1007D00006460DF093F885B202980DF057F83D49A2
:1007E00000900CF082FE074628460DF04FF839467F
:1007F00001900CF03DFE06460DF080F884B26004D6
:10080000040C204605B0F0BD33480088704710B591
:100810000024FFF7BDFF30490880FFF7F9FD0028ED
:1008200000D12DE02C4800882C49884201DBFE24B1
:1008300026E0294800881921C901884212DD26488E
:100840000088264988420DDA234909881922D201F5
:10085000891AFD225143084621490CF09AFD401C9B
:10086000C4B20DE01C4800881E49884207DD1A48C2
:1008700000881921C901884201DC012400E0FF241D
:10088000204610BD10B518480078002812D117492D
:1008900017480CF03BFB7D21C90015480CF0B4FC57
:1008A00013480CF0A4FB01E00CF0C7FC0E480078E4
:1008B0000028F9D010BD10B501F013FD02F01DFEA7
:1008C00010BD70474000F81F00010020AC0400205C
:1008D00000404E4500F07F45040000203610000027
:1008E000B60300001C0C000001000020D902000823
:1008F0000C05002010B50446204601F0FBFC10BD9D
:10090000F8B505460E461746002000900AF013FC85
:10091000002812D100240BE0325D4E48281801193E
:1009200000200AF031FC002800D003E0601C84B2F3
:10093000BC42F1DB00BF012000900AF00BFC0098E4
:10094000F8BD70B504460D46164642482118324699
:1009500028460AF08EFC012070BD704700207047C9
:1009600030B5034603E01C780C705B1C491C144630
:10097000551EAAB2002CF6D130BD30B5034603E0B7
:100980001D881B1D0D80891C1446551EAAB2002C03
:10099000F6D130BDF7B506460F4600242E482F4944
:1009A00088610AF0C8FB0AF01FFC00BF0AE03A5D4C
:1009B000311900200AF0E8FB0546002D00D004E0C4
:1009C000601C84B202988442F1DB00BF0AF0C2FBD3
:1009D0000AF012FC002D01D10120FEBD0020FCE731
:1009E000F7B582B00F460498800801901A481B4959
:1009F00088610AF0A0FB0AF0F7FB00251BE0A804C1
:100A0000000C00900026032006E036020099091829
:100A1000795C0E43411E48B20028F6DA009A02982B
:100A20008118324602200AF0AFFB0446002C00D0A9
:100A300004E0681C85B201988542E0DB00BF0AF043
:100A400089FB0AF0D9FB002C02D1012005B0F0BDD2
:100A50000020FBE700000808020700000020024019
:100A600070B504460D4600202056702810DA002C80
:100A700002D06068002800D100BF00202056401C32
:100A8000002800D170BDEAB26188606803F0AAFC5A
:100A900000BFF7E7F0B587B004460E4615461F467F
:100AA000702E71DA2670701C002801D107B0F0BDDD
:100AB00020780107090F012088406080002020561F
:100AC000F0210840002810D105200007606000BF19
:100AD000E048C06A01210843DE49C8620846C06A8E
:100AE000C007C00F019000BF42E000202056F02157
:100AF000084010280FD1D848606000BFD548C06AB0
:100B000002210843D349C8620846C06A022108404E
:100B1000019000BF2CE000202056F0210840202842
:100B20000FD1CE48606000BFCA48C06A04210843A4
:100B3000C849C8620846C06A04210840019000BF45
:100B400016E000202056F021084030280FD1C4487C
:100B5000606000BFBF48C06A08210843BD49C86241
:100B60000846C06A08210840019000BF00E000BFAD
:100B7000608802900C98A072049002200590002DCD
:100B800003D10020039018E022E0032D02D10320BE
:100B9000039012E0022D09D1012F02D112200390FF
:100BA00001E0022003900D98069006E0012F02D18B
:100BB0001120039001E001200390012D03D1204674
:100BC0000D99FFF74DFF02A9606803F091FA00BF8D
:100BD00000BF6BE7F0B587B004460D4616461F46CA
:100BE00000202056702871DA00200690052005901C
:100BF000002F01D107B0F0BD60880090012D02D117
:100C00009848019006E0022D02D19748019001E03A
:100C100096480190A07A029002200390694660688D
:100C200003F066FA33000DF036F8050405080B0FE3
:100C30000E0000BF0320069009E00220069006E0A7
:100C40000120069003E000BF0020069000BF00BF17
:100C50006188FF220132881A914240D012DC1029AB
:100C600039D008DC01292DD002292CD004292ED01E
:100C700008293ED12CE020292ED040292DD08029D2
:100C800037D12BE00F221202811A90422BD00DDCBB
:100C9000FF380138002823D0FF38FF3802380028F9
:100CA0001FD001218902401A23D11BE0012000033B
:100CB000081A19D001214903401A16D04900401AD8
:100CC00017D113E000BF0520059013E021E000BF1D
:100CD000062005900EE000BF00BF00BF00BF00BFB0
:100CE00000BF00BF00BF00BF00BF00BF07200590CE
:100CF00000E000BF00BF20780007800E5C490F5065
:100D000000220699059802F058FB059802F05EFB58
:100D100000BF00BF6EE710B586B004460020205625
:100D200070280EDA608801900320029001A96068A3
:100D300003F0DEF9002021780907890E4C4A505053
:100D400000BF06B010BD10B5044600202056702824
:100D50000FDA002C02D06068002800D100BF00200C
:100D60002056401C002800D110BD6188606803F047
:100D70003FFB00BFF8E710B504460020205670285E
:100D80000DDA002C00D100BF00202056401C0028A6
:100D900000D110BD6188606803F01BFBF9E70020FB
:100DA000F7E710B500F009FB012003F03FFB02203C
:100DB00003F03CFB10BD10B500F0FFFA042003F077
:100DC00035FB082003F032FB10BD10B500F0F5FA3A
:100DD000102003F02BFB202003F028FB402003F021
:100DE00025FB802003F022FBFF20013003F01EFBD7
:100DF0000120400203F01AFB0120800203F016FBE1
:100E00000120C00203F012FB0120000303F00EFBDF
:100E10000120400303F00AFB0120800303F006FBDE
:100E20000120C00303F002FB10BD70B5044600258D
:100E3000002C05DD02E06410681CC5B2012CFAD15B
:100E4000A8000B490858002803D0A900084A5058A8
:100E5000804770BD001002400004005000080050A0
:100E6000000C005000001110000021100000311093
:100E70002005002000B587B0FA480078002840D14E
:100E8000F9480069012189040843F7490861F748D6
:100E9000F7490860002048600F21F5488160F54956
:100EA000C160002101618161C16104F057FF00212F
:100EB0006846C171012141718171062101710022D1
:100EC00001A9EB4805F049F900216846017201A823
:100ED000417181710491C17105910691002202A9AD
:100EE000E34805F05EF8E24806F03EFD00220121ED
:100EF000022002F062FA022002F068FA0120D949C9
:100F0000087007B000BDF1B584B000BF04980CF0C4
:100F1000D9FC04460022D84B0CF0D8FB0646002230
:100F2000D64B0CF03BFC019100900DF00DF90391B4
:100F30000290039902980CF019FD05B0F0BD0FB4B2
:100F4000F0B589B0182210A903A80CF066FA0024A5
:100F50000020029010A8867947790079019010A8A6
:100F600085780F9C0089C349081A80B202902140FD
:100F70000298081880B20290E40A03E0C048241ADC
:100F8000681C85B2BE488442F8D206E0E120000128
:100F9000241A0198401C80B20190E1200001844293
:100FA000F4D202E03C3C781C87B23C2CFAD23019D7
:100FB00086B207E00121C9020298401A80B202906D
:100FC000701C86B20121C90202988842F2DA04E05C
:100FD00030463C3886B2781C87B23C2EF8DA06E000
:100FE00038463C3887B20198401C80B201903C2FB3
:100FF000F6DA05E00198183880B20190681C85B2D5
:1010000001981828F6DA10A9C978002908D010A983
:10101000C878C117890F091889108900411A16D19B
:1010200010A84078401E9749085CA84225DA10A80D
:101030004078401E0A46115C28460CF0AAF98DB291
:101040006846407B401CC1B26846417315E010A859
:101050004078401E8C49085CA8420EDA10A84078FF
:10106000401E0A46115C28460CF093F98DB2684682
:10107000407B401CC1B2684641737E490298091A00
:10108000059103A8867147710198C1B26846017441
:101090008573182203A90E980CF0BFF909B0F0BCB3
:1010A00008BC04B0184770B586B005460026002479
:1010B000002201A96E4805F01CF8029E002201A939
:1010C0006B4805F016F8029C06E02646002201A9AE
:1010D000674805F00EF8029CA642F6D10022694648
:1010E000634805F0DAF81822694628460CF095F9AD
:1010F00006B070BD10B5A0B00446FF2101315C48B8
:1011000005F02CFB032C00D8032404A8FFF7CBFF29
:10111000182204A91AA80CF080F918221AA95B4811
:101120000CF07BF91CA80FC803936B4607C321463C
:1011300004A81B9B1A9AFFF702FF182204A914A8FF
:101140000CF06BF9FF2001301390002011900F90EC
:101150000F2000061090002108A8C17216980B906D
:1011600014A8817908A8817214A8417908A841724D
:1011700010A8017D08A8017210A8817C01720022CC
:101180000AA93B4805F0BEF9002800D000BF20B0F6
:1011900010BD70B504462046FFF7B5FE0546FFF7C3
:1011A000A9FF70BD3A490968884209D939490978C7
:1011B000012905D10021374A117035490968401AC3
:1011C0003349096888420BD9322803D20021324AB8
:1011D000117005E00121304A11702D490968401A4B
:1011E0007047F1B584B000BF04980CF06BFB044667
:1011F0000022224B0CF06AFA064600221E4B0CF02D
:10120000CDFA019100900CF09FFF03910290039999
:1012100002980CF0ABFB05B0F0BD70B58CB0054684
:1012200000BF0024002D08D16846FFF73CFF1822BC
:10123000694606A80CF0F1F804E01822294606A831
:101240000CF0EBF800202FE0002807D00146C21771
:10125000920F521892109200821A21D10F496418ED
:1012600020E000000B000020401002400028004059
:1012700078050020FF0700000000704000405F403C
:1012800080510100F0E10008E4E100086005002061
:101290001000002008000020090000200085E20165
:1012A000CB496418411C08B26946C97E8142CBDC37
:1012B0006946C97E002908D06946C87EC117890FD2
:1012C000091889108900411A0ED1002006E0C14991
:1012D000095CC14A51430C19411CC8B26946497E98
:1012E000491E8142F3DC0DE0002006E0BB49095CA9
:1012F000B94A51430C19411CC8B26946497E491E7E
:101300008142F3DC06A8817940793C2250430918D8
:101310006846007FE1221201504309186846807E2A
:10132000AD4A504308180419E102AD4A0898101A52
:101330000E1830460CB070BD10B500240020FFF729
:101340006CFF04462046FFF74CFF2046FFF749FF9D
:1013500010BD70B50026002400250020FFF75DFFBA
:101360000446A048FFF759FF0546AC4203D2701E61
:10137000401B061900E0661B3046FFF732FF70BDC8
:1013800010B50446FFF7D8FF001910BD70B504462C
:101390000025002C00D170BD0020FFF73EFF054660
:1013A0002846FFF71EFF0546A54204D27D20000611
:1013B000001B4019EFE7281BEDE710B58A4840688D
:1013C000C007C00F012148404840002806D0864889
:1013D0000068042108438449086002E00120834931
:1013E00008708348C0680C210840042804D0804855
:1013F000C0680840002801D1FFF70AF910BD10B5F8
:101400000446012C01D1FFF7D8FF7A48047010BDC3
:1014100010B578480078002815D177480078012861
:1014200011D1FFF73AF903F097F86F4800680421EB
:1014300008436D49086003F031F903F01FF90121F9
:10144000084603F0B6F810BD30B597B0002400256B
:101450006A48007800281BD101A8FFF724FE182253
:1014600001A907A80BF0D9FF0023FF2201320DA923
:10147000634805F0FCF95A490E980C1A09980D1AA0
:10148000281BFFF7AEFE5F49086001205B4908702A
:1014900017B030BDF3B58BB0182105A80BF0D6FFFF
:1014A000002400200490002500260027039001203E
:1014B0000290002001900C9C6105490D04980818C9
:1014C0000490E40A05E04448241A0398401C80B2C2
:1014D000039041488442F6D204E0E1200001241A3E
:1014E000781C87B2E12000018442F6D202E03C3C45
:1014F000701C86B23C2CFAD2281985B207E0012173
:10150000C9020498401A80B20490681C85B2012177
:10151000C90204988842F2DA04E028463C3885B2D1
:10152000701C86B23C2DF8DA04E030463C3886B2B6
:10153000781C87B23C2EF8DA06E03846183887B2B5
:101540000398401C80B20390182FF6DA0BE0029843
:10155000401E2049095C0398401A80B2039002980B
:10156000401CC0B202900298401E1A49095C0398C0
:101570008142ECDB1A490498091A079105A8857184
:101580004671684607760398C1B26846817502992C
:1015900041750198C1B26846C175182205A90B981A
:1015A0000BF03BFF0DB0F0BD10B5154805F0D6F9B6
:1015B000FF210131124805F0D1F8FFF7FEFEFFF7D9
:1015C00043FF0020FFF71BFF0BF056FD10BD7047D7
:1015D0008033E101F0E1000880510100E4E10008FE
:1015E000FF07000060050020007000400800002098
:1015F000001002400A000020090000200C0000201A
:10160000780500201000002070B502460020DA4D59
:101610002B6804E0401C5B08072800D301E08B42E4
:10162000F8D800BF04250540002D00D100E020259A
:1016300002260640002E00D100E010263543C607E2
:10164000F60F002E00D100E008262C463443157812
:1016500058267543C94EAD19EC6170BDF0B5059CB7
:101660000026057858277D43C44FED19AE60002948
:1016700006D1057858277D43C04FED19EE6007E08D
:101680000126F602057858277D43BC4FED19EE6020
:10169000057858267543B94EAD192A610578582644
:1016A0007543B64EAD196B610026057858277D430A
:1016B000B24FED192E62057858277D43AF4FED19D3
:1016C0006E62057858277D43AC4FED19AE62072650
:1016D000057858277D43A94FED19EE62002C08D1FB
:1016E000FF260536057858277D43A44FED196E6017
:1016F00006E00026057858277D43A04FED196E605F
:10170000F0BDFEB504460D4616461F46FEF7E8FD41
:101710002570002D43D19A48406A012109030843EE
:10172000974948620846406A891488439449486248
:101730000846406B891408439149486391495820F1
:1017400068438E4A11500020022103460A46009148
:1017500001903146201D0BF0A1FB00200221034621
:101760000A46009101903946204610300BF096FB56
:101770000020022103460A460091019020461C30B9
:1017800008990BF08BFB00200121034602220091F7
:1017900001902046283009990BF080FB44E07848FE
:1017A000806A012189030843754988620846806A76
:1017B000012189038843724988620846806B0121B0
:1017C000890308436E4988636F49582068436B4A10
:1017D00011500020022103460A4600910190314633
:1017E000201D0BF05BFB0020022103460A460091FE
:1017F00001903946204610300BF050FB00200221AA
:1018000003460A460091019020461C3008990BF0CF
:1018100045FB002001210346022200910190204651
:10182000283009990BF03AFB0998401C00280FD189
:101830000121490258206843504A801881610020E4
:1018400003460246014600902046FFF707FF07E0E7
:10185000012000231A46194600902046FFF7FEFE9D
:101860004A492046FFF7D0FE58216943434A881869
:1018700006F001F9FEF73BFDFEBD1CB504462178DC
:10188000582251433D4A881806F03DF90020009047
:1018900004210190615603460122201D0BF0FEFA3F
:1018A000002002210091019010216156034601227F
:1018B000204610300BF0F2FA002000901C2101901D
:1018C00061560346012220461C300BF0E7FA012046
:1018D00000900190282001570023012220180BF0CE
:1018E000DDFA1CBD70B504460D4600BF002C06D0C5
:1018F00020785821484321490858002800D100BFCA
:101900002078582148431D49085800684021084361
:10191000217858225143194A51580860FEF7E0FCDB
:1019200000BF207858214843144908588068022194
:10193000084040080028F4D0E9B2207858225043EB
:101940000E4A1058C16000BF2078582148430B4907
:1019500008588068C007C00F01214840484000284F
:10196000F2D020785821484304490858C068C6B2CC
:10197000FEF7BDFC304670BD180000209C0500201D
:10198000001002400030014000380040809698006E
:10199000FEB504460D4616461F462570FF2D29D07C
:1019A000DB48406A012189030843D9494862084657
:1019B000406A012189038843D54948620846406B43
:1019C000012189030843D2494863042001210023EF
:1019D0000222009101903146201D0BF05FFA042095
:1019E0000121002302220091019039462046103047
:1019F0000BF054FAFEBDFFB581B004460D461F46FC
:101A00000C9E2078FF287DD0C248C3490860039807
:101A10004860002D07D1206A002800D100BF0821AE
:101A2000BD48416117E0012D07D1E06A002800D1CF
:101A300000BF0421B84841610DE0022D0AD1206A9F
:101A4000002802D0E06A002800D100BF0C21B24873
:101A5000416100E000BF002F03D10021AE4881604A
:101A600004E0012F02D13903AB4881600A980028B5
:101A70000FD0022802D003280AD104E00121490333
:101A8000A548C16009E003210903A348C16004E03F
:101A900000BF0021A048C16000BF00BF0B98002814
:101AA00003D100219C4801610AE00B98012803D171
:101AB00081029948016103E00321490296480161CE
:101AC000002E03D100219448816110E0012E03D142
:101AD0003102914881610AE0022E03D131028E4821
:101AE000816104E0032E02D131028B488161002123
:101AF0008948C16107F0BFFE002800D000BF002266
:101B0000012100E00AE01B2001F057FC1B2001F03E
:101B10005DFC01228149804808F024F905B0F0BD40
:101B20001CB504462078FF2829D07948406A012155
:101B300089030843764948620846406A01218903BF
:101B40008843734948620846406B012189038843F2
:101B50006F494863002000900421019061560346BC
:101B60000322201D0BF09AF9002000901021019013
:101B7000615603460322204610300BF08FF91CBD3E
:101B800070B504460D462078FF2800D170BDFEF7E1
:101B9000A7FB6348057020461C300BF072F9002843
:101BA00011D15F48017820461C300BF042F95A48A9
:101BB0000068006840210843574909680860FEF73B
:101BC00096FB0020E2E7FEF792FB0120DEE770B50E
:101BD00004460D462078FF2800D170BDFEF780FB3B
:101BE000204628300BF044F9002808D12046283040
:101BF0000BF02BF92870FEF77AFB0020EDE7FEF7DB
:101C000076FB0120E9E7F7B505460E462878FF2860
:101C100000D1FEBD00240FE0002705E0781CC7B20C
:101C20000A2F01DD0120F4E7315D28460BF057FB58
:101C30000028F3D1601C84B202988442ECDB0020BF
:101C4000E7E7FFB581B00D4616461F46002409E0C0
:101C5000291901980BF04BFB002802D1601C84B2BB
:101C600000E001E0B442F3DB00BF3C80002C02D175
:101C7000012005B0F0BD0020FBE710B5044629485F
:101C80000BF0F6F8002808D126480BF0DEF82449BE
:101C900008700122204808F02EF822481C38406BBA
:101CA000002804D01F481C38416B0020884710BD15
:101CB00010B504461B480C300BF0E3F8002805D1A2
:101CC0001648017817480C300BF0B3F815481C384B
:101CD000406B002804D013481C38416B0120884712
:101CE00001220E490C4808F03DF810BD10B504461D
:101CF00001220A49084808F035F810BD10B5064819
:101D000008F0A0FA10BD10B5034808F09BFA10BD0A
:101D100000100240003801404C0600201400002052
:101D200015000020F00400201CB5012000900023C5
:101D300002461C210190EB480BF0B0F80020012175
:101D400003460246009101901B21E64870380BF0D3
:101D5000A5F80020012103460246009101902D21A3
:101D6000E04864380BF09AF800200121034602464F
:101D7000009101901921DB4858380BF08FF80020B2
:101D8000012103460246009101901421D5484C38A8
:101D90000BF084F8002001210346024600910190D7
:101DA0001321D04840380BF079F800200121034678
:101DB0000246009101900F21CA4834380BF06EF8AA
:101DC0001CBD10B5044603220121C64870382368A3
:101DD0000BF075F803220121C248643863680BF0E8
:101DE0006EF803220121BF485838A3680BF067F84A
:101DF00003220121BB484C38E3680BF060F8032252
:101E00000121B848403823690BF059F80322012119
:101E1000B448343863690BF052F810BD1CB501208A
:101E200000210B460246009101901C21AD480BF0A9
:101E300035F800200090034602461B210190A94876
:101E400070380BF02BF800200090034602462D213D
:101E50000190A44864380BF021F80020009003465C
:101E60000246192101909F4858380BF017F80020BE
:101E7000009003460246142101909A484C380BF01A
:101E80000DF800200090034602461321019095486A
:101E900040380BF003F800200090034602460F2163
:101EA0000190904834380AF0F9FF1CBD70470020BB
:101EB00070471CB50120FFF7F9FF00200090034692
:101EC00001221A21019087487C380AF0E7FF01209F
:101ED0000AF08AFF012000210B460A46009101907A
:101EE0001A2180487C380AF0D9FF06200AF07CFFCE
:101EF0001CBD01468020704770B5044600250026B1
:101F0000092009F037FA05464D2009F033FA064654
:101F100074490C314868FFF7ECFF6906490E084325
:101F2000054628468F210840054670358020284008
:101F300080282CD1112C04DD3046F8210840C61D24
:101F400003E03046F8210840061D7007400F0728BF
:101F50000ED1052C00DA0524142C00DD14242846AB
:101F6000F0210840611F0907090F084305461EE0DC
:101F7000022C00DA0224112C00DD11242846F02165
:101F80000840A11E0907090F084305460FE000207D
:101F9000C043844200DA04460E2C00DD0E2428469D
:101FA000F0210840611C0907090F0843054629462E
:101FB000092009F0B8F931464D2009F0B4F970BD97
:101FC0001CB50020009001231A461946019046488E
:101FD0000AF064FF0020009001231A460146019098
:101FE00042480AF05BFF1CBD1CB501200090002395
:101FF0000246014601903C480AF050FF00200121B2
:1020000003460A4600910190014638480AF046FF0F
:102010001CBD10B5044636480078A0420ED03448A6
:102020000470002C05D10120FFF740FFFFF7DCFF13
:1020300004E00020FFF73AFFFFF7C2FF10BD10B524
:102040000446032C06D0052C0ED0062C0DD0072CF0
:1020500009D10BE0002124480AF043FF0121234865
:102060000AF03FFF0BE000BF00BF00BF01211E4888
:102070000AF037FF00211D480AF033FF00BF00BF00
:1020800010BD01460120704770B50446002009F0DC
:10209000A4F9204609F0EFF912210E2009F043F9C6
:1020A0000221122009F03FF90221132009F03BF927
:1020B000052009F069F902200AF096FE002009F0D7
:1020C00039FB054609F07AF9284670BD70B505461A
:1020D0000C462846FFF7D8FFA04201DA012070BD68
:1020E0000020FCE768080020BC060020C80600208D
:1020F000160000200448804704480047FEE7FEE73A
:10210000FEE7FEE7FEE7FEE711210008C100000838
:102110004E480068FF21013108434C4908600846D9
:10212000C0684B4908404949C860084600684949A9
:1021300008404649086008468068400840008860BA
:102140000846006801218904884340490860084620
:10215000C068FD21090488433C49C860002008612B
:10216000C8033D4988607047F8B500250024002663
:102170000020009000273548C0680C210840054623
:10218000002D06D0042D11D0082D13D00C2D41D1D7
:1021900014E02E484068072149030840470B781C8B
:1021A00001218140C8032D49086040E02C482B499B
:1021B00008603CE02B482949086038E02348C068A3
:1021C0000F218904084004462048C068032189057E
:1021D00008400646A00C24490C5CB00D461C1B4868
:1021E000C06801210904084000900098002808D127
:1021F0001B496143084631460BF0B5F817490860A2
:1022000007E018496143084631460BF0ACF8134922
:1022100008600CE00D484068072149030840470B5F
:10222000781C01218140C8030C49086000BF00BF31
:102230000648C068F021084000090C490D5C0748B9
:102240000068E84005490860F8BD00000010024041
:102250000C40FF88F6FFF6FE00ED00E018000020BD
:102260000024F40000366E0114E20008FCE10008CE
:10227000704770B504467D21C9005C4800680BF0CA
:1022800072F8054601F0CEF800222146501E01F0FA
:1022900094F8002070BD10B55548006840210843EF
:1022A000534908600020FFF7E4FFFFF7E1FF00203B
:1022B00010BD704710B50020C0434E498862002011
:1022C0008862401E486200204862401E086200206A
:1022D0000862401EC8610020C861FFF7EAFF0020C5
:1022E00010BD45480068401C43490860704742489B
:1022F0000068704731B50024FFF7F9FF044600BFBE
:10230000FFF7F5FF001B00998842F9D338BD3B4821
:1023100000690221884339490861704737480069DC
:1023200002210843354908617047354870473548F0
:102330000068000C7047334800680005000D7047C6
:1023400030484068012108432E49486070472D48B5
:102350004068400840002B49486070472948406861
:1023600002210843274948607047264840680221F7
:102370008843244948607047224840680421084344
:102380002049486070471F484068042188431D4920
:10239000486070471B49496801431A4A51607047B9
:1023A000184949688143174A5160704716480068C8
:1023B00003210902084070471349096A30229143FA
:1023C000114A11621146096A0143116270470E48B1
:1023D000006A0121C90708430B49086270470A488F
:1023E000006A400040080849086270471800002051
:1023F00000200240001002401C00002000E000E02D
:10240000000007010058014000000140704710B56E
:102410000446002C01D1012010BDA06D002806D17A
:10242000E0650021542001552046FFF7EFFFA06D25
:1024300010210840002806D1206880680421084047
:10244000800800280AD0A06D10210843A06500BFB5
:1024500000215420015500BF0120DDE7A06DFF21C0
:102460000131884302210843A06520688068800705
:10247000800F012807D120680068C007C00F00281E
:1024800001D0012000E0002000283AD100BF032144
:1024900089076069884207D049426069884203D051
:1024A0004900606988420CD120680069800080087A
:1024B0002168086120680069616908432168086132
:1024C00012E0206800698000800821680861F848EF
:1024D00080680F2189048843F54988600846806830
:1024E00061690843F249886000BF2068C06818210C
:1024F00088432168C8602068C068A16908432168D2
:10250000C860EB488068012149068843E849886033
:1025100008468068A16C49060843E5498860206840
:102520008068012109070840002804D120688068DC
:102530000843216888602068C068DE490840216837
:10254000C860216A606A022901D1042100E00021EB
:102550000843A16A49030843A16B49000843216C61
:102560000843616C89030843E16CC903084321688F
:10257000C96808432168C860FF21C231206B8842C6
:1025800007D0616B206B08432168C9680843216844
:10259000C860E06A012812D1A06A002807D120682B
:1025A000C0680121090408432168C86007E0A06DE4
:1025B00020210843A065E06D01210843E0656068C3
:1025C000012817D120680069FF218900884321680C
:1025D0000861A168E0680843216908432168096926
:1025E00008432168086120680069012108432168C7
:1025F00008610BE020680069C007C00F002805D003
:10260000206800694008400021680861206840692E
:10261000C008C0002168486120684069E16908433A
:10262000216848610020E065A06D022188430121F6
:102630000843A0650020EFE6704770B5044600250A
:10264000206880688007800F012807D12068006813
:10265000C007C00F002801D0012000E000200028A2
:1026600037D02068806805210840012800D100E0AB
:10267000002000280AD000BF20688068022108439B
:102680002168886003202168086009E0A06D10219E
:102690000843A065E06D01210843E065012070BD9D
:1026A000FFF725FE05460EE0FFF721FE401B0A2836
:1026B00009D9A06D10210843A065E06D01210843F0
:1026C000E0650120EBE720688068C007C00F0028A4
:1026D000EAD10020E3E770B5044600252068806851
:1026E000042108408008002829D02068806808401C
:1026F00000280BD02068806802210840002805D1FE
:10270000206880681021084321688860FFF7EFFD8A
:1027100005460EE0FFF7EBFD401B0A2809D9A06D26
:1027200010210843A065E06D01210843E065012008
:1027300070BD20688068042108400028EAD100208C
:10274000F6E770B504460025002C01D1012070BDCC
:10275000A06D02210843A0652046FFF7BCFF054697
:10276000002D07D12046FFF768FF0546012D01D057
:102770000120A065012D3ED0206840684E490840E8
:10278000216848604C48C043216808602068806820
:10279000012109078843216888602068C06847498B
:1027A00008402168C86020680069454908402168E0
:1027B000086120684069C008C0002168486120683D
:1027C000006A404908402168086220688030406BF8
:1027D000C109C90120688030416320688030406BA6
:1027E000C109C9012068803041632046FFF724FFFA
:1027F0000020E065A06500BF00215420015500BF06
:102800002846A4E738B504462F49304800680AF046
:10281000AAFD6043009002E00098401E00900098DE
:102820000028F9D138BD70B50446002520688068BD
:102830008007800F012807D120680068C007C00FFB
:10284000002801D0012000E0002000284BD12068A2
:1028500080681F490840002801D1012000E00020C5
:10286000002809D1A06D10210843A065E06D012169
:102870000843E065012070BD20688068012108439D
:10288000216888600120FFF7BDFFFFF730FD054696
:1028900020E0FFF72CFD401B0A281BD9A06D10215A
:1028A0000843A065E06D01210843E0650120E2E7EF
:1028B000002701401902FEFF60F7FFFF00023E8380
:1028C00002FCFF3F00F000F040420F001800002023
:1028D0001700008020680068C007C00F0121484031
:1028E00048400028D5D00020C5E770B50446002533
:1028F0002068806804210840800800282BD100BF90
:102900005420005D012801D1022070BD0121542016
:10291000015500BFE06C012803D02046FFF783FF7C
:102920000546002D18D1A06DFE490840FF21013158
:102930000843A0650020E06500BF00215420015538
:1029400000BF1C20216808602068806804210843BB
:102950002168886000E002252846D6E770B5044665
:10296000002500BF5420005D012801D1022070BD68
:1029700001215420015500BF2046FFF7ACFE05465B
:10298000002D0CD12046FFF758FE0546002D06D13C
:10299000A06DFF210131884301210843A06500BFDC
:1029A00000215420015500BF2846E0E7F8B5044651
:1029B0000D46E06B082801D1082711E02068C068A7
:1029C000C007C00F00280AD0A06D20210843A065D1
:1029D00000BF00215420015500BF0120F8BD0C2785
:1029E000FFF785FC064614E0681C002811D0002D76
:1029F00004D0FFF77CFC801BA8420AD9A06D0421FB
:102A00000843A06500BF00215420015500BF0320EA
:102A1000E4E72068006838400028E5D0A06D012177
:102A200049020843A0652068C06803218902084064
:102A3000002825D1A06A002822D12068006808213A
:102A4000084008281CD120688068042108408008BC
:102A500000280DD1206840680C2188432168486017
:102A6000A06DFF210131884301210843A06507E0E3
:102A7000A06D20210843A065E06D01210843E065B9
:102A8000606C002802D10C20216808600020A5E7B6
:102A9000F8B504460D4616460027FFF728FC074602
:102AA00014E0701C002811D0002E04D0FFF71FFC8A
:102AB000C01BB0420AD9A06D04210843A06500BF25
:102AC00000215420015500BF0320F8BD2068006894
:102AD0002840A84201D1012000E000200028E0D0D9
:102AE000802D07D1A06D69020843A0658020216870
:102AF00008600FE0206C002808D1A06D0121890238
:102B00000843A065E06D02210843E06510202168BC
:102B1000086000BF00BF0020D7E770B5044600255D
:102B200020688068042108408008002843D100BF45
:102B30005420005D012801D1022070BD01215420E4
:102B4000015500BFE06C012803D02046FFF76BFE63
:102B50000546002D30D1A06D72490840FF2101319A
:102B60000843A0650020E06500BF00215420015506
:102B700000BF1C2021680860E06B08280CD1206889
:102B80004068042188432168486020684068182113
:102B900008432168486006E0206840681C2108431B
:102BA0002168486000BF00BF206880680421084396
:102BB0002168886000E002252846BEE770B504461B
:102BC000002500BF5420005D012801D1022070BD06
:102BD00001215420015500BF2046FFF77CFD05462A
:102BE000002D12D1206840681C218843216848606C
:102BF0002046FFF722FD0546002D06D1A06DFF21DE
:102C00000131884301210843A06500BF0021542001
:102C1000015500BF2846DAE7704770B50546AC6A33
:102C2000A06D40210843A065E06D04210843E065E4
:102C30002046FFF7F1FF70BD704770B50446A56AE6
:102C40002846FFF7F9FF70BD704770B50546AC6ABE
:102C5000A06D50210840002835D1A06D0121490206
:102C60000843A0652068C068032189020840002845
:102C700025D1A06A002822D12068006808210840D8
:102C800008281CD12068806804210840800800289A
:102C90000DD1206840680C21884321684860A06DF0
:102CA000FF210131884301210843A06507E0A06DA1
:102CB00020210843A065E06D01210843E06520461E
:102CC000FFF7C2FF03E0206D416B2846884770BDC7
:102CD000F8B504460D461646002720688068042192
:102CE0000840800800284BD100BF5420005D012817
:102CF00001D10220F8BD01215420015500BFE06C34
:102D0000012803D02046FFF78EFD0746002F38D15B
:102D1000A06D04490840FF2101310843A06500204F
:102D2000E06501E0FEF1FFFF00BF002154200155E6
:102D300000BFF848216DC862F748216D0863F74865
:102D4000216D48631C2021680860206840681021BC
:102D50000843216848602068C06801210843216851
:102D6000C86022681146403133462A46206D00F083
:102D700048FE20688068042108432168886000E0DC
:102D800002273846B6E770B50446002500BF542038
:102D9000005D012801D1022070BD012154200155A0
:102DA00000BF2046FFF797FC0546002D28D120687C
:102DB000C068400840002168C860206D00F05AFEDD
:102DC0000546002D03D0A06D40210843A065206872
:102DD00040681021884321684860002D04D12046B6
:102DE000FFF72BFC054602E02046FFF726FC002DEE
:102DF00006D1A06DFF210131884301210843A06560
:102E000000BF00215420015500BF2846C4E70146F9
:102E10000868006C7047704710B504462068006869
:102E200004210840042804D1206840680840042890
:102E30000AD02068006808210840082840D120688E
:102E40004068084008283BD1A06D102108400028A8
:102E500003D1A06D49010843A0652068C068032123
:102E600089020840002825D1A06A002822D12068C4
:102E700000680821084008281CD1206880680421C7
:102E80000840800800280DD1206840680C21884344
:102E900021684860A06DFF2101318843012108436A
:102EA000A06507E0A06D20210843A065E06D012129
:102EB0000843E0652046FFF7C7FE0C202168086044
:102EC000206800688021084080280ED12068406872
:102ED0000840802809D1A06D49020843A06520461A
:102EE000FFF799FF802021680860206800681021A2
:102EF000084010281AD1206840680840102815D1D1
:102F0000206C002805D02068C068C007C00F0028CA
:102F100009D0E06D02210843E065102021680860B7
:102F20002046FFF779FE10202168086010BD70B5BB
:102F300004460D4600BF5420005D012801D1022047
:102F400070BD01215420015500BF20688068042114
:102F50000840800800280AD0A06D20210843A06501
:102F600000BF00215420015500BF0120E8E76C4953
:102F70006868884238D02068806A29684903490B0C
:102F800008432168886228684003400B654908406F
:102F900001218904884208D16348806849010843B7
:102FA000614988600A20FFF72DFC28684003400B28
:102FB0005E49084001214904884205D15A48806889
:102FC000490108435849886028684003400B584924
:102FD00008400121090488423BD153488068090216
:102FE00008435149886034E02068806A29684903B1
:102FF000490B88432168886228684003400B49498F
:10300000084001218904884205D147488068490168
:1030100088434549886028684003400B434908407D
:1030200001214904884205D13F488068490188430D
:103030003D49886028684003400B3D490840012114
:103040000904884205D13848806809028843364916
:10305000886000BF00215420015500BF00206FE7A9
:10306000F0B5024600250326B6050868B04200D137
:1030700000BF00BF5420805C012801D10220F0BDB8
:1030800001265420865400BF106880680426304012
:103090008008002852D18868012806D1106840684D
:1030A000802630431668706005E01068406880260E
:1030B000B043166870601068C0681E4E30401668D5
:1030C000F0601F27BF064E683E4008683043166810
:1030D000F66830431668F060CB681668F668182703
:1030E0003E40F6087600B3400C691668F6683E402C
:1030F000F6087600B4401068006A0F4E304016683B
:1031000030621804166830621068006A204316683E
:10311000306218E04B2C00083B2C00081B2C0008E8
:103120000110000000000448002701400000024494
:1031300000000140FFFF3F8300F000F0906D20266B
:1031400030439065012500BF00265420865400BFFF
:10315000284694E70146886D70470146C86D704760
:10316000F8B504460F460025002600BF5420005D38
:10317000012801D10220F8BD01215420015500BFD2
:10318000206880688007800F012806D120680068C9
:103190000840002801D0012000E0002000282FD1A5
:1031A000A06DFF210131884302210843A0652068FA
:1031B00080688907084321688860FFF798F8064609
:1031C00011E0FFF794F8801B0A280CD9A06D0221AA
:1031D000884310210843A06500BF002154200155F9
:1031E00000BF0120C7E720688068C00FC007002823
:1031F000E7D1A06D0221884301210843A06504E0C6
:10320000A06D20210843A065012500BF00215420A6
:10321000015500BF2846AEE7024610688030406B7B
:103220004006400E704730B503460C46002100BFF3
:103230005420C05C012801D1022030BD012554205A
:10324000C55400BF186880688007800F012806D128
:10325000186800682840002801D0012000E0002004
:10326000002816D0186880680425284080080028A7
:103270000FD118688030406BC509ED0118688030A7
:10328000456318688030406B10431D688035686363
:1032900008E0986D102528439865D86D01252843CE
:1032A000D865012100BF00255420C55400BF084641
:1032B000C3E710B500242448006AFF210131084308
:1032C00021490862FFF713F8044606E0FFF70FF8FC
:1032D000001B032801D9012010BD1B48006A0121F1
:1032E000890708400028F1D00020F5E71648006A59
:1032F000FF210131884314490862704710B500244A
:103300001148006A0121490208430F490862FEF78B
:10331000EEFF044606E0FEF7EAFF001B012801D994
:10332000012010BD0848006A0121890708400028D3
:10333000F1D00020F5E70448006A012149028843E2
:1033400001490862704700000000014010B50028E4
:1033500019DA814A03071B0F083B9B089B00D258D0
:103360008307DC0EFF23A3409A438B071B0E8407C1
:10337000E40EA3401A43784B0407240F083CA4082A
:10338000A4001A5118E0754A03231B02D2188308BF
:103390009B00D2588307DC0EFF23A3409A438B0780
:1033A0001B0E8407E40EA3401A436C4B0324240233
:1033B0001B198408A4001A5110BD70B504460D46AF
:1033C000164629462046FFF7C1FF70BD00BFC20662
:1033D000D20E01219140614A116000BF704700BFC9
:1033E000C206D20E012191405C4A8032116000BFBA
:1033F000704700BF00BF00BF00BF00BFBFF34F8FCB
:1034000000BF00BF00BF564853491C39C86000BF09
:1034100000BF00BFBFF34F8F00BF00BF00BF00BFA2
:1034200000BFFDE770B504462546681E4D49884239
:1034300001D901200CE0681E4B4948610321081F97
:10344000FFF784FF002048498861072008610020B9
:1034500070BD0146084600280CDA3F4A03071B0FDF
:10346000083B9B089B00D2588307DB0EDA4012060C
:10347000920F0BE0394A03231B02D21883089B00EA
:10348000D2588307DB0EDA401206920F10467047BF
:1034900000BFC206D20E01219140344A116000BF24
:1034A000704710B501460846304A1268C406E40E5B
:1034B0000123A3401A40002A01D0012200E000228B
:1034C000104610BD00BFC206D20E01219140274A0E
:1034D0008032116000BF7047042806D12249096973
:1034E00004221143204A116105E01F4909690422A1
:1034F00091431D4A11617047704710B5FFF7FCFFFB
:1035000010BD4179144A64329161017901291DD1BC
:10351000016809090901D161817A0907427A120615
:103520001143C27A92041143027B52041143427B3D
:1035300012041143C27912021143827952001143DD
:1035400002791143044A6432116204E00021024A04
:103550006432D161116270471CED00E000E100E0CF
:103560000400FA05FFFFFF0000E000E000E200E0D9
:1035700001460022002901D1012070472520405C2E
:10358000002802D100232420435402232520435441
:1035900008680268FD480240CB68886818430B69D8
:1035A00018434B6918438B691843CB6918430B6A5E
:1035B0001843024308680260F54B086898420FD12F
:1035C000F3487830806A00090001F14B7833986243
:1035D0001846806A4B681843ED4B7833986285E053
:1035E000EB4B14330868984210D1E9487830806A70
:1035F000F0239843E64B783398621846806A4B680C
:103600001B011843E24B783398626FE0E04B28339C
:103610000868984211D1DE487830806A0F231B0277
:103620009843DB4B783398621846806A4B681B02DC
:103630001843D74B7833986258E0D54B3C33086831
:10364000984211D1D2487830806A0F231B039843E7
:10365000CF4B783398621846806A4B681B03184337
:10366000CB4B7833986241E0C94B5033086898429D
:1036700011D1C7487830806A0F231B049843C44B8C
:10368000783398621846806A8B881B041843C04BB5
:10369000783398622AE0BE4B64330868984211D1AF
:1036A000BB487830806A0F231B059843B84B7833AA
:1036B00098621846806A8B881B051843B44B783390
:1036C000986213E0B24B7833086898420ED1806A52
:1036D0000F231B069843AE4B783398621846806AD6
:1036E0000B791B061843AA4B7833986201232520D7
:1036F0004354002041E70146002901D101207047D1
:103700002520405C022801D10120F8E70868006804
:10371000400840000A68106000200A6810600A68CB
:1037200050600A6890600A68D060994A08689042C0
:1037300001D1012026E0964A14320868904201D156
:1037400010201FE0924A28320868904201D180156B
:1037500018E08F4A3C320868904201D1801411E091
:103760008B4A50320868904202D10120000409E0DF
:10377000874A64320868904202D10120000501E0C6
:1037800001200006824A083A5060814A0868904247
:1037900001D1022027E07E4A14320868904201D10C
:1037A000202020E07A4A28320868904201D1401552
:1037B00019E0774A3C320868904202D10120400368
:1037C00011E0734A50320868904202D1012040044F
:1037D00009E06F4A64320868904202D10120400536
:1037E00001E0012040066A4A083A5060684A0868C9
:1037F000904201D1082027E0654A143208689042BF
:1038000001D1802020E0624A28320868904201D12C
:10381000C01419E05E4A3C320868904202D101208F
:10382000C00311E05A4A50320868904202D1012088
:10383000C00409E0564A64320868904202D101206F
:10384000C00501E00120C006514A083A5060504AC4
:103850000868904201D1042027E04D4A14320868DC
:10386000904201D1402020E0494A28320868904225
:1038700001D1001519E0464A3C320868904202D155
:103880000120800311E0424A50320868904202D180
:103890000120800409E03E4A64320868904202D167
:1038A0000120800501E001208006394A083A506075
:1038B000374A0868904208D135487830806A000954
:1038C0000001334A7832906255E0314A1432086878
:1038D000904208D12E487830806AF02290432C4ADA
:1038E0007832906247E02A4A28320868904209D12B
:1038F00027487830806A0F2212029043244A783297
:10390000906238E0224A3C320868904209D120484F
:103910007830806A0F22120390431D4A78329062F9
:1039200029E01B4A50320868904209D11848783083
:10393000806A0F2212049043154A783290621AE08E
:10394000134A64320868904209D111487830806A7D
:103950000F22120590430E4A783290620BE00C4A17
:1039600078320868904206D1806A0F22120690438E
:10397000074A783290620020886300222520425452
:1039800000BF2420425400BF0020B8E60FC0FFFF54
:103990000800024010B5046863608468102C04D1EC
:1039A0000468A2600468E16003E00468A160046840
:1039B000E26010BDF8B504460D4616461F4600BF2E
:1039C0002420005D012801D10220F8BD012124201E
:1039D000015500BF022125200155206800684008DC
:1039E0004000216808603B46324629462046FFF7E2
:1039F000D1FF206800680121084321680860002089
:103A0000E3E7F8B504460D4616461F4600BF2420DE
:103A1000005D012801D10220F8BD012124200155BB
:103A200000BF0221252001552068006840084000A1
:103A3000216808603B46324629462046FFF7AAFF28
:103A40002068006802210843216808602068006837
:103A500004210843216808602068006808210843A1
:103A60002168086020680068012108432168086017
:103A70000020D1E770B504460025206800684008A2
:103A8000400021680860FEF732FC054614E0FEF7AE
:103A90002EFC401B7D21C90088420DD9A06B20213E
:103AA0000843A06300BF00212420015500BF03216B
:103AB00025200155032070BD20680068C007C00F95
:103AC0000028E4D100BF00212420015500BF0121BE
:103AD000252001550020EEE7F8B504460E461546B0
:103AE00000200090002E2FD1FC492068884201D18F
:103AF000022027E0F94914312068884201D12020B2
:103B000020E0F64928312068884201D1401519E0AB
:103B1000F2493C312068884202D10120400311E083
:103B2000EE4950312068884202D10120400409E06A
:103B3000EA4964312068884202D10120400501E051
:103B40000120400607462EE0E4492068884201D162
:103B5000042027E0E14914312068884201D1402047
:103B600020E0DE4928312068884201D1001519E0A3
:103B7000DA493C312068884202D10120800311E0FB
:103B8000D64950312068884202D10120800409E0E2
:103B9000D24964312068884202D10120800501E0C9
:103BA000012080060746FEF7A2FB00908BE0CB4881
:103BB00008380068C94A2168914201D1082127E0EC
:103BC000C64A14322168914201D1802120E0C34AC3
:103BD00028322168914201D1C91419E0BF4A3C3210
:103BE0002168914202D10121C90311E0BB4A503240
:103BF0002168914202D10121C90409E0B74A643227
:103C00002168914202D10121C90501E00121C906C3
:103C1000084000283ED0B1492068884201D10820E0
:103C200027E0AE4914312068884201D1802020E08D
:103C3000AA4928312068884201D1C01419E0A74957
:103C40003C312068884202D10120C00311E0A34921
:103C500050312068884202D10120C00409E09F4908
:103C600064312068884202D10120C00501E00120B2
:103C7000C0069A4908394860A06B01210843A06337
:103C800004212520015500BF00212420015500BF3B
:103C90000120F8BD681C002815D0002D05D0FEF7C6
:103CA00026FB0099401AA8420DD9A06B2021084399
:103CB000A06303212520015500BF002124200155C8
:103CC00000BF0320E5E78548083800683840002831
:103CD00000D16CE7002E38D180492068884201D19C
:103CE000022027E07D4914312068884201D120203C
:103CF00020E07A4928312068884201D1401519E036
:103D000076493C312068884202D10120400311E00D
:103D1000724950312068884202D10120400409E0F4
:103D20006E4964312068884202D10120400501E0DB
:103D300001204006694908394860012125200155C4
:103D400000BF00212420015538E0644920688842E2
:103D500001D1042027E0614914312068884201D153
:103D6000402020E05D4928312068884201D10015BB
:103D700019E05A493C312068884202D10120800371
:103D800011E0564950312068884202D10120800458
:103D900009E0524964312068884202D1012080053F
:103DA00001E0012080064D490839486005212520A1
:103DB000015500BF00212420015500BF002068E705
:103DC00010B50446454808380068444A21689142C5
:103DD00001D1082127E0414A14322168914201D1E2
:103DE000802120E03D4A28322168914201D1C91446
:103DF00019E03A4A3C322168914202D10121C903BB
:103E000011E0364A50322168914202D10121C904A1
:103E100009E0324A64322168914202D10121C90588
:103E200001E00121C906084000284DD02068006843
:103E300008210840002847D020680068884321688E
:103E4000086026492068884201D1082027E02349DC
:103E500014312068884201D1802020E01F49283198
:103E60002068884201D1C01419E01C493C31206807
:103E7000884202D10120C00311E018495031206866
:103E8000884202D10120C00409E01449643120684D
:103E9000884202D10120C00501E00120C0060F497F
:103EA00008394860A06B01210843A0630421252044
:103EB000015500BF00212420015500BF606B002880
:103EC00002D02046616B8847044808380068034ADE
:103ED0002168914204D1042129E000000800024039
:103EE000824A2168914201D1402120E07F4A143268
:103EF0002168914201D1091519E07C4A28322168D4
:103F0000914202D10121890311E0784A3C322168B3
:103F1000914202D10121890409E0744A503221689A
:103F2000914202D10121890501E001218906084061
:103F300000284BD02068006804210840002845D0A4
:103F40002068006820210840002805D1206800680A
:103F50000421884321680860644914392068884234
:103F600001D1042026E061492068884201D1402027
:103F700020E05E4914312068884201D1001519E023
:103F80005A4928312068884202D10120800311E07B
:103F900056493C312068884202D10120800409E062
:103FA000524950312068884202D10120800501E049
:103FB000012080064D491C39486005212520015506
:103FC000206B002802D02046216B884747481C38C8
:103FD0000068464A143A2168914201D1022126E044
:103FE000424A2168914201D1202120E03F4A143207
:103FF0002168914201D1491519E03C4A28322168D3
:10400000914202D10121490311E0384A3C32216832
:10401000914202D10121490409E0344A5032216819
:10402000914202D10121490501E0012149060840E0
:10403000002852D0206800680221084000284CD097
:104040002068006820210840002805D12068006809
:104050000221884321680860244914392068884275
:1040600001D1022026E021492068884201D1202088
:1040700020E01E4914312068884201D1401519E022
:104080001A4928312068884202D10120400311E0FA
:1040900016493C312068884202D10120400409E0E1
:1040A000124950312068884202D10120400501E0C8
:1040B000012040060D491C394860A06BA063012116
:1040C0002520015500BF00212420015500BFE06AD2
:1040D000002802D02046E16A884710BD014625200D
:1040E000405C70470146886B704700001C0002402E
:1040F00070B50346002200240020DFE00126964030
:104100000D6835402C46002C77D04D68022D02D02A
:104110004D68122D15D1D508AE001D462035A85981
:104120005507EE0E0F25B5400646AE4330465607FE
:10413000F60E0D69B5402843D508AD001E46203661
:1041400070514D68012D08D04D68022D05D04D6885
:10415000112D02D04D68122D18D1986856000325F4
:10416000B5400646AE4330465600CD68B5402843BC
:1041700098605868012595400646AE4330461026A3
:104180004D6835402D099540284358601868560001
:104190000325B5400646AE4330460D79AD07AD0F59
:1041A0005600B54028431860D86856000325B5402E
:1041B0000646AE43304656008D68B5402843D86069
:1041C000012636074D683540B54276D19E4D6D6B60
:1041D000012635439C4E75639C4D9608B600A85940
:1041E00095072E0F0F25B5400646AE4330460525F0
:1041F0002D07AB4202D100251AE05EE0944DAB42A0
:1042000001D1012514E0934DAB4201D102250FE00D
:10421000914DAB4201D103250AE0904DAB4201D153
:10422000042505E08E4DAB4201D1052500E00625B1
:104230009607360FB5402843844D9608B600A8511E
:10424000884D28680546A5432846012636044D6852
:104250003540B54202D1054625432846814D2860A8
:1042600068680546A5432846012676044D68354012
:10427000B54202D10546254328467A4D6860A868B4
:104280000546A5432846012636054D683540B5420A
:1042900002D1054625432846724DA860E8680546C8
:1042A000A5432846012676054D683540B54202D122
:1042B0000546254328466B4DE860521C0D68D540E5
:1042C000002D00D01AE770BDF0B50B46002100228A
:1042D000002479E001258D401D402A46002A72D035
:1042E00005684F000326BE40B5430560CD08AE000B
:1042F00005462035AD594E07F70E0F26BE40B54393
:10430000CE08B60007462037BD5185684F0003260A
:10431000BE40B5438560456801268E40B543456083
:10432000C5684F000326BE40B543C560474D8E08A3
:10433000B600AC598D072E0F0F25B5402C40052532
:104340002D07A84201D1002519E0414DA84201D115
:10435000012514E03F4DA84201D102250FE03E4D5A
:10436000A84201D103250AE03C4DA84201D1042511
:1043700005E03B4DA84201D1052500E006258E074A
:10438000360FB540A5421ED18D072E0F0F25B54023
:104390002C462E4D8E08B600AD59A5432B4E8F08E6
:1043A000BF00F5512F4D2D6895432E4E3560354693
:1043B0006D68954375603546AD689543B560354683
:1043C000ED689543F560491C1D46CD40002D81D117
:1043D000F0BD024613690B40002B01D0012000E024
:1043E00000207047002A01D0816100E0816270479F
:1043F00042694A404261704708B502460120000404
:1044000000900098084300900098D061D161009816
:10441000D061D0690090D06901231B0418400028A6
:1044200001D0002008BD0120FCE7704710B504460C
:104430000C4840692040002804D00A4844612046C6
:10444000FCF7F3FC10BD0000001002400800014022
:104450000004005000080050000C005000100050F4
:10446000001C0050000401408048806A01210907B7
:1044700008437E4988620846806A090488437B496C
:10448000886270477A480068FF2101310843784903
:104490000860704776480068FF21013188437449FD
:1044A0000860704772490968E0229143026811432D
:1044B0006F4A11606F4949680122120491436D4AA5
:1044C000516011460968012212049143694A116042
:1044D0001146C968012212049143664AD16011460F
:1044E0008968012212049143624A916001221204F8
:1044F00041681140914204D15E49096811435D4A07
:1045000011600122520441681140914205D159497C
:10451000496852101143574A51600179C907C90FC0
:10452000002906D053498968012212041143514AD7
:104530009160022241681140022905D14D49C968A4
:10454000D20311434B4AD16070474948006810219B
:104550000843474908607047454800681021884370
:10456000434908607047424949680143404A5160E5
:1045700070473F49496881433D4A5160704710B5D3
:10458000024600203A4B1868800880000346134317
:104590001846374B1860384B1B690424A343364C2C
:1045A0002361012901D130BF02E040BF20BF20BFFD
:1045B00010BD10B5024600202D4B18688008800001
:1045C0000346134318462A4B18602B4B1B690424DF
:1045D0002343294C2361012901D130BF02E040BFB0
:1045E00020BF20BF244B1B690424A343224C23611A
:1045F00010BD1F480068022108431D4908601E487D
:104600000069042108431C49086100BF00BF30BF96
:10461000704719480069022108431749086170472B
:104620001548006902218843134908617047124800
:104630000069102108431049086170470E4800695D
:10464000102188430C4908617047704710B509482C
:104650004069012109040840002805D0FFF7F5FF53
:10466000012000040349486110BD00000010024011
:10467000007000400004014000ED00E02B4800689D
:1046800001218902084329490860704727480068CA
:104690000121890288432549086070472348006842
:1046A0000121490208432149086070471F480068FA
:1046B0000121490288431D49086070471B48006872
:1046C0000121084319490860084600680914084395
:1046D00016490860704710B500BF144800680121F2
:1046E0008903884311490860084600684008400073
:1046F00008600F490F48006808F035FE3221484332
:10470000044600E0641E002C05D0084840682021C3
:1047100008400028F6D105484068202108400028BC
:1047200001D0032010BD0020FCE700000070004015
:1047300040420F001800002008B5F9480068FF212A
:1047400001310843F649086008460068F549084009
:10475000F3490860084600680121090408400090F8
:1047600000BFEF48006889008843ED4908600020D9
:10477000C8600861EC48ED49086008BDF8B5002440
:1047800000260020009000270025E548406807210A
:1047900049030840470BE248C0680C210840002844
:1047A00006D0042809D0082811D00C2849D110E0DF
:1047B000781C01218140CD0348E0D94800681021D0
:1047C0000840002801D0DA4D00E0DA4D3EE0DA4D35
:1047D0003CE0D348C0680F21890408400446D04813
:1047E000C0680321890508400646A00CD3490C5C2B
:1047F000B00D461CCA48C068012109040840009059
:104800000098002815D1C6480068102108400028EB
:1048100007D0C74961430846314608F0A4FD054664
:104820000EE0C44961430846314608F09CFD054648
:1048300006E0C14961430846314608F094FD05464B
:1048400004E0781C01218140CD0300BF00BF284651
:10485000F8BDF8B5044600252078C007C00F002831
:1048600070D0AF48C0680C21084008280BD0AC4875
:10487000C06808400C2813D1A948C0680121090468
:10488000084088420CD1A64800680121490408402C
:10489000400C00286AD06068002867D10120F8BD6C
:1048A00000BF012109046068884205D19C48006866
:1048B00008439B4908602EE005210904606888428E
:1048C00015D197480068012109048843944908607C
:1048D0000846006801218904084391490860084698
:1048E00000680121090408438D49086013E08C48E1
:1048F0000068012109048843894908600846006866
:10490000012109040840009000BF85480068890023
:1049100088438349086000BF6068002813D0FDF712
:10492000E6FC054606E0FDF7E2FC401B642801D9E1
:104930000320B4E77A480068012149040840400C8C
:104940000028F0D012E0FDF7D2FC054606E0FDF7A6
:10495000CEFC401B642801D90320A0E77048006802
:10496000012149040840400C0028F0D102212068B0
:10497000084002286AD16A48C0680C21084004280F
:104980000BD06748C06808400C281DD16448C06837
:10499000012109040840002816D16148006804215B
:1049A00008408008002804D0E068012801D00120D8
:1049B00075E75B4840681F210902884321690902A5
:1049C00008435749486041E0E068002824D0544833
:1049D000006809218843E168084351490860FDF7F0
:1049E00086FC054606E0FDF782FC401B022801D943
:1049F000032054E74A480068042108408008002842
:104A0000F1D0474840681F21090288432169090203
:104A100008434349486019E0414800680921884338
:104A2000E16808433E490860FDF761FC054606E081
:104A3000FDF75DFC401B022801D903202FE7384811
:104A400000680421084080080028F1D11021206866
:104A50000840102833D13248C0680C210840002893
:104A60002ED12F480068012149020840400A002841
:104A700004D0E069002801D1012010E728484068EF
:104A8000072149038843616A08432549486008466D
:104A900040680002000A218C09060843204948604A
:104AA000FFF76CFE1E49C968F02211400909244A2B
:104AB000515CC8401D4908600020FDF7DAFB5BE04F
:104AC000E06900283ED016480068FF210131084304
:104AD00013490860FDF70BFC054606E0FDF707FCEF
:104AE000401B022801D90320D9E60D4800680121A6
:104AF00049020840400A0028F0D0094840680721D0
:104B000049038843616A084305494860084640688C
:104B10000002000A218C09060843014948602BE085
:104B200000100240D4FFF6FE68FF1F0018000020AE
:104B300000093D000024F40000366E0114E2000874
:104B4000FCE10008F9480068FF2101318843F7497A
:104B50000860FDF7CCFB054606E0FDF7C8FB401BEF
:104B6000022801D903209AE6F04800680121490291
:104B70000840400A0028F0D1082120680840082891
:104B800039D1606900281BD0E84840300069012114
:104B90000843E64940310861FDF7A9FB054606E0F8
:104BA000FDF7A5FB401B022801D9032077E6DF486B
:104BB000403000690221084040080028F0D01AE087
:104BC000DA484030006940084000D8494031086167
:104BD000FDF78DFB054606E0FDF789FB401B02282B
:104BE00001D903205BE6D14840300069022108402A
:104BF00040080028F0D120212068084020284BD10F
:104C0000A069002827D000BFC84880680121084358
:104C1000C64988600846406B01210843C349486380
:104C2000C348006A012149030843C149086200BF23
:104C3000FDF75DFB054606E0FDF759FB401B02282A
:104C400001D903202BE6B9488068022108404008BA
:104C50000028F1D020E000BFB44880684008400040
:104C6000B2498860B248006A012149038843B049CB
:104C7000086200BFFDF73BFB054606E0FDF737FB8A
:104C8000401B022801D9032009E6A84880680221B8
:104C9000084040080028F1D1042120680840042879
:104CA0007ED100260027A148806B89060840002895
:104CB00005D19E48806B08439C49886301269D4826
:104CC0000068FF2101310840002817D19948006889
:104CD0000843984908600127FDF709FB054606E0EF
:104CE000FDF705FB401B642801D90320D7E5914857
:104CF0000068FF21013108400028F1D000BFFF21EA
:104D00000131A068884207D18848403000690843D3
:104D100086494031086140E0A068002810D18348EE
:104D200040300069FF2101318843804940310861EA
:104D300008460069091588437C49403108612CE028
:104D400005210902A068884217D1784840300069DF
:104D5000FF210131884375494031086108460069E7
:104D600009150843714940310861084600698915F1
:104D700008436E49403108610FE06C4840300069DB
:104D8000FF210131884369494031086108460069C3
:104D90000915884365494031086100BFA06800E0FB
:104DA0003DE0002815D0FDF7A2FA054607E0FDF723
:104DB0009EFA401B6049884201D903206FE55B4899
:104DC00040300069012149020840400A0028EED025
:104DD00014E0FDF78CFA054607E0FDF788FA401B62
:104DE0005549884201D9032059E5504840300069AF
:104DF000012149020840400A0028EED1012F05D1C7
:104E00004C480068390288434A490860012E05D1A0
:104E10004648806B310788434449886300BFA06AD5
:104E2000002867D04148C0680C2108400C285FD09A
:104E3000A06A022841D13D48006801210906884343
:104E40003A490860FDF753FA054606E0FDF74FFAC8
:104E5000401B022801D9032021E5344800680121C4
:104E600049060840400E0028F0D1616B206B0843D2
:104E7000E16A08432D49C968FD22120491430843A1
:104E80002A49C860084600680121090608432749E5
:104E90000860FDF72CFA054606E0FDF728FA401BEE
:104EA000022801D90320FAE42048006801214906BC
:104EB0000840400E0028F0D01CE01C48006801218A
:104EC0000906884319490860FDF711FA054606E00E
:104ED000FDF70DFA401B022801D90320DFE4134837
:104EE0000068012149060840400E0028F0D101E089
:104EF0000120D4E40020D2E470B504460D4600261B
:104F00000E480068C007C00FA84219D20B480068BD
:104F10004008400028430949086008460068C00767
:104F2000C00FA8420CD0012070BD0000001002404C
:104F30000000014000700040881300000020024083
:104F4000022120680840022807D1FE48C068F021ED
:104F50008843A1680843FB49C8602078C007C00F98
:104F600000284CD06068022809D1F6480068012169
:104F700049040840400C002824D10120D4E760688F
:104F8000002809D1EF480068012149020840400A81
:104F9000002817D10120C7E76068032809D1E94834
:104FA0000068012149060840400E00280AD101206E
:104FB000BAE7E4480068042108408008002801D1CD
:104FC0000120B1E7DF48C0688008800061680843BD
:104FD000DC49C860FDF78BF90646606802280FD1EE
:104FE00007E0FDF784F9801BD749884201D90320E7
:104FF0009AE7D448C0680C2108400828F1D134E071
:10500000606803280FD107E0FDF771F9801BCE49D6
:10501000884201D9032087E7CA48C0680C210840AC
:105020000C28F1D121E0606800280FD107E0FDF7DE
:105030005EF9801BC449884201D9032074E7C14846
:10504000C0680C2108400028F1D10EE007E0FDF710
:105050004EF9801BBC49884201D9032064E7B94856
:10506000C0680C2108400428F1D1B8480068C00786
:10507000C00FA8420ED3B54800684008400028433E
:10508000B249086008460068C007C00FA84201D0B6
:10509000012049E7042120680840042808D1A948D4
:1050A000C068072109028843E1680843A549C86030
:1050B000082120680840082809D1A248C0680721B3
:1050C000C90288432169C90008439E49C860FFF7A7
:1050D00055FB9C49C968F022114009099C4A515C62
:1050E000C8409C4908600020FDF7C3F800201BE77A
:1050F00070B586B004460D46164602200290032085
:10510000049000200390002C17D100BF8D48C06A86
:10511000012108438B49C8620846C06AC007C00F16
:10512000009000BF00BF881501900020059001A9E4
:1051300005200007FEF7DCFF2EE0012C16D100BF92
:105140008048C06A012108437E49C8620846C06A97
:105150002040009000BF00BF48150190002005903E
:1051600001A905200007FEF7C3FF15E000BF754841
:10517000C06A022108437349C8620846C06A022116
:105180000840009000BF00BF080301900220059076
:1051900001A97148FEF7ACFF6A48C0687F21090683
:1051A00088432946314308436649C86006B070BD4C
:1051B000644800680121C9040843624908607047D7
:1051C00064480068704700B5FFF7FAFF5D49C96899
:1051D000072212021140090A604A515CC84000BD12
:1051E00000B5FFF7EDFF5749C9680722D202114009
:1051F000C90A5A4A515CC84000BD1F2101602022E3
:105200000168114301604F490968520311409142FE
:1052100003D10521090441600AE04A4909680122D5
:1052200012041140914201D1416001E0002141602E
:1052300044490968FF2201321140914202D1012103
:10524000C16101E00021C1613E490968090E0162A6
:105250003C494968072252031140490B41623949D0
:105260008968C907C90F002902D00121816101E0C5
:105270000021816133490968C907C90F002902D09B
:105280000121C16001E00021C1602E4949681F224F
:1052900012021140090A01612A49403109690122BB
:1052A00092021140914203D10521090281600BE075
:1052B000244940310969FF2201321140914201D154
:1052C000816001E0002181601E4940310969C90700
:1052D000C90F002902D00121416101E00021416193
:1052E00018490968012212061140914202D1022197
:1052F000816201E0012181621249C9680122120420
:105300001140C1620F49C9680F22920411408A0CF2
:1053100002630C49C9680322920511408A0D426359
:1053200070470F220260074AD2689207920F4260CC
:10533000044AD268F0231A408260024AD2680723E6
:105340001B020DE000100240881300000020024004
:10535000FCE1000818000020000400500CE20008E6
:105360001A40C2600D4AD268DB001A40D2080261BE
:105370000B4A1268D207D20F0A607047704710B507
:1053800006484069FF2101310840884205D1FFF7F6
:10539000F5FFFF2001300149886110BD0010024077
:1053A0000020024070B50446002500262021206818
:1053B0000840202804D0890120680840884277D11D
:1053C000F848006803210905084003221205A16975
:1053D0001140884207D1F348006811460840E1694E
:1053E000114088420ED003210904A0690840884278
:1053F00008D1EC480068012149040840002801D088
:10540000012070BDE748806B012109070843E54989
:105410008863E548006889150843E3490860FCF79C
:1054200066FF054606E0FCF762FF401B642801D9D1
:105430000320E6E7DC480068FF210131084000282E
:10544000F1D0D84840300069032109040840032204
:105450001204A1691140884208D1D2484030006945
:1054600011460840E169114088425CD0CD48403087
:1054700000690321090488430646CA484030006990
:105480000121C9040843C749403108610846006941
:105490000121C9048843C3494031086108460661B7
:1054A00040153040002815D0FCF721FF054608E0E4
:1054B00039E0FCF71CFF401BBC49884201D903209E
:1054C0009FE7B84840300069012149020840400A7E
:1054D0000028EED000BF03210904A06908408842DB
:1054E0000BD1B04800680901884303221205A16965
:1054F00011400843AB49086006E0AA480068032150
:1055000009058843A7490860A6484030006903217F
:105510000904884303221204A16911400843A149E8
:105520004031086100BF2078C007C00F002809D0B3
:105530009C484030C06880088000616808439949F1
:105540004031C860022120680840022809D19548EE
:105550004030C0680C218843A1680843914940311C
:10556000C86004212068084004280AD18D484030D2
:10557000C068032189028843E168084389494031B2
:10558000C86008212068084008280AD185484030B2
:10559000C0680321090388432169084381494031D8
:1055A000C860FF2101312068084088420AD17D4847
:1055B0004030C06803210904884361690843794980
:1055C0004031C860402120680840402809D1754812
:1055D0004030C06809058843216A08437149403159
:1055E000C86080212068084080280AD16D4840307A
:1055F000C068032189048843616A084369494031CE
:10560000C8600020FDE66A49016066494031C9680A
:105610008907890F416063494031C9680C221140F4
:10562000816060494031C96812021140C1605D4922
:105630004031C9689200114001615A494031C9683E
:1056400012011140416157494031C968920011402F
:105650004162544940310969921011408161816968
:10566000C16150494031C96801229206114001626E
:105670007047FEB505460024002600200290002752
:1056800001900090102D78D008DC012D76D0022DED
:1056900075D0042D74D0082D59D19CE1202D0AD04D
:1056A000402D6ED0E81FF93800286BD00721090281
:1056B000401AF1D14CE03B48403000690321090415
:1056C0000840044601200004844209D13548403096
:1056D0000069E1110840002802D08801029036E0FC
:1056E00001204004844209D12E4840300069022143
:1056F0000840002802D02F48029028E00320000430
:10570000844222D12748006801214904084000282A
:105710001BD02448006821010840064601200005EE
:10572000301A0BD001210905401A04D0401A08D1C3
:105730002148029008E02148029005E020480290AC
:1057400002E02048029000BF01E0002002909AE1B0
:105750001448403000690321090408400446012030
:10576000000484420FD10F4840300069E111084025
:10577000002808D0880102904FE051E19EE0C9E086
:10578000F5E04BE05AE10120400484421CD1054879
:105790004030006902210840002815D005480290D9
:1057A0003BE0000000100240007000408813000041
:1057B000EF0900008890000060E31600C0C62D00CD
:1057C000808D5B00001BB70003200004844222D1BF
:1057D000FB48006801214904084000281BD0F84814
:1057E000006821010840064601200005301A0BD050
:1057F00001210905401A04D0401A08D1F14802904D
:1058000008E0F148029005E0F048029002E0F0481C
:10581000029000BF01E00020029034E1E8484030EF
:10582000C0680121890608400446002C36D1E448AE
:10583000006849100840002830D0E148C0680F21B6
:10584000890408400746DE48C068032189050840EE
:105850000190B80CDF490F5C0198800D401C01904D
:10586000D748C06801210904084000280BD1D4485A
:10587000006810210840002802D0D748009004E0BA
:10588000D648009001E0D6480090009878430090F8
:105890000199009807F067FD02900EE00120800654
:1058A000844208D1C648806802210840002802D0FE
:1058B000CC48029001E000200290E4E0C048403073
:1058C000C0688407A40F002C03D1FFF789FC029065
:1058D0001FE0022C08D1BA480068042108400028C3
:1058E00002D0BE48029014E0012C03D1FEF746FF1F
:1058F00002900EE0032C0AD1B1484030006901212A
:1059000049020840002802D08801029001E00020EE
:105910000290B8E0AA484030C0680C210840044614
:10592000002C03D1FFF74FFC02901FE0082C08D198
:10593000A348006804210840002802D0A74802902C
:1059400014E0042C03D1FEF719FF02900EE00C2C9A
:105950000AD19B48403000690121490208400028D3
:1059600002D08801029001E0002002908BE0944870
:105970004030C0680321890208400446002C03D14E
:10598000FFF721FC029025E00120C002844208D1EB
:105990008B48006804210840002802D08F480290FC
:1059A00018E001208002844203D1FEF7E7FE029056
:1059B00010E00320800284420AD18148403000690F
:1059C000012149020840002802D08801029001E02C
:1059D0000020029057E07A484030C0680321090354
:1059E00008400446002C03D1FFF7EDFB029016E0BF
:1059F00001204003844208D1714800680421084016
:105A0000002802D07548029009E00120000384427A
:105A100003D1FEF7B3FE029001E00020029032E0D5
:105A20006748806B012189050840884203D1FFF750
:105A3000CAFB029001E00020029024E06048403060
:105A4000C0680321090408400446002C03D1FFF775
:105A5000BAFB029016E001204004844208D1584865
:105A6000006804210840002802D05C48029009E048
:105A700001200004844203D1FEF780FE029001E081
:105A80000020029000BF00BF0298FEBD4C4840308D
:105A900000690121490308434949403108617047C1
:105AA0004748403000690121490388434449403157
:105AB0000861434800698021884341490861704773
:105AC0003F48403000690121490308433C494031C7
:105AD00008613B4800698021084339490861424810
