:020000040800F2
:10000000580F00206D24000889D7000877240008C5
:1000100000000000000000000000000000000000E0
:10002000000000000000000000000000792400082B
:1000300000000000000000007B240008030B000803
:100040007F2400087F240008211900087F2400086D
:100050007F2400088F0E0008A30E0008B70E0008CA
:100060007F2400087F2400087F2400087F240008E4
:100070007F2400087F2400087F2400087F240008D4
:100080007F2400087F2400087F240008000000006F
:100090007F2400087F2400087F2400087F240008B4
:1000A0007F2400087F2400087F2400087F200008A8
:1000B000752000087F2400087F2400087F240008A2
:1000C0000348854610F086F9004800479D02000865
:1000D000580F002010B53F230122D22193480FF082
:1000E000F2F901280CD092A1964810F085F99548B4
:1000F0000FF0EBFC84B22246924993480FF051FC7A
:1001000005200FF023F900230222D22187480FF0A7
:10011000DAF901280CD08DA18A4810F06DF98948D0
:100120000FF0D3FC84B22246864987480FF039FC91
:1001300010BDF0B587B00020049000246AE0600094
:100140000246803204ABD22178480FF004FA01282D
:100150000CD083A17B4810F04FF97A480FF0B5FC22
:1001600085B22A46774978480FF01BFC60000246AA
:10017000813204AB0133D2216C480FF0ECF9012835
:100180000CD077A16F4810F037F96E480FF09DFC46
:1001900085B22A466B496C480FF003FC6946487CDF
:1001A0000602097C0E437005400D06900120C00236
:1001B00030400121C902884208D106980FF0F2FEB2
:1001C000054600210FF0DDFC059003E006980FF0D6
:1001D000E9FE059005980FF073FF0022644B019132
:1001E00000900FF0FFFD039102900FF091FF254664
:1001F000E117490F4919C91049015E4A8918274674
:10020000E217520FD219D210D200A21A92008850CF
:10021000601CC4B2402C92DB012007B0F0BDF8B5E1
:1002200055A1484810F0E8F846480FF04EFC85B25A
:100230002A46444944480FF0B4FB00242BE0002731
:1002400018E061014B4A8918BA0088580FF038FF4E
:1002500005462A460B464CA13A4810F0CDF83948DD
:100260000FF033FC85B22A46364937480FF099FB28
:10027000781CC7B2082FE4DB45A1324810F0BCF867
:1002800030480FF022FC85B22A462E492E480FF046
:1002900088FB601CC4B2082CD1DBF8BD0EB500F0A1
:1002A000DDFA012252023B4927481C300FF06DF85D
:1002B000012252023849244828300FF066F80A23F8
:1002C0000922002120480FF031FB0020009001900E
:1002D0000346E1225202022102901B480FF037FB35
:1002E0007D20C0000FF032F81723162200210F489E
:1002F0000FF0BEF8FFF7EEFE28A1124810F07CF8D0
:1003000010480FF0E2FB84B222460E490E480FF06F
:1003100048FB09E0FFF70DFF2C480FF017F8FFF737
:100320007EFF2A480FF012F8F4E700004C06002088
:100330004932635772697465204661696C203121C6
:100340000D0A00004C040020F006002049326357DB
:1003500072697465204661696C2032210D0A0000C3
:1003600049326352656164204661696C210D0A005F
:100370000000D03F4C050020416C6C20506978652E
:100380006C446174613A0A0028252E3266292000E7
:100390000A0000004C0000204C020020493243209B
:1003A000526561642038783820506978656C446102
:1003B00074612066726F6D20414D473838333320A9
:1003C00053746172742E2E2E0A000000B80B0000C8
:1003D0007CB505460C464C484C4908604C48406B7F
:1003E0000121490208434A494863484802F065FB35
:1003F000601C002808D000200090034603222146FC
:10040000019028460EF0FCFF7CBD10B500203F494E
:100410004860032189073D4841610021816107212E
:10042000C16101210162002141628162C1624163B7
:10043000016381630421C163890201640021416475
:100440008164C16402F09FF90021304803F044F850
:1004500010BD1CB504462F4800902F4801906946F6
:10046000204602F020FF1CBD7CB506460C4600204D
:100470000090019000252648006801210843244986
:10048000086000BF22480068042108408008002856
:10049000F8D01F48406BC90108431D49486300213B
:1004A0001A4803F019F81948FFF7D3FF0094012008
:1004B000000301906946154802F0F5FE134802F06A
:1004C000D0FB0021C943114802F02CFC0F4802F078
:1004D0005AFE85B211490098884203D0104900980D
:1004E000884202D1094802F0E8FA0948406B01212C
:1004F00049028843064948630846006840084000AE
:10050000086028467CBD00000024014068060020E9
:1005100000100240FFFF077C0110000000000448AB
:10052000000002440120FE490870704772B6FD4881
:100530000078401CFB4908707047FA480078401E5C
:10054000F849087008460078002800D162B6704764
:1005500000B585B0012000210B46024600910190B4
:10056000182102A80EF04CFF012000210B460A467C
:1005700000910190702102A80EF042FF012000219D
:100580000B460A4600910190712102A80EF038FF37
:10059000012000210B46024600910190722102A821
:1005A0000EF02EFF012000210B460A46009101901B
:1005B000732102A80EF024FF012000210B460A46F9
:1005C00000910190742102A80EF01AFF0120002171
:1005D0000B460A4600910190752102A80EF010FF0B
:1005E000012000210B460A4600910190762102A8C5
:1005F0000EF006FF012000210B460A4600910190F3
:10060000772102A80EF0FCFE012000210B460A46CD
:1006100000910190782102A80EF0F2FE0120002145
:100620000B460A4600910190792102A80EF0E8FEDF
:10063000012000210B460A46009101907A2102A870
:100640000EF0DEFE012000210B46024600910190D3
:100650007B2102A80EF0D4FE05B000BD012070473A
:10066000B148806B012109070843AF498863AF484F
:1006700000680321C90288430121C9024018AB491F
:10068000086000BFA8480068012109040843A64982
:10069000086000BF00BFA448006801214904084069
:1006A000400C0028F7D0A0480068C90108439E49C3
:1006B000086000BF9C480068012149060840400EC0
:1006C0000028F7D09848C06880088000C01C964970
:1006D000C86000BF9448C0680C2108400C28F9D1BC
:1006E000704700B585B0FFF7B9FF012811D1002090
:1006F0000090034603220B21019002A80EF080FE19
:1007000000200090034603220C21019002A80EF065
:1007100077FE00200090034603221C21019002A8CE
:100720000EF06EFE00200090034603221D21019072
:1007300002A80EF065FE00200090034603221E2151
:10074000019002A80EF05CFE0020009003460322F8
:100750001F21019002A80EF053FE002000900346D6
:1007600003221521019002A80EF04AFE00200090FD
:10077000012303221221019002A80EF041FE002065
:100780000090034603221146019002A80EF038FEA5
:1007900000200090034603220821019002A80EF0D9
:1007A0002FFE01F097FF01F087FF01F0A1FF05B0D8
:1007B00000BD30B59DB05C48806B0121090708433E
:1007C00059498863594800680321C90288430121B7
:1007D000C90240185549086005200F900120000407
:1007E00010900012119002201990C1031A91410437
:1007F0001B9181051C910FA807F019F8002800D063
:1008000000BF0F200A9003200B9000200C900D9049
:100810000E9001210AA807F05DFB002800D000BF60
:1008200020200090C0020690684607F0A9FD00282D
:1008300000D000BF07F0B2FC05467D21C9000FF0D3
:10084000C6F8044602F0AAFF042003F001F80022D3
:100850001146501E02F06DFF1DB030BD1CB534486E
:100860000078002808D101F0D2FEFFF7A2FF00F0C7
:10087000BDFCFFF736FF01E0FFF7F2FE10212D4827
:100880000EF03EFD0020C0431D211E231F220091BB
:1008900001900121284801F0F0F801F001FC244802
:1008A0000078002804D1012021490870FFF7D6FE06
:1008B0001CBDFFF73BFE00BF00BF00BF00BF00BF75
:1008C000BFF34F8F00BF00BF00BF1C481C49C8606A
:1008D00000BF00BF00BFBFF34F8F00BF00BF00BF0E
:1008E00000BF00BFFDE700B585B012480EF019FD4E
:1008F000114801F07EF901F04DFC00200090034604
:1009000003226021019002A80EF07AFD00200090E1
:10091000034603226121019002A80EF071FD11E04F
:100920000100002002000020001002400070004082
:1009300000000020C8060020800A00200400FA05FC
:1009400000ED00E000200090034602462E210190B9
:1009500002A80EF055FD00200090034602462F210C
:10096000019002A80EF04CFD05B000BD684800697A
:100970006749496948406649496A4840704764493F
:100980000969634A526A8918090EC1716049096987
:100990005F4A526A89180902090E81715C49098A05
:1009A0005B4A928C89180904090E41715849097CE7
:1009B000574A928C8918017155494969090EC170CD
:1009C000534949690902090E81705149898A09040C
:1009D000090E41704E49097D01707047F0B585B030
:1009E00000254B482030008B03900020029000240B
:1009F000484949480EF099FC029003980FF0D2FA4A
:100A0000434920310190088B0FF0CCFA4349009004
:100A10000FF0BBF8074601990FF0F4F806460FF007
:100A2000F9FA85B202980FF0BDFA3D4900900FF037
:100A3000E9F8074628460FF0B5FA394601900FF05D
:100A4000A4F806460FF0E6FA84B26004040C2046CF
:100A500005B0F0BD33480088704710B50024FFF79B
:100A6000BDFF30490880FFF7F9FD002800D12DE0D7
:100A70002C4800882C49884201DBFE2426E02948C6
:100A800000881921C901884212DD264800882649BC
:100A900088420DDA234909881922D201891AFD22D8
:100AA0005143084621490EF0A8FF401CC4B20DE096
:100AB0001C4800881E49884207DD1A480088192111
:100AC000C901884201DC012400E0FF24204610BD5A
:100AD00010B518480078002812D1174917480EF0B1
:100AE00067FD7D21C90015480EF0E0FE13480EF0A9
:100AF000D0FD01E00EF0F3FE0E4800780028F9D09A
:100B000010BD10B501F0A9FD02F0B3FE10BD704795
:100B10004000F81F00010020C806002000404E459C
:100B200000F07F450400002036100000B6030000EE
:100B30001C0C0000010000202505000828070020EB
:100B400010B50446204601F091FD10BD70B5044675
:100B50000D4600202056702810DA002C02D0606864
:100B6000002800D100BF00202056401C002800D1E2
:100B700070BDEAB26188606803F0F0FD00BFF7E77E
:100B8000F0B587B004460E4615461F46702E71DA42
:100B90002670701C002801D107B0F0BD2078010735
:100BA000090F01208840608000202056F021084075
:100BB000002810D105200007606000BFE048C06A2F
:100BC00001210843DE49C8620846C06AC007C00F59
:100BD000019000BF42E000202056F021084010287C
:100BE0000FD1D848606000BFD548C06A02210843D1
:100BF000D349C8620846C06A02210840019000BF7C
:100C00002CE000202056F021084020280FD1CE48AB
:100C1000606000BFCA48C06A04210843C849C8626E
:100C20000846C06A04210840019000BF16E0002079
:100C30002056F021084030280FD1C448606000BF22
:100C4000BF48C06A08210843BD49C8620846C06A57
:100C500008210840019000BF00E000BF60880290BA
:100C60000C98A072049002200590002D03D1002062
:100C7000039018E022E0032D02D10320039012E03C
:100C8000022D09D1012F02D11220039001E0022090
:100C900003900D98069006E0012F02D111200390D9
:100CA00001E001200390012D03D120460D99FFF7AB
:100CB0004DFF02A9606803F0D7FB00BF00BF6BE7E0
:100CC000F0B587B004460D4616461F460020205654
:100CD000702871DA0020069005200590002F01D1C0
:100CE00007B0F0BD60880090012D02D198480190B6
:100CF00006E0022D02D19748019001E0964801904C
:100D0000A07A0290022003906946606803F0ACFB71
:100D100033000FF09CFB050405080B0F0E0000BF0D
:100D20000320069009E00220069006E001200690CC
:100D300003E000BF0020069000BF00BF6188FF22D3
:100D40000132881A914240D012DC102939D008DCD7
:100D500001292DD002292CD004292ED008293ED1DA
:100D60002CE020292ED040292DD0802937D12BE00E
:100D70000F221202811A90422BD00DDCFF3801386D
:100D8000002823D0FF38FF38023800281FD0012167
:100D90008902401A23D11BE001200003081A19D050
:100DA00001214903401A16D04900401A17D113E017
:100DB00000BF0520059013E021E000BF062005904C
:100DC0000EE000BF00BF00BF00BF00BF00BF00BFFC
:100DD00000BF00BF00BF00BF0720059000E000BFBC
:100DE00000BF20780007800E5C490F500022069952
:100DF000059802F09EFC059802F0A4FC00BF00BF1D
:100E00006EE710B586B004460020205670280EDA32
:100E1000608801900320029001A9606803F024FB20
:100E2000002021780907890E4C4A505000BF06B0B7
:100E300010BD10B504460020205670280FDA002C93
:100E400002D06068002800D100BF00202056401C5E
:100E5000002800D110BD6188606803F085FC00BFE8
:100E6000F8E710B504460020205670280DDA002C53
:100E700000D100BF00202056401C002800D110BD2A
:100E80006188606803F061FCF9E70020F7E710B5BE
:100E900000F04FFC012003F085FC022003F082FCEF
:100EA00010BD10B500F045FC042003F07BFC0820C9
:100EB00003F078FC10BD10B500F03BFC102003F0EF
:100EC00071FC202003F06EFC402003F06BFC8020BE
:100ED00003F068FCFF20013003F064FC01204002B5
:100EE00003F060FC0120800203F05CFC0120C002E2
:100EF00003F058FC0120000303F054FC01204003E0
:100F000003F050FC0120800303F04CFC0120C003DF
:100F100003F048FC10BD70B504460025002C05DD2B
:100F200002E06410681CC5B2012CFAD1A8000B497C
:100F30000858002803D0A900084A5058804770BDBF
:100F4000001002400004005000080050000C005047
:100F50000000111000002110000031103C0700209B
:100F6000FEB504460D4616461F469848806B012183
:100F700049058843954988630846806B01214905E6
:100F80000843924988630846806A0121490508435D
:100F90008E4988620846806A0121490588438B4949
:100FA000886225708A488B49086001200021034629
:100FB0000222009101903146201D0EF021FA0120FD
:100FC000002103460222009101903946204610304C
:100FD0000EF016FAFEBDF8B506460F46069D079CB4
:100FE0007A48806B012149050843784988637A482B
:100FF000844203D179487749486005E078488442C3
:1010000002D178487349486000217248816001210B
:10101000C1600021016141618161C161016203F030
:10102000E0FB00216B4806F0DDF8F8BD1CB5044676
:101030006648806B012149058843644988630846F6
:10104000806B012149050843604988630846806A2E
:101050000121490508435D4988620846806A0121EB
:10106000490588435949886201200021034602222C
:10107000009101901621201D0EF0C2F901200021DF
:1010800003460222009101901721204610300EF0F5
:10109000B7F95348002101230A46009101902046E8
:1010A000FFF799FF1CBD1CB504464A4803F0F9FB45
:1010B0004648806A01214905084344498862084638
:1010C000806A012149058843404988620846806B4F
:1010D0000121490588433D4988630020009004218F
:1010E0000190615603460322201D0EF089F900206D
:1010F00000901021019061560346032220461030D3
:101100000EF07EF91CBD384A11707047F0B585B0FD
:101110000D4616461C460A9F002004900390324854
:101120000078002802D10120039001E00220039002
:101130007D200001019700940290324629462548FF
:10114000039B04F0CEFD002801D1012000E0002027
:101150000490049805B0F0BDF0B585B00D46164674
:101160001C460A9F0020049003901F480078002826
:1011700002D10120039001E0022003907D200001B4
:10118000019700940290324629461248039B04F0CE
:10119000AEFE002801D1012000E000200490049858
:1011A00005B0F0BD70B506460C46002501231B03B3
:1011B000FF222D322146074805F04DFB002801D1C2
:1011C000012000E000200546284670BD00100240C6
:1011D000005400407C070020A0860100BB7C70000A
:1011E000801A0600380F30000600002000B587B0D6
:1011F000FA480078002840D1F948006901218904A3
:101200000843F7490861F748F7490860002048603B
:101210000F21F5488160F549C160002101618161BC
:10122000C16107F089FD00216846C171012141714A
:10123000817106210171002201A9EB4807F07BFFB3
:1012400000216846017201A8417181710491C17148
:1012500005910691002202A9E34807F090FEE248BA
:1012600009F070FB00220121022002F062FA022044
:1012700002F068FA0120D949087007B000BDF1B545
:1012800084B000BF04980EF0A9FE04460022D84B9B
:101290000EF0A8FD06460022D64B0EF00BFE019183
:1012A00000900FF015FE03910290039902980EF042
:1012B000E9FE05B0F0BD0FB4F0B589B0182210A951
:1012C00003A80EF0DEFB00240020029010A886790F
:1012D00047790079019010A885780F9C0089C3494F
:1012E000081A80B2029021400298081880B2029039
:1012F000E40A03E0C048241A681C85B2BE48844250
:10130000F8D206E0E1200001241A0198401C80B2C6
:101310000190E12000018442F4D202E03C3C781CC0
:1013200087B23C2CFAD2301986B207E00121C902FB
:101330000298401A80B20290701C86B20121C90244
:1013400002988842F2DA04E030463C3886B2781CD3
:1013500087B23C2EF8DA06E038463C3887B201986E
:10136000401C80B201903C2FF6DA05E00198183855
:1013700080B20190681C85B201981828F6DA10A98D
:10138000C978002908D010A9C878C117890F091891
:1013900089108900411A16D110A84078401E97493B
:1013A000085CA84225DA10A84078401E0A46115C65
:1013B00028460EF022FB8DB26846407B401CC1B22D
:1013C0006846417315E010A84078401E8C49085CBF
:1013D000A8420EDA10A84078401E0A46115C284642
:1013E0000EF00BFB8DB26846407B401CC1B26846D4
:1013F00041737E490298091A059103A886714771C5
:101400000198C1B2684601748573182203A90E9829
:101410000EF037FB09B0F0BC08BC04B0184770B53B
:1014200086B0054600260024002201A96E4807F078
:101430004EFE029E002201A96B4807F048FE029C66
:1014400006E02646002201A9674807F040FE029CFC
:10145000A642F6D100226946634807F00CFF182225
:10146000694628460EF00DFB06B070BD10B5A0B061
:101470000446FF2101315C4808F05EF9032C00D8D6
:10148000032404A8FFF7CBFF182204A91AA80EF022
:10149000F8FA18221AA95B480EF0F3FA1CA80FC834
:1014A00003936B4607C3214604A81B9B1A9AFFF7B8
:1014B00002FF182204A914A80EF0E3FAFF2001305D
:1014C0001390002011900F900F2000061090002123
:1014D00008A8C17216980B9014A8817908A8817287
:1014E00014A8417908A8417210A8017D08A80172CA
:1014F00010A8817C017200220AA93B4807F0F0FF86
:10150000002800D000BF20B010BD70B504462046B2
:10151000FFF7B5FE0546FFF7A9FF70BD3A49096818
:10152000884209D939490978012905D10021374A6A
:10153000117035490968401A3349096888420BD946
:10154000322803D20021324A117005E00121304ACD
:1015500011702D490968401A7047F1B584B000BF79
:1015600004980EF03BFD04460022224B0EF03AFC9C
:10157000064600221E4B0EF09DFC019100900FF0DC
:10158000A7FC03910290039902980EF07BFD05B031
:10159000F0BD70B58CB0054600BF0024002D08D109
:1015A0006846FFF73CFF1822694606A80EF069FA64
:1015B00004E01822294606A80EF063FA00202FE066
:1015C000002807D00146C217920F521892109200BD
:1015D000821A21D10F49641820E000000B0000207E
:1015E0004010024000280040D0070020FF07000004
:1015F0000000704000405F4080510100780F0108FA
:101600006C0F0108B807002010000020080000201F
:10161000090000200085E201CB496418411C08B292
:101620006946C97E8142CBDC6946C97E002908D063
:101630006946C87EC117890F091889108900411AA7
:101640000ED1002006E0C149095CC14A51430C1982
:10165000411CC8B26946497E491E8142F3DC0DE057
:10166000002006E0BB49095CB94A51430C19411CF2
:10167000C8B26946497E491E8142F3DC06A88179D9
:1016800040793C22504309186846007FE12212014C
:10169000504309186846807EAD4A50430818041923
:1016A000E102AD4A0898101A0E1830460CB070BD11
:1016B00010B500240020FFF76CFF04462046FFF71A
:1016C0004CFF2046FFF749FF10BD70B500260024EF
:1016D00000250020FFF75DFF0446A048FFF759FFF3
:1016E0000546AC4203D2701E401B061900E0661B83
:1016F0003046FFF732FF70BD10B50446FFF7D8FF44
:10170000001910BD70B504460025002C00D170BD35
:101710000020FFF73EFF05462846FFF71EFF05465F
:10172000A54204D27D200006001B4019EFE7281BCC
:10173000EDE710B58A484068C007C00F0121484056
:101740004840002806D086480068042108438449A0
:10175000086002E00120834908708348C0680C21BA
:101760000840042804D08048C0680840002801D1FF
:10177000FFF774F810BD10B50446012C01D1FFF736
:10178000D8FF7A48047010BD10B57848007800285A
:1017900015D177480078012811D1FFF7A4F805F09A
:1017A000C9FE6F480068042108436D49086005F0D0
:1017B00063FF05F051FF0121084605F0E8FE10BD6A
:1017C00030B597B0002400256A48007800281BD166
:1017D00001A8FFF724FE182201A907A80EF051F96D
:1017E0000023FF2201320DA9634808F02EF85A4960
:1017F0000E980C1A09980D1A281BFFF7AEFE5F49C8
:10180000086001205B49087017B030BDF3B58BB09C
:10181000182105A80EF04EF90024002004900025A0
:1018200000260027039001200290002001900C9CCC
:101830006105490D049808180490E40A05E044483D
:10184000241A0398401C80B2039041488442F6D287
:1018500004E0E1200001241A781C87B2E120000195
:101860008442F6D202E03C3C701C86B23C2CFAD298
:10187000281985B207E00121C9020498401A80B2F4
:101880000490681C85B20121C90204988842F2DAEA
:1018900004E028463C3885B2701C86B23C2DF8DA4C
:1018A00004E030463C3886B2781C87B23C2EF8DA29
:1018B00006E03846183887B20398401C80B203907F
:1018C000182FF6DA0BE00298401E2049095C0398B5
:1018D000401A80B203900298401CC0B20290029855
:1018E000401E1A49095C03988142ECDB1A490498AE
:1018F000091A079105A8857146716846077603980D
:10190000C1B268468175029941750198C1B26846B5
:10191000C175182205A90B980EF0B3F80DB0F0BDF3
:1019200010B5154808F008F8FF210131124807F0FA
:1019300003FFFFF7FEFEFFF743FF0020FFF71BFF4B
:101940000DF0ECFE10BD70478033E101780F010807
:10195000805101006C0F0108FF070000B80700204C
:101960000070004008000020001002400A00002023
:10197000090000200C000020D007002010000020EB
:1019800070B502460020DA4D2B6804E0401C5B086D
:10199000072800D301E08B42F8D800BF042505409A
:1019A000002D00D100E0202502260640002E00D1A7
:1019B00000E010263543C607F60F002E00D100E0E8
:1019C00008262C463443157858267543C94EAD1960
:1019D000EC6170BDF0B5059C0026057858277D4365
:1019E000C44FED19AE60002906D1057858277D4314
:1019F000C04FED19EE6007E00126F6020578582782
:101A00007D43BC4FED19EE60057858267543B94EFD
:101A1000AD192A61057858267543B64EAD196B612C
:101A20000026057858277D43B24FED192E620578C0
:101A300058277D43AF4FED196E62057858277D43D7
:101A4000AC4FED19AE620726057858277D43A94FA4
:101A5000ED19EE62002C08D1FF26053605785827CF
:101A60007D43A44FED196E6006E0002605785827E7
:101A70007D43A04FED196E60F0BDFEB504460D46E6
:101A800016461F46FEF752FD2570002D43D19A4899
:101A9000406A012109030843974948620846406AA1
:101AA00089148843944948620846406B8914084366
:101AB000914948639149582068438E4A115000204B
:101AC000022103460A46009101903146201D0DF087
:101AD00097FC0020022103460A46009101903946F6
:101AE000204610300DF08CFC0020022103460A46EF
:101AF0000091019020461C3008990DF081FC0020D7
:101B000001210346022200910190204628300999C4
:101B10000DF076FC44E07848806A0121890308438F
:101B2000754988620846806A0121890388437249A1
:101B300088620846806B0121890308436E498863E7
:101B40006F49582068436B4A115000200221034618
:101B50000A46009101903146201D0DF051FC0020F5
:101B6000022103460A460091019039462046103072
:101B70000DF046FC0020022103460A460091019028
:101B800020461C3008990DF03BFC00200121034643
:101B90000222009101902046283009990DF030FC76
:101BA0000998401C00280FD10121490258206843A0
:101BB000504A801881610020034602460146009089
:101BC0002046FFF707FF07E0012000231A461946C9
:101BD00000902046FFF7FEFE4A492046FFF7D0FE60
:101BE00058216943434A881808F033FFFEF7A5FCE3
:101BF000FEBD1CB504462178582251433D4A881841
:101C000008F06FFF00200090042101906156034608
:101C10000122201D0DF0F4FB002002210091019013
:101C20001021615603460122204610300DF0E8FBDA
:101C3000002000901C21019061560346012220469D
:101C40001C300DF0DDFB0120009001902820015791
:101C50000023012220180DF0D3FB1CBD70B50446F3
:101C60000D4600BF002C06D020785821484321495A
:101C70000858002800D100BF2078582148431D494A
:101C80000858006840210843217858225143194AD6
:101C900051580860FEF74AFC00BF2078582148439D
:101CA0001449085880680221084040080028F4D0F0
:101CB000E9B22078582250430E4A1058C16000BF44
:101CC0002078582148430B4908588068C007C00F46
:101CD0000121484048400028F2D02078582148434C
:101CE00004490858C068C6B2FEF727FC304670BDEC
:101CF00018000020F40700200010024000300140CE
:101D00000038004080969800FEB504460D46164601
:101D10001F462570FF2D29D0DB48406A0121890329
:101D20000843D94948620846406A0121890388432B
:101D3000D54948620846406B012189030843D249CE
:101D400048630420012100230222009101903146C2
:101D5000201D0DF055FB04200121002302220091DB
:101D600001903946204610300DF04AFBFEBDFFB50C
:101D700081B004460D461F460C9E2078FF287DD07A
:101D8000C248C349086003984860002D07D1206A03
:101D9000002800D100BF0821BD48416117E0012D96
:101DA00007D1E06A002800D100BF0421B848416192
:101DB0000DE0022D0AD1206A002802D0E06A002836
:101DC00000D100BF0C21B248416100E000BF002FEC
:101DD00003D10021AE48816004E0012F02D1390314
:101DE000AB4881600A9800280FD0022802D003284F
:101DF0000AD104E001214903A548C16009E003219B
:101E00000903A348C16004E000BF0021A048C160ED
:101E100000BF00BF0B98002803D100219C4801613E
:101E20000AE00B98012803D181029948016103E07F
:101E30000321490296480161002E03D100219448F4
:101E4000816110E0012E03D13102914881610AE0E5
:101E5000022E03D131028E48816104E0032E02D1AB
:101E600031028B48816100218948C1610AF0F1FC8F
:101E7000002800D000BF0022012100E00AE01B2062
:101E800001F057FC1B2001F05DFC012281498048D4
:101E90000AF056FF05B0F0BD1CB504462078FF28B7
:101EA00029D07948406A012189030843764948626C
:101EB0000846406A012189038843734948620846FD
:101EC000406B0121890388436F49486300200090DB
:101ED00004210190615603460322201D0DF090FA63
:101EE00000200090102101906156034603222046F5
:101EF00010300DF085FA1CBD70B504460D462078F3
:101F0000FF2800D170BDFEF711FB63480570204625
:101F10001C300DF068FA002811D15F480178204686
:101F20001C300DF038FA5A48006800684021084318
:101F3000574909680860FEF700FB0020E2E7FEF75A
:101F4000FCFA0120DEE770B504460D462078FF2834
:101F500000D170BDFEF7EAFA204628300DF03AFABB
:101F6000002808D1204628300DF021FA2870FEF70D
:101F7000E4FA0020EDE7FEF7E0FA0120E9E7F7B523
:101F800005460E462878FF2800D1FEBD00240FE04C
:101F9000002705E0781CC7B20A2F01DD0120F4E715
:101FA000315D28460DF0EDFC0028F3D1601C84B2B1
:101FB00002988442ECDB0020E7E7FFB581B00D46D4
:101FC00016461F46002409E0291901980DF0E1FC8E
:101FD000002802D1601C84B200E001E0B442F3DBCF
:101FE00000BF3C80002C02D1012005B0F0BD0020D4
:101FF000FBE710B5044629480DF0ECF9002808D19C
:1020000026480DF0D4F924490870012220480AF02E
:1020100060FE22481C38406B002804D01F481C3842
:10202000416B0020884710BD10B504461B480C309A
:102030000DF0D9F9002805D11648017817480C3061
:102040000DF0A9F915481C38406B002804D013483E
:102050001C38416B0120884701220E490C480AF0C8
:102060006FFE10BD10B5044601220A4908480AF067
:1020700067FE10BD10B506480BF0D2F810BD10B5C4
:1020800003480BF0CDF810BD0010024000380140AD
:10209000A408002014000020150000200C070020D8
:1020A0001CB501200090002302461C210190EB4842
:1020B0000DF0A6F90020012103460246009101908F
:1020C0001B21E64870380DF09BF9002001210346E2
:1020D0000246009101902D21E04864380DF090F9FE
:1020E0000020012103460246009101901921DB489E
:1020F00058380DF085F90020012103460246009171
:1021000001901421D5484C380DF07AF900200121B6
:1021100003460246009101901321D04840380DF04B
:102120006FF90020012103460246009101900F2122
:10213000CA4834380DF064F91CBD10B504460322BA
:102140000121C648703823680DF06BF90322012184
:10215000C248643863680DF064F903220121BF4866
:102160005838A3680DF05DF903220121BB484C38B3
:10217000E3680DF056F903220121B848403823697D
:102180000DF04FF903220121B448343863690DF092
:1021900048F910BD1CB5012000210B4602460091F4
:1021A00001901C21AD480DF02BF900200090034652
:1021B00002461B210190A94870380DF021F900203A
:1021C0000090034602462D210190A44864380DF08A
:1021D00017F90020009003460246192101909F48FC
:1021E00058380DF00DF900200090034602461421E6
:1021F00001909A484C380DF003F9002000900346F6
:10220000024613210190954840380DF0F9F800205E
:102210000090034602460F210190904834380DF09B
:10222000EFF81CBD7047002070471CB50120FFF778
:10223000F9FF00200090034601221A2101908748EF
:102240007C380DF0DDF801200DF080F80120002130
:102250000B460A46009101901A2180487C380DF007
:10226000CFF806200DF072F81CBD014680207047A3
:1022700070B504460025002609200BF02DFB05460D
:102280004D200BF029FB064674490C314868FFF7D6
:10229000ECFF6906490E0843054628468F21084091
:1022A000054670358020284080282CD1112C04DD73
:1022B0003046F8210840C61D03E03046F8210840AA
:1022C000061D7007400F07280ED1052C00DA0524E3
:1022D000142C00DD14242846F0210840611F090752
:1022E000090F084305461EE0022C00DA0224112CD7
:1022F00000DD11242846F0210840A11E0907090F1E
:10230000084305460FE00020C043844200DA04463B
:102310000E2C00DD0E242846F0210840611C090720
:10232000090F08430546294609200BF0AEFA31464D
:102330004D200BF0AAFA70BD1CB5002000900123BF
:102340001A461946019046480DF05AF800200090B0
:1023500001231A460146019042480DF051F81CBD78
:102360001CB50120009000230246014601903C4824
:102370000DF046F80020012103460A460091019025
:10238000014638480DF03CF81CBD10B504463648EF
:102390000078A0420ED034480470002C05D10120F2
:1023A000FFF740FFFFF7DCFF04E00020FFF73AFFF4
:1023B000FFF7C2FF10BD10B50446032C06D0052C54
:1023C0000ED0062C0DD0072C09D10BE0002124489B
:1023D0000DF039F8012123480DF035F80BE000BF6E
:1023E00000BF00BF01211E480DF02DF800211D483F
:1023F0000DF029F800BF00BF10BD01460120704755
:1024000070B5044600200BF09AFA20460BF0E5FA6E
:1024100012210E200BF039FA022112200BF035FAAE
:10242000022113200BF031FA05200BF05FFA022095
:102430000CF08CFF00200BF02FFC05460BF070FA1F
:10244000284670BD70B505460C462846FFF7D8FFF4
:10245000A04201DA012070BD0020FCE7A80A00209C
:10246000140900202009002016000020044880479D
:1024700004480047FEE7FEE7FEE7FEE7FEE7FEE76B
:1024800089240008C10000084E480068FF2101317E
:1024900008434C4908600846C0684B490840494910
:1024A000C86008460068494908404649086008462F
:1024B000806840084000886008460068012189045F
:1024C0008843404908600846C068FD2109048843E4
:1024D0003C49C86000200861C8033D4988607047D6
:1024E000F8B500250024002600200090002735487C
:1024F000C0680C2108400546002D06D0042D11D0DF
:10250000082D13D00C2D41D114E02E48406807212E
:1025100049030840470B781C01218140C8032D491D
:10252000086040E02C482B4908603CE02B482949D2
:10253000086038E02348C0680F2189040840044639
:102540002048C0680321890508400646A00C24499C
:102550000C5CB00D461C1B48C068012109040840F2
:1025600000900098002808D11B4961430846314675
:102570000DF02DFA1749086007E018496143084635
:1025800031460DF024FA134908600CE00D4840680C
:10259000072149030840470B781C01218140C803EB
:1025A0000C49086000BF00BF0648C068F021084021
:1025B00000090C490D5C07480068E84005490860BF
:1025C000F8BD0000001002400C40FF88F6FFF6FE48
:1025D00000ED00E0180000200024F40000366E0139
:1025E0009C0F0108840F0108704770B504467D21D7
:1025F000C9005C4800680DF0EAF9054601F0CEF824
:1026000000222146501E01F094F8002070BD10B544
:102610005548006840210843534908600020FFF7EF
:10262000E4FFFFF7E1FF002010BD704710B5002068
:10263000C0434E49886200208862401E48620020E4
:102640004862401E086200200862401EC8610020E7
:10265000C861FFF7EAFF002010BD45480068401C34
:1026600043490860704742480068704731B500240C
:10267000FFF7F9FF044600BFFFF7F5FF001B0099C5
:102680008842F9D338BD3B48006902218843394963
:1026900008617047374800690221084335490861DD
:1026A00070473548704735480068000C704733481C
:1026B00000680005000D704730484068012108435C
:1026C0002E49486070472D484068400840002B491B
:1026D00048607047294840680221084327494860FC
:1026E0007047264840680221884324494860704763
:1026F00022484068042108432049486070471F4829
:102700004068042188431D49486070471B49496857
:1027100001431A4A51607047184949688143174A72
:10272000516070471648006803210902084070474D
:102730001349096A30229143114A11621146096A0C
:102740000143116270470E48006A0121C90708431E
:102750000B49086270470A48006A4000400808496F
:10276000086270471800002000200240001002405C
:102770001C00002000E000E00000070100580140BC
:1027800000000140704710B50446002C01D1012023
:1027900010BDA06D002806D1E06500215420015530
:1027A0002046FFF7EFFFA06D10210840002806D15A
:1027B0002068806804210840800800280AD0A06DA5
:1027C00010210843A06500BF00215420015500BF1F
:1027D0000120DDE7A06DFF2101318843022108437C
:1027E000A065206880688007800F012807D12068D5
:1027F0000068C007C00F002801D0012000E00020C1
:1028000000283AD100BF032189076069884207D0B8
:1028100049426069884203D04900606988420CD10E
:1028200020680069800080082168086120680069CC
:10283000616908432168086112E02068006980002E
:10284000800821680861F84880680F21890488435E
:10285000F54988600846806861690843F2498860E4
:1028600000BF2068C068182188432168C8602068BC
:10287000C068A16908432168C860EB4880680121ED
:1028800049068843E849886008468068A16C490683
:102890000843E549886020688068012109070840ED
:1028A000002804D120688068084321688860206877
:1028B000C068DE4908402168C860216A606A022950
:1028C00001D1042100E000210843A16A4903084323
:1028D000A16B49000843216C0843616C89030843DC
:1028E000E16CC90308432168C96808432168C860CE
:1028F000FF21C231206B884207D0616B206B0843F7
:102900002168C96808432168C860E06A012812D1BB
:10291000A06A002807D12068C06801210904084383
:102920002168C86007E0A06D20210843A065E06D24
:1029300001210843E0656068012817D1206800691B
:10294000FF218900884321680861A168E068084385
:1029500021690843216809690843216808612068E2
:10296000006901210843216808610BE020680069C3
:10297000C007C00F002805D020680069400840004B
:102980002168086120684069C008C000216848616A
:1029900020684069E1690843216848610020E065DA
:1029A000A06D0221884301210843A0650020EFE6C5
:1029B000704770B504460025206880688007800F46
:1029C000012807D120680068C007C00F002801D087
:1029D000012000E00020002837D020688068052111
:1029E0000840012800D100E0002000280AD000BFE4
:1029F00020688068022108432168886003202168DC
:102A0000086009E0A06D10210843A065E06D012178
:102A10000843E065012070BDFFF725FE05460EE086
:102A2000FFF721FE401B0A2809D9A06D1021084399
:102A3000A065E06D01210843E0650120EBE7206817
:102A40008068C007C00F0028EAD10020E3E770B516
:102A5000044600252068806804210840800800287A
:102A600029D020688068084000280BD02068806842
:102A700002210840002805D1206880681021084301
:102A800021688860FFF7EFFD05460EE0FFF7EBFDDC
:102A9000401B0A2809D9A06D10210843A065E06DEC
:102AA00001210843E065012070BD20688068042191
:102AB00008400028EAD10020F6E770B5044600255A
:102AC000002C01D1012070BDA06D02210843A0653A
:102AD0002046FFF7BCFF0546002D07D12046FFF733
:102AE00068FF0546012D01D00120A065012D3ED0D3
:102AF000206840684E490840216848604C48C043FF
:102B000021680860206880680121090788432168DE
:102B100088602068C068474908402168C86020680C
:102B20000069454908402168086120684069C0087B
:102B3000C000216848612068006A40490840216857
:102B4000086220688030406BC109C901206880306C
:102B5000416320688030406BC109C9012068803022
:102B600041632046FFF724FF0020E065A06500BF19
:102B700000215420015500BF2846A4E738B504467B
:102B80002F49304800680CF022FF6043009002E0BB
:102B90000098401E009000980028F9D138BD70B50B
:102BA00004460025206880688007800F012807D12F
:102BB00020680068C007C00F002801D0012000E095
:102BC000002000284BD1206880681F490840002859
:102BD00001D1012000E00020002809D1A06D1021C2
:102BE0000843A065E06D01210843E065012070BD48
:102BF0002068806801210843216888600120FFF770
:102C0000BDFFFFF730FD054620E0FFF72CFD401B20
:102C10000A281BD9A06D10210843A065E06D012191
:102C20000843E0650120E2E7002701401902FEFFAA
:102C300060F7FFFF00023E8302FCFF3F00F000F060
:102C400040420F0018000020170000802068006834
:102C5000C007C00F0121484048400028D5D00020BF
:102C6000C5E770B504460025206880680421084047
:102C7000800800282BD100BF5420005D012801D11D
:102C8000022070BD01215420015500BFE06C0128D5
:102C900003D02046FFF783FF0546002D18D1A06D15
:102CA000FE490840FF2101310843A0650020E0658E
:102CB00000BF00215420015500BF1C20216808607E
:102CC00020688068042108432168886000E00225AC
:102CD0002846D6E770B50446002500BF5420005DA5
:102CE000012801D1022070BD01215420015500BFEF
:102CF0002046FFF7ACFE0546002D0CD12046FFF71D
:102D000058FE0546002D06D1A06DFF2101318843F4
:102D100001210843A06500BF00215420015500BFD8
:102D20002846E0E7F8B504460D46E06B082801D1D7
:102D3000082711E02068C068C007C00F00280AD02B
:102D4000A06D20210843A06500BF0021542001553B
:102D500000BF0120F8BD0C27FFF785FC064614E0F4
:102D6000681C002811D0002D04D0FFF77CFC801BCC
:102D7000A8420AD9A06D04210843A06500BF002124
:102D80005420015500BF0320E4E720680068384064
:102D90000028E5D0A06D012149020843A065206804
:102DA000C068032189020840002825D1A06A0028B4
:102DB00022D1206800680821084008281CD120681A
:102DC000806804210840800800280DD120684068F0
:102DD0000C21884321684860A06DFF2101318843A0
:102DE00001210843A06507E0A06D20210843A065EC
:102DF000E06D01210843E065606C002802D10C20E1
:102E0000216808600020A5E7F8B504460D4616467F
:102E10000027FFF728FC074614E0701C002811D09B
:102E2000002E04D0FFF71FFCC01BB0420AD9A06DD2
:102E300004210843A06500BF00215420015500BFB4
:102E40000320F8BD206800682840A84201D1012075
:102E500000E000200028E0D0802D07D1A06D69029D
:102E60000843A0658020216808600FE0206C0028DE
:102E700008D1A06D012189020843A065E06D0221FF
:102E80000843E06510202168086000BF00BF0020F3
:102E9000D7E770B504460025206880680421084003
:102EA0008008002843D100BF5420005D012801D1D3
:102EB000022070BD01215420015500BFE06C0128A3
:102EC00003D02046FFF76BFE0546002D30D1A06DE4
:102ED00072490840FF2101310843A0650020E065E8
:102EE00000BF00215420015500BF1C20216808604C
:102EF000E06B08280CD120684068042188432168D1
:102F0000486020684068182108432168486006E04E
:102F1000206840681C2108432168486000BF00BF4A
:102F200020688068042108432168886000E0022549
:102F30002846BEE770B50446002500BF5420005D5A
:102F4000012801D1022070BD01215420015500BF8C
:102F50002046FFF77CFD0546002D12D12068406811
:102F60001C218843216848602046FFF722FD054662
:102F7000002D06D1A06DFF210131884301210843B6
:102F8000A06500BF00215420015500BF2846DAE7A4
:102F9000704770B50546AC6AA06D40210843A06536
:102FA000E06D04210843E0652046FFF7F1FF70BDA6
:102FB000704770B50446A56A2846FFF7F9FF70BD53
:102FC000704770B50546AC6AA06D502108400028D6
:102FD00035D1A06D012149020843A0652068C06871
:102FE000032189020840002825D1A06A002822D1A7
:102FF000206800680821084008281CD120688068E3
:1030000004210840800800280DD1206840680C2168
:10301000884321684860A06DFF2101318843012168
:103020000843A06507E0A06D20210843A065E06D7E
:1030300001210843E0652046FFF7C2FF03E0206D51
:10304000416B2846884770BDF8B504460D461646C4
:1030500000272068806804210840800800284BD1A0
:1030600000BF5420005D012801D10220F8BD0121DC
:103070005420015500BFE06C012803D02046FFF723
:103080008EFD0746002F38D1A06D04490840FF216E
:1030900001310843A0650020E06501E0FEF1FFFF7B
:1030A00000BF00215420015500BFF848216DC862BF
:1030B000F748216D0863F748216D48631C2021689B
:1030C0000860206840681021084321684860206833
:1030D000C068012108432168C86022681146403158
:1030E00033462A46206D00F048FE2068806804219F
:1030F00008432168886000E002273846B6E770B5CB
:103100000446002500BF5420005D012801D10220A3
:1031100070BD01215420015500BF2046FFF797FCE8
:103120000546002D28D12068C0684008400021686D
:10313000C860206D00F05AFE0546002D03D0A06D3A
:1031400040210843A0652068406810218843216819
:103150004860002D04D12046FFF72BFC054602E015
:103160002046FFF726FC002D06D1A06DFF2101317E
:10317000884301210843A06500BF00215420015568
:1031800000BF2846C4E701460868006C70477047D6
:1031900010B504462068006804210840042804D1C2
:1031A00020684068084004280AD020680068082188
:1031B0000840082840D120684068084008283BD1D2
:1031C000A06D10210840002803D1A06D49010843DB
:1031D000A0652068C068032189020840002825D125
:1031E000A06A002822D12068006808210840082829
:1031F0001CD12068806804210840800800280DD177
:10320000206840680C21884321684860A06DFF2138
:103210000131884301210843A06507E0A06D20210A
:103220000843A065E06D01210843E0652046FFF7F3
:10323000C7FE0C20216808602068006880210840D3
:1032400080280ED1206840680840802809D1A06DF0
:1032500049020843A0652046FFF799FF80202168B6
:103260000860206800681021084010281AD12068E2
:1032700040680840102815D1206C002805D020682F
:10328000C068C007C00F002809D0E06D02210843C4
:10329000E0651020216808602046FFF779FE1020C5
:1032A0002168086010BD70B504460D4600BF54206B
:1032B000005D012801D1022070BD0121542001557B
:1032C00000BF2068806804210840800800280AD0D8
:1032D000A06D20210843A06500BF002154200155A6
:1032E00000BF0120E8E76C496868884238D0206850
:1032F000806A29684903490B084321688862286865
:103300004003400B6549084001218904884208D1E7
:103310006348806849010843614988600A20FFF7D3
:103320002DFC28684003400B5E49084001214904F8
:10333000884205D15A488068490108435849886045
:1033400028684003400B584908400121090488427D
:103350003BD153488068090208435149886034E0F2
:103360002068806A29684903490B8843216888627C
:1033700028684003400B49490840012189048842DC
:1033800005D14748806849018843454988602868D5
:103390004003400B4349084001214904884205D1BC
:1033A0003F488068490188433D4988602868400358
:1033B000400B3D49084001210904884205D13848A5
:1033C0008068090288433649886000BF0021542084
:1033D000015500BF00206FE7F0B502460025032627
:1033E000B6050868B04200D100BF00BF5420805C21
:1033F000012801D10220F0BD01265420865400BFCF
:1034000010688068042630408008002852D18868FF
:10341000012806D110684068802630431668706025
:1034200005E0106840688026B04316687060106838
:10343000C0681E4E30401668F0601F27BF064E68F9
:103440003E40086830431668F66830431668F060FE
:10345000CB681668F66818273E40F6087600B34039
:103460000C691668F6683E40F6087600B4401068AD
:10347000006A0F4E304016683062180416683062D9
:103480001068006A20431668306218E0C32F0008F5
:10349000B32F0008932F000801100000000004481B
:1034A000002701400000024400000140FFFF3F836D
:1034B00000F000F0906D202630439065012500BF9C
:1034C00000265420865400BF284694E70146886DA4
:1034D00070470146C86D7047F8B504460F46002591
:1034E000002600BF5420005D012801D10220F8BD54
:1034F00001215420015500BF206880688007800F9B
:10350000012806D1206800680840002801D0012069
:1035100000E0002000282FD1A06DFF210131884359
:1035200002210843A0652068806889070843216854
:103530008860FFF798F8064611E0FFF794F8801BC3
:103540000A280CD9A06D0221884310210843A065E8
:1035500000BF00215420015500BF0120C7E72068AB
:103560008068C00FC0070028E7D1A06D0221884302
:1035700001210843A06504E0A06D20210843A06557
:10358000012500BF00215420015500BF2846AEE7A9
:10359000024610688030406B4006400E704730B5E0
:1035A00003460C46002100BF5420C05C012801D115
:1035B000022030BD01255420C55400BF1868806822
:1035C0008007800F012806D118680068284000286D
:1035D00001D0012000E00020002816D01868806883
:1035E00004252840800800280FD118688030406BDF
:1035F000C509ED0118688030456318688030406B5C
:1036000010431D688035686308E0986D10252843D5
:103610009865D86D01252843D865012100BF002594
:103620005420C55400BF0846C3E710B50024244801
:10363000006AFF210131084321490862FFF713F8AE
:10364000044606E0FFF70FF8001B032801D901200C
:1036500010BD1B48006A0121890708400028F1D0ED
:103660000020F5E71648006AFF210131884314491C
:103670000862704710B500241148006A0121490210
:1036800008430F490862FEF7EEFF044606E0FEF726
:10369000EAFF001B012801D9012010BD0848006A7B
:1036A0000121890708400028F1D00020F5E70448EF
:1036B000006A0121490288430149086270470000FD
:1036C0000000014010B5002819DA814A03071B0FDA
:1036D000083B9B089B00D2588307DC0EFF23A340C6
:1036E0009A438B071B0E8407E40EA3401A43784BC2
:1036F0000407240F083CA408A4001A5118E0754AD6
:1037000003231B02D21883089B00D2588307DC0EC8
:10371000FF23A3409A438B071B0E8407E40EA340AC
:103720001A436C4B032424021B198408A4001A5169
:1037300010BD70B504460D46164629462046FFF7D3
:10374000C1FF70BD00BFC206D20E01219140614A87
:10375000116000BF704700BFC206D20E0121914028
:103760005C4A8032116000BF704700BF00BF00BFDD
:1037700000BF00BFBFF34F8F00BF00BF00BF564860
:1037800053491C39C86000BF00BF00BFBFF34F8F53
:1037900000BF00BF00BF00BF00BFFDE770B504461B
:1037A0002546681E4D49884201D901200CE0681E5B
:1037B0004B4948610321081FFFF784FF0020484957
:1037C000886107200861002070BD01460846002876
:1037D0000CDA3F4A03071B0F083B9B089B00D2589B
:1037E0008307DB0EDA401206920F0BE0394A0323FF
:1037F0001B02D21883089B00D2588307DB0EDA40E5
:103800001206920F1046704700BFC206D20E012169
:103810009140344A116000BF704710B50146084618
:10382000304A1268C406E40E0123A3401A40002A5D
:1038300001D0012200E00022104610BD00BFC206E8
:10384000D20E01219140274A8032116000BF70479B
:10385000042806D12249096904221143204A116132
:1038600005E01F490969042291431D4A116170470F
:10387000704710B5FFF7FCFF10BD4179144A643260
:103880009161017901291DD1016809090901D161FD
:10389000817A0907427A12061143C27A92041143CF
:1038A000027B52041143427B12041143C27912027B
:1038B000114382795200114302791143044A643260
:1038C000116204E00021024A6432D1611162704742
:1038D0001CED00E000E100E00400FA05FFFFFF003E
:1038E00000E000E000E200E001460022002901D1F2
:1038F000012070472520405C002802D100232420AD
:10390000435402232520435408680268FD480240BE
:10391000CB68886818430B6918434B6918438B6957
:103920001843CB6918430B6A1843024308680260C6
:10393000F54B086898420FD1F3487830806A000947
:103940000001F14B783398621846806A4B6818433F
:10395000ED4B7833986285E0EB4B1433086898425E
:1039600010D1E9487830806AF0239843E64B7833E9
:1039700098621846806A4B681B011843E24B783303
:1039800098626FE0E04B28330868984211D1DE4816
:103990007830806A0F231B029843DB4B78339862A0
:1039A0001846806A4B681B021843D74B78339862DD
:1039B00058E0D54B3C330868984211D1D248783052
:1039C000806A0F231B039843CF4B783398621846C5
:1039D000806A4B681B031843CB4B7833986241E0F5
:1039E000C94B50330868984211D1C7487830806A73
:1039F0000F231B049843C44B783398621846806A9F
:103A00008B881B041843C04B783398622AE0BE4B66
:103A100064330868984211D1BB487830806A0F231C
:103A20001B059843B84B783398621846806A8B8898
:103A30001B051843B44B7833986213E0B24B7833CC
:103A4000086898420ED1806A0F231B069843AE4B3C
:103A5000783398621846806A0B791B061843AA4B84
:103A600078339862012325204354002041E7014622
:103A7000002901D1012070472520405C022801D196
:103A80000120F8E708680068400840000A681060F4
:103A900000200A6810600A6850600A6890600A682E
:103AA000D060994A0868904201D1012026E0964AE8
:103AB00014320868904201D110201FE0924A283247
:103AC0000868904201D1801518E08F4A3C3208689E
:103AD000904201D1801411E08B4A50320868904224
:103AE00002D10120000409E0874A6432086890424C
:103AF00002D10120000501E001200006824A083AB7
:103B00005060814A0868904201D1022027E07E4A35
:103B100014320868904201D1202020E07A4A2832ED
:103B20000868904201D1401519E0774A3C32086894
:103B3000904202D10120400311E0734A50320868DC
:103B4000904202D10120400409E06F4A64320868C3
:103B5000904202D10120400501E0012040066A4A5E
:103B6000083A5060684A0868904201D1082027E06E
:103B7000654A14320868904201D1802020E0624AF0
:103B800028320868904201D1C01419E05E4A3C32E4
:103B90000868904202D10120C00311E05A4A503215
:103BA0000868904202D10120C00409E0564A6432FC
:103BB0000868904202D10120C00501E00120C00642
:103BC000514A083A5060504A0868904201D1042096
:103BD00027E04D4A14320868904201D1402020E08D
:103BE000494A28320868904201D1001519E0464A36
:103BF0003C320868904202D10120800311E0424A21
:103C000050320868904202D10120800409E03E4A07
:103C100064320868904202D10120800501E0012051
:103C20008006394A083A5060374A0868904208D1FD
:103C300035487830806A00090001334A7832906252
:103C400055E0314A14320868904208D12E48783045
:103C5000806AF02290432C4A7832906247E02A4AE8
:103C600028320868904209D127487830806A0F22AC
:103C700012029043244A7832906238E0224A3C3261
:103C80000868904209D120487830806A0F221203D8
:103C900090431D4A7832906229E01B4A50320868EE
:103CA000904209D118487830806A0F22120490435C
:103CB000154A783290621AE0134A643208689042DA
:103CC00009D111487830806A0F22120590430E4ABC
:103CD000783290620BE00C4A78320868904206D144
:103CE000806A0F2212069043074A783290620020C1
:103CF000886300222520425400BF2420425400BF84
:103D00000020B8E60FC0FFFF0800024010B50468AD
:103D100063608468102C04D10468A2600468E160C8
:103D200003E00468A1600468E26010BDF8B50446D1
:103D30000D4616461F4600BF2420005D012801D114
:103D40000220F8BD01212420015500BF02212520B9
:103D500001552068006840084000216808603B4623
:103D6000324629462046FFF7D1FF2068006801212E
:103D70000843216808600020E3E7F8B504460D46D3
:103D800016461F4600BF2420005D012801D10220F5
:103D9000F8BD01212420015500BF02212520015535
:103DA0002068006840084000216808603B463246B1
:103DB00029462046FFF7AAFF206800680221084331
:103DC00021680860206800680421084321680860B1
:103DD000206800680821084321680860206800689E
:103DE00001210843216808600020D1E770B504462E
:103DF0000025206800684008400021680860FEF740
:103E000032FC054614E0FEF72EFC401B7D21C90064
:103E100088420DD9A06B20210843A06300BF002178
:103E20002420015500BF032125200155032070BD2A
:103E300020680068C007C00F0028E4D100BF00213F
:103E40002420015500BF0121252001550020EEE767
:103E5000F8B504460E46154600200090002E2FD1DE
:103E6000FC492068884201D1022027E0F949143139
:103E70002068884201D1202020E0F64928312068BE
:103E8000884201D1401519E0F2493C31206888424E
:103E900002D10120400311E0EE49503120688842F0
:103EA00002D10120400409E0EA49643120688842D7
:103EB00002D10120400501E00120400607462EE026
:103EC000E4492068884201D1042027E0E149143107
:103ED0002068884201D1402020E0DE492831206856
:103EE000884201D1001519E0DA493C312068884246
:103EF00002D10120800311E0D64950312068884268
:103F000002D10120800409E0D2496431206888424E
:103F100002D10120800501E0012080060746FEF75E
:103F2000A2FB00908BE0CB4808380068C94A2168A2
:103F3000914201D1082127E0C64A143221689142FA
:103F400001D1802120E0C34A28322168914201D169
:103F5000C91419E0BF4A3C322168914202D10121C3
:103F6000C90311E0BB4A50322168914202D10121BC
:103F7000C90409E0B74A64322168914202D10121A3
:103F8000C90501E00121C906084000283ED0B14919
:103F90002068884201D1082027E0AE49143120680A
:103FA000884201D1802020E0AA4928312068884237
:103FB00001D1C01419E0A7493C312068884202D1E0
:103FC0000120C00311E0A34950312068884202D18A
:103FD0000120C00409E09F4964312068884202D171
:103FE0000120C00501E00120C0069A490839486057
:103FF000A06B01210843A06304212520015500BFC7
:1040000000212420015500BF0120F8BD681C0028B4
:1040100015D0002D05D0FEF726FB0099401AA842C6
:104020000DD9A06B20210843A06303212520015551
:1040300000BF00212420015500BF0320E5E785488B
:10404000083800683840002800D16CE7002E38D1CD
:1040500080492068884201D1022027E07D4914313F
:104060002068884201D1202020E07A492831206848
:10407000884201D1401519E076493C3120688842D8
:1040800002D10120400311E072495031206888427A
:1040900002D10120400409E06E4964312068884261
:1040A00002D10120400501E001204006694908399C
:1040B000486001212520015500BF00212420015521
:1040C00038E064492068884201D1042027E0614932
:1040D00014312068884201D1402020E05D49283118
:1040E0002068884201D1001519E05A493C31206806
:1040F000884202D10120800311E0564950312068E6
:10410000884202D10120800409E0524964312068CC
:10411000884202D10120800501E0012080064D493E
:104120000839486005212520015500BF00212420C1
:10413000015500BF002068E710B50446454808381F
:104140000068444A2168914201D1082127E0414A90
:1041500014322168914201D1802120E03D4A283269
:104160002168914201D1C91419E03A4A3C322168D0
:10417000914202D10121C90311E0364A503221682F
:10418000914202D10121C90409E0324A6432216816
:10419000914202D10121C90501E00121C90608406F
:1041A00000284DD02068006808210840002847D02A
:1041B0002068006888432168086026492068884292
:1041C00001D1082027E0234914312068884201D119
:1041D000802020E01F4928312068884201D1C01486
:1041E00019E01C493C312068884202D10120C003FB
:1041F00011E0184950312068884202D10120C004E2
:1042000009E0144964312068884202D10120C005C8
:1042100001E00120C0060F4908394860A06B012168
:104220000843A06304212520015500BF002124205C
:10423000015500BF606B002802D02046616B8847A3
:10424000044808380068034A2168914204D10421D7
:1042500029E0000008000240824A2168914201D111
:10426000402120E07F4A14322168914201D1091592
:1042700019E07C4A28322168914202D10121890348
:1042800011E0784A3C322168914202D1012189042F
:1042900009E0744A50322168914202D10121890516
:1042A00001E001218906084000284BD02068006801
:1042B00004210840002845D02068006820210840DB
:1042C000002805D12068006804218843216808601F
:1042D000644914392068884201D1042026E06149EC
:1042E0002068884201D1402020E05E4914312068D6
:1042F000884201D1001519E05A49283120688842C6
:1043000002D10120800311E056493C3120688842E7
:1043100002D10120800409E05249503120688842CE
:1043200002D10120800501E0012080064D491C39A1
:104330004860052125200155206B002802D0204629
:10434000216B884747481C380068464A143A216860
:10435000914201D1022126E0424A2168914201D1D5
:10436000202120E03F4A14322168914201D14915B1
:1043700019E03C4A28322168914202D101214903C7
:1043800011E0384A3C322168914202D101214904AE
:1043900009E0344A50322168914202D10121490595
:1043A00001E0012149060840002852D02068006839
:1043B0000221084000284CD02068006820210840D5
:1043C000002805D120680068022188432168086020
:1043D000244914392068884201D1022026E021496D
:1043E0002068884201D1202020E01E491431206835
:1043F000884201D1401519E01A49283120688842C5
:1044000002D10120400311E016493C312068884266
:1044100002D10120400409E012495031206888424D
:1044200002D10120400501E0012040060D491C3960
:104430004860A06BA06301212520015500BF002129
:104440002420015500BFE06A002802D02046E16A1E
:10445000884710BD01462520405C70470146886BA7
:10446000704700001C00024070B503460022002483
:104470000020DFE0012696400D6835402C46002CD8
:1044800077D04D68022D02D04D68122D15D1D50878
:10449000AE001D462035A8595507EE0E0F25B54034
:1044A0000646AE4330465607F60E0D69B540284322
:1044B000D508AD001E46203670514D68012D08D03C
:1044C0004D68022D05D04D68112D02D04D68122D7A
:1044D00018D1986856000325B5400646AE433046CD
:1044E0005600CD68B540284398605868012595402E
:1044F0000646AE43304610264D6835402D0995409E
:1045000028435860186856000325B5400646AE4358
:1045100030460D79AD07AD0F5600B5402843186001
:10452000D86856000325B5400646AE4330465600CF
:104530008D68B5402843D860012636074D68354060
:10454000B54276D19E4D6D6B012635439C4E756309
:104550009C4D9608B600A85995072E0F0F25B5401B
:104560000646AE43304605252D07AB4202D1002555
:104570001AE05EE0944DAB4201D1012514E0934D69
:10458000AB4201D102250FE0914DAB4201D1032591
:104590000AE0904DAB4201D1042505E08E4DAB42BF
:1045A00001D1052500E006259607360FB5402843C2
:1045B000844D9608B600A851884D28680546A54345
:1045C0002846012636044D683540B54202D10546DD
:1045D00025432846814D286068680546A54328463E
:1045E000012676044D683540B54202D10546254383
:1045F00028467A4D6860A8680546A54328460126E6
:1046000036054D683540B54202D10546254328465A
:10461000724DA860E8680546A54328460126760540
:104620004D683540B54202D10546254328466B4DBD
:10463000E860521C0D68D540002D00D01AE770BD0F
:10464000F0B50B4600210022002479E001258D40C1
:104650001D402A46002A72D005684F000326BE403E
:10466000B5430560CD08AE0005462035AD594E076F
:10467000F70E0F26BE40B543CE08B60007462037DA
:10468000BD5185684F000326BE40B543856045682F
:1046900001268E40B5434560C5684F000326BE40E5
:1046A000B543C560474D8E08B600AC598D072E0F37
:1046B0000F25B5402C4005252D07A84201D1002526
:1046C00019E0414DA84201D1012514E03F4DA84217
:1046D00001D102250FE03E4DA84201D103250AE099
:1046E0003C4DA84201D1042505E03B4DA84201D133
:1046F000052500E006258E07360FB540A5421ED1E0
:104700008D072E0F0F25B5402C462E4D8E08B60076
:10471000AD59A5432B4E8F08BF00F5512F4D2D6885
:1047200095432E4E356035466D6895437560354628
:10473000AD689543B5603546ED689543F560491C15
:104740001D46CD40002D81D1F0BD024613690B40BE
:10475000002B01D0012000E000207047002A01D08A
:10476000816100E08162704742694A40426170475E
:1047700008B502460120000400900098084300900C
:104780000098D061D1610098D061D0690090D06963
:1047900001231B041840002801D0002008BD01207F
:1047A000FCE7704710B504460C48406920400028DB
:1047B00004D00A4844612046FCF7ADFB10BD000060
:1047C00000100240080001400004005000080050A2
:1047D000000C005000100050001C0050000401406C
:1047E000704710B50446002C01D1012010BD3520C2
:1047F000005D002805D10021342001552046FFF737
:10480000EFFF022135200155206800684008400074
:10481000216808600F2109066068884321680861E3
:10482000206880680121C903884321688860A068E6
:1048300000280FD0E068012806D10121C903A06833
:1048400008432168886005E021218902A0680843A7
:1048500021688860E068022802D1800221684860EF
:1048600020684068FB490843216848606169206905
:104870000843A169090208432168C860216AE06908
:104880000843216808602068006801210843216806
:1048900008600020A0630121352001550020A5E714
:1048A000704710B50446002C01D1012010BD022133
:1048B00035200155206800684008400021680860E4
:1048C0002046FFF7EDFF0020A063002135200155B1
:1048D00000BF3420015500BF0020E7E770B5044653
:1048E0000D460026FDF7BFFE0646206880691021B0
:1048F00008400009002858D03520005D122807D054
:104900003520005D522803D03520005D62280CD18F
:1049100020684068012149060840884205D0206887
:104920004068C91208432168486013E0681C0028E9
:1049300010D0002D04D0FDF796FE801BA84209D9A7
:1049400001213520015500BF00213420015500BF51
:10495000032070BD2068806920210840400900289C
:10496000E4D010202168C86120202168C861206837
:104970008069C007C00F012148404840002802D18B
:1049800001202168C86120684068B3490840216857
:1049900048600420A06301213520015500BF00219B
:1049A0003420015500BF0120D3E70020D1E770B5C6
:1049B00004460D460026FDF756FE06461CE0294635
:1049C0002046FFF78BFF002801D0012070BD002D8D
:1049D00004D0FDF748FE801BA8420DD9A06B202112
:1049E0000843A06301213520015500BF0021342078
:1049F000015500BF0320E9E72068806920210840B5
:104A000040090028DBD00020E0E7F0B50C4600218B
:104A100005686968914D2940A505AD0D1604FF276D
:104A20003F043E4035431D43059E354329430568F9
:104A30006960F0BDFFB581B004460E461D46FDF726
:104A400012FE07460398002824D114E0681C0028B1
:104A500011D0002D04D0FDF706FEC01BA8420AD9D4
:104A600001213520015500BF00213420015500BF30
:104A7000032005B0F0BD20688069F103C90B084030
:104A8000F103C90B884201D1012000E00020002879
:104A9000DCD022E013E0681C002810D0002D04D0E8
:104AA000FDF7E1FDC01BA84209D9012135200155C0
:104AB00000BF00213420015500BF0320D9E7206842
:104AC0008069F103C90B0840F103C90B884201D189
:104AD000012000E000200028DDD10020C9E770B5EA
:104AE00004460D46FDF7BFFD06461FE02946204659
:104AF000FFF7F4FE002801D0012070BD681C0028DB
:104B000014D0002D04D0FDF7AEFD801BA8420DD9B6
:104B1000A06B20210843A06301213520015500BF6F
:104B200000213420015500BF0320E6E7206880699A
:104B30000221084040080028D8D00020DDE7FFB55A
:104B400083B0044616461D460C9F00200290352077
:104B5000005D01287DD1206880690121C9030840DA
:104B6000C00B002802D0022007B0F0BD00BF3420E7
:104B7000005D012801D10220F6E701213420015512
:104B800000BF1221352001550020A063FF2D0BD955
:104B900001204003C302FF22009020460499FFF742
:104BA00034FFFF20029009E001204003EAB2030332
:104BB000009020460499FFF728FF029500BF394670
:104BC0002046FFF78CFF002806D0A06B042801D1F7
:104BD0000120C9E70320C7E7307821688862761C86
:104BE0000298401E0290681E85B20298002823D1C8
:104BF000002D21D03B46002280212046FFF71AFFDE
:104C0000002801D00320AFE7FF2D0BD9002001239E
:104C10001B06FF22009020460499FFF7F6FEFF20B6
:104C2000029009E00020EAB201235B0600902046D2
:104C30000499FFF7EAFE0295002DC0D139462046BF
:104C4000FFF7B5FE00280DD0A06B042808D1012085
:104C50008AE71AE00080000200E800FE009800FCED
:104C6000032081E720202168C86120684068FE4950
:104C700008402168486001213520015500BF00210E
:104C80003420015500BF00206EE702206CE770B5AC
:104C900004460D460026FDF7E6FC064638E02946A8
:104CA0002046FFF71BFE002801D0012070BD2068C0
:104CB0008069202108404009002814D02020216864
:104CC000C86120684068E8490840216848600020C1
:104CD000A06301213520015500BF0021342001557A
:104CE00000BF0120E2E7002D04D0FDF7BCFC801BD3
:104CF000A8420DD9A06B20210843A06301213520D3
:104D0000015500BF00213420015500BF0320CDE72D
:104D1000206880690421084080080028BFD0002056
:104D2000C4E7FFB581B0044616461D46002735206E
:104D3000005D01287AD1206880690121C9030840FB
:104D4000C00B002802D0022005B0F0BD00BF342007
:104D5000005D012801D10220F6E701213420015530
:104D600000BF2221352001550020A063FF2D0BD963
:104D70000920800201231B06FF2200902046029991
:104D8000FFF743FEFF270AE009208002EAB2012371
:104D90005B06009020460299FFF737FE2F4600BFC2
:104DA00004212046FFF773FF002806D0A06B0428DB
:104DB00001D10120C8E70320C6E72068406A3070AF
:104DC000761C7F1E681E85B2002F22D1002D20D0B8
:104DD0000022802120460A9BFFF72CFE002801D0EC
:104DE0000320B1E7FF2D0AD9002001231B06FF2273
:104DF000009020460299FFF708FEFF2709E00020F7
:104E0000EAB201235B06009020460299FFF7FDFD00
:104E10002F46002DC4D119212046FFF7C8FD0028D8
:104E200007D0A06B042802D101208DE714E00320F5
:104E30008AE720202168C861206840688A490840C4
:104E40002168486001213520015500BF0021342030
:104E5000015500BF002077E7022075E7F8B504464A
:104E60000D4616461F463520005D01287ED1002DD7
:104E700001D0002E01D10120F8BD00BF3420005D1B
:104E8000012801D10220F7E701213420015500BF9C
:104E90004221352001550020A0632068406801218F
:104EA000C9038843216848603B4600220821204608
:104EB000FFF7C0FD002808D0206840680121C90321
:104EC0000843216848600320D6E708202168C861AC
:104ED000E068022813D13B46002208212046FFF754
:104EE000A9FD002808D0206840680121C9030843B3
:104EF000216848600320BFE708202168C8613B465D
:104F00000022012109042046FFF794FD002808D063
:104F1000206840680121C9030843216848600320D4
:104F2000AAE700BF39462046FFF7D9FD00280DD07B
:104F3000206840680121C903084321684860A06BCC
:104F4000042801D1012097E7032095E728782168FC
:104F500088626D1C701E86B2002EE3D11921204696
:104F6000FFF725FD002810D0206800E032E04068FF
:104F70000121C903084321684860A06B042802D1BD
:104F80000020A06301E0032076E720202168C861AB
:104F90003B46012281022046FFF74CFD002808D045
:104FA000206840680121C903084321684860032044
:104FB00062E7206840680121C9030843216848600E
:104FC00001213520015500BF00213420015500BFCB
:104FD000002051E702204FE7F8B504460D4616467B
:104FE0001F463520005D01287ED1002D01D0002E06
:104FF00001D10120F8BD00BF3420005D012801D19E
:105000000220F7E701213420015500BF422135205D
:1050100001550020A063206840680121C90388432E
:10502000216848603B46002208212046FFF702FD28
:10503000002808D0206840680121C903084321687E
:1050400048600320D6E708202168C8613B4601225A
:1050500041032046FFF7EEFC00280BD02068406893
:105060000121C903084301E000E800FE216848600F
:105070000320BFE724E039462046FFF708FE00285A
:1050800018D0206840680121C9030843216848609E
:1050900020688069042108408008002803D0206827
:1050A000406A28706D1CA06B202801D10320A1E765
:1050B00001209FE72068406A28706D1C701E86B230
:1050C000002ED8D119212046FFF771FC00280ED000
:1050D000206840680121C903084321684860A06B2B
:1050E000042802D1012085E726E0032082E7202062
:1050F0002168C8613B46012281022046FFF79AFCE5
:10510000002808D0206840680121C90308432168AD
:10511000486003206EE7206840680121C903084306
:105120002168486001213520015500BF002134204D
:10513000015500BF00205DE702205BE7F8B504469B
:105140000F4616461D463520005D012852D1002E1F
:1051500001D0002D01D10120F8BD20688069012116
:10516000C9030840C00B002801D00220F4E700BFAB
:105170003420005D012801D10220EDE70121342017
:10518000015500BF1221352001550020A063666241
:105190006585FF2D02D9FF20208500E02585208D23
:1051A000FF280FD1208D618D88420BDA012040034A
:1051B0000090208DC2B201231B0639462046FFF71E
:1051C00024FC0AE0012040030090208DC2B201239C
:1051D0005B0639462046FFF718FC00BF002134204B
:1051E000015500BF20680068F2210843216808606B
:1051F0000020B1E70220AFE7F8B504460F46164697
:105200001D463520005D012852D1002E01D0002D11
:1052100001D10120F8BD206880690121C90308403F
:10522000C00B002801D00220F4E700BF3420005D4D
:10523000012801D10220EDE701213420015500BFF2
:105240002221352001550020A06366626585FF2D6F
:1052500002D9FF20208500E02585208DFF280FD171
:10526000208D618D88420BDA092080020090208D0C
:10527000C2B201231B0639462046FFF7C6FB0AE0EF
:10528000092080020090208DC2B201235B063946BE
:105290002046FFF7BAFB00BF00213420015500BFB4
:1052A00020680068F4210843216808600020B1E705
:1052B0000220AFE710B503463520C05C01282CD191
:1052C000002901D0002A01D1012010BD00BF3420E7
:1052D000C05C012801D10220F7E701243420C45426
:1052E00000BF32243520C4540020986318684068F9
:1052F0000124E403A0431C68606059621A855A8542
:1053000000BF00243420C45400BF18680068FA2489
:1053100020431C6820600020D7E70220D5E710B5A5
:1053200003463520C05C01282CD1002901D0002A79
:1053300001D1012010BD00BF3420C05C012801D183
:105340000220F7E701243420C45400BF4224352052
:10535000C45400209863186840680124E403A04303
:105360001C68606059621A855A8500BF0024342089
:10537000C45400BF18680068FC2420431C682060E7
:105380000020D7E70220D5E7704770B50546AC6A24
:10539000206840680121C903084321684860002053
:1053A0006085012135200155A06B10210843A063C1
:1053B0002046FFF7E9FF70BD7047F8B50546AC6AB7
:1053C000208DFF287ED1208D618D88427ADA1923C5
:1053D000002280212046FFF72DFB002803D0A06B80
:1053E00020210843A06320680068012189038843C5
:1053F00021680860A06B002823D019212046FFF700
:10540000D6FA00280BD0A06B042804D1A06B04218D
:105410000843A06303E0A06B20210843A063202081
:105420002168C86120684068FB49084021684860DD
:10543000002060850121352001552046FFF7A4FF9B
:105440009CE0218D606A40186062608D218D401A59
:105450006085608DFF2802D9FF20208501E0608DE6
:105460002085206840688605B60D238D27683A465A
:105470002832616AE06AFEF780FC208DFF280ED199
:10548000208D618D88420ADA00200090208DC2B202
:1054900001231B0631462046FFF7B7FA09E000203A
:1054A0000090208DC2B201235B0631462046FFF7F3
:1054B000ACFA19212046FFF712FB002825D019214C
:1054C000204600E029E0FFF772FA00280BD0A06B1D
:1054D000042804D1A06B04210843A06303E0A06B5F
:1054E00020210843A06320202168C861206840680B
:1054F000C9490840216848600020608501213520A5
:1055000001552046FFF740FF38E020680068012180
:10551000890308432168086030E019212046FFF71D
:1055200046FA00280BD0A06B042804D1A06B0421FC
:105530000843A06303E0A06B20210843A063202060
:105540002168C86120684068B34908402168486004
:1055500020680068012189038843216808600020D1
:105560006085012135200155A06B002803D020461D
:10557000FFF70AFF02E02046FFF71EFFF8BDF8B56F
:1055800004460F4616461D463520005D012879D198
:10559000002E01D0002D01D10120F8BD20688069C6
:1055A0000121C9030840C00B002801D00220F4E704
:1055B00000BF3420005D012801D10220EDE7012168
:1055C0003420015500BF1221352001550020A06371
:1055D00066626585FF2D02D9FF20208500E02585C4
:1055E0008E48E16AC8628E48E16A4863238D21686B
:1055F0000A4628323146E06AFEF7BFFB208DFF28BD
:105600000FD1208D618D88420BDA0120400300907C
:10561000208DC2B201231B0639462046FFF7F5F95B
:105620000AE0012040030090208DC2B201235B06F6
:1056300039462046FFF7E9F919212046FFF74FFACE
:10564000002810D0206840680121C9030843216860
:105650004860E06AFEF7CAFBA06B042801D1012074
:105660009BE7032099E7206800680121890308432C
:105670002168086000BF00213420015500BF0020D0
:105680008BE7FFE7022088E77047F8B50546AC6A6C
:10569000208DFF287ED1208D618D88427ADA1923F2
:1056A000002280212046FFF7C5F9002803D0A06B17
:1056B00020210843A063206800680121C9038843B2
:1056C00021680860A06B002823D019212046FFF72D
:1056D0006EF900280BD0A06B042804D1A06B042124
:1056E0000843A06303E0A06B20210843A0632020AF
:1056F0002168C861206840684749084021684860BF
:10570000002060850121352001552046FFF73CFE31
:10571000ABE0218D606A40186062608D218D401A77
:105720006085608DFF2802D9FF20208501E0608D13
:105730002085206840688605B60D238D2768394688
:105740002431626A206BFEF718FB208DFF280ED1F2
:10575000208D618D88420ADA00200090208DC2B22F
:1057600001231B0631462046FFF74FF909E00020D0
:105770000090208DC2B201235B0631462046FFF720
:1057800044F91923002204212046FFF753F9002889
:1057900005D000E032E0A06B20210843A063A06B9D
:1057A000002823D019212046FFF701F900280BD04B
:1057B000A06B042804D1A06B04210843A06303E07C
:1057C000A06B20210843A06320202168C8612068C5
:1057D0004068114908402168486000206085012127
:1057E000352001552046FFF7CFFD3EE020680068D8
:1057F0000121C90308432168086036E019212046C9
:10580000FFF7D5F8002811D0A06B04280AD1A06BAF
:1058100004210843A06309E000E800FEBB53000830
:105820008B530008A06B20210843A063202021682F
:10583000C86120684068FA490840216848602068CB
:1058400000680121C9038843216808600020608541
:10585000012135200155A06B002803D02046FFF719
:1058600093FD02E02046FFF70FFFF8BDF8B50446B0
:105870000F4616461D463520005D012872D1002EC8
:1058800001D0002D01D10120F8BD206880690121DF
:10589000C9030840C00B002801D00220F4E700BF74
:1058A0003420005D012801D10220EDE701213420E0
:1058B000015500BF2221352001550020A0636662FA
:1058C0006585FF2D02D9FF20208500E02585D5487C
:1058D000216BC862D448216B4863238D226811462E
:1058E00024313246206BFEF748FA208DFF280FD175
:1058F000208D618D88420BDA092080020090208D76
:10590000C2B201231B0639462046FFF77EF80AE0A3
:10591000092080020090208DC2B201235B06394627
:105920002046FFF772F804212046FFF7B0F900285F
:1059300009D0206BFEF75AFAA06B042801D1012090
:10594000A2E70320A0E7206800680121C9030843FB
:105950002168086000BF00213420015500BF0020ED
:1059600092E7FFE702208FE7704770B50546AC6A03
:1059700019212046FFF71BF8002809D0A06B042846
:1059800002D10020A06303E0A06B20210843A063A4
:1059900020202168C8611923012281022046FFF7D7
:1059A00049F8002803D0A06B20210843A063206899
:1059B0000068012189038843216808600020608510
:1059C000012135200155A06B002803D02046FFF7A8
:1059D000DBFC02E02046FFF7C7FF70BD70B5044650
:1059E0000E4615463520005D012879D1002E01D0E4
:1059F000002D01D1012070BD00BF3420005D0128C1
:105A000001D10220F7E701213420015500BF3221E6
:105A1000352001550020A063666265852585834891
:105A2000E16AC8628048E16A4863238D21680A46BA
:105A300028323146E06AFEF7A0F92068406801216B
:105A4000C903884321684860794B00220821204619
:105A5000FEF7F0FF002808D0206840680121C90344
:105A60000843216848600320C5E708202168C86111
:105A7000E068022813D16E4B002208212046FEF771
:105A8000D9FF002808D0206840680121C9030843D5
:105A9000216848600320AEE708202168C861192307
:105AA0000022012109042046FEF7C4FF002808D087
:105AB000206840680121C903084321684860032029
:105AC00099E720680068012189030843216808607C
:105AD00000BF00213420015500BF00208BE7FFE705
